{"project/contracts/cross-chain/LayerZeroAMM.sol":{"LayerZeroAMM":{"abi":[{"inputs":[{"internalType":"address","name":"_endpoint","type":"address"},{"internalType":"address","name":"_delegate","type":"address"},{"internalType":"address","name":"_aimm","type":"address"}],"stateMutability":"nonpayable","type":"constructor"},{"inputs":[{"internalType":"address","name":"owner","type":"address"}],"name":"OwnableInvalidOwner","type":"error"},{"inputs":[{"internalType":"address","name":"account","type":"address"}],"name":"OwnableUnauthorizedAccount","type":"error"},{"anonymous":false,"inputs":[{"indexed":true,"internalType":"uint32","name":"dstEid","type":"uint32"},{"indexed":true,"internalType":"address","name":"user","type":"address"},{"indexed":false,"internalType":"uint256","name":"amount","type":"uint256"}],"name":"CrossChainSwapInitiated","type":"event"},{"anonymous":false,"inputs":[{"indexed":true,"internalType":"address","name":"previousOwner","type":"address"},{"indexed":true,"internalType":"address","name":"newOwner","type":"address"}],"name":"OwnershipTransferred","type":"event"},{"anonymous":false,"inputs":[{"indexed":true,"internalType":"uint32","name":"srcEid","type":"uint32"},{"indexed":true,"internalType":"address","name":"pool","type":"address"}],"name":"ParametersSynced","type":"event"},{"anonymous":false,"inputs":[{"indexed":true,"internalType":"uint32","name":"eid","type":"uint32"}],"name":"TrustedChainAdded","type":"event"},{"inputs":[],"name":"MSG_CROSS_CHAIN_SWAP","outputs":[{"internalType":"uint16","name":"","type":"uint16"}],"stateMutability":"view","type":"function"},{"inputs":[],"name":"MSG_LIQUIDITY_SYNC","outputs":[{"internalType":"uint16","name":"","type":"uint16"}],"stateMutability":"view","type":"function"},{"inputs":[],"name":"MSG_PARAMETER_UPDATE","outputs":[{"internalType":"uint16","name":"","type":"uint16"}],"stateMutability":"view","type":"function"},{"inputs":[{"internalType":"uint32","name":"_eid","type":"uint32"}],"name":"addTrustedChain","outputs":[],"stateMutability":"nonpayable","type":"function"},{"inputs":[],"name":"aimm","outputs":[{"internalType":"contract IAIMM","name":"","type":"address"}],"stateMutability":"view","type":"function"},{"inputs":[{"internalType":"uint32","name":"_dstEid","type":"uint32"},{"internalType":"address","name":"_tokenIn","type":"address"},{"internalType":"address","name":"_tokenOut","type":"address"},{"internalType":"uint256","name":"_amountIn","type":"uint256"},{"internalType":"uint256","name":"_minAmountOut","type":"uint256"},{"internalType":"address","name":"_recipient","type":"address"}],"name":"crossChainSwap","outputs":[],"stateMutability":"payable","type":"function"},{"inputs":[],"name":"layerZeroEndpoint","outputs":[{"internalType":"address","name":"","type":"address"}],"stateMutability":"view","type":"function"},{"inputs":[{"internalType":"uint32","name":"_srcEid","type":"uint32"},{"internalType":"bytes32","name":"_guid","type":"bytes32"},{"internalType":"bytes","name":"_message","type":"bytes"}],"name":"lzReceive","outputs":[],"stateMutability":"nonpayable","type":"function"},{"inputs":[],"name":"owner","outputs":[{"internalType":"address","name":"","type":"address"}],"stateMutability":"view","type":"function"},{"inputs":[{"internalType":"uint32","name":"","type":"uint32"}],"name":"remotePeers","outputs":[{"internalType":"address","name":"","type":"address"}],"stateMutability":"view","type":"function"},{"inputs":[],"name":"renounceOwnership","outputs":[],"stateMutability":"nonpayable","type":"function"},{"inputs":[{"internalType":"address","name":"_endpoint","type":"address"}],"name":"setLayerZeroEndpoint","outputs":[],"stateMutability":"nonpayable","type":"function"},{"inputs":[{"internalType":"uint32","name":"_eid","type":"uint32"},{"internalType":"address","name":"_peer","type":"address"}],"name":"setPeer","outputs":[],"stateMutability":"nonpayable","type":"function"},{"inputs":[{"internalType":"uint32","name":"_dstEid","type":"uint32"},{"internalType":"address","name":"_pool","type":"address"},{"components":[{"internalType":"uint256","name":"feeRate","type":"uint256"},{"internalType":"uint256","name":"spreadMultiplier","type":"uint256"},{"internalType":"uint256[]","name":"weights","type":"uint256[]"},{"internalType":"uint256","name":"lastUpdate","type":"uint256"},{"internalType":"bool","name":"isActive","type":"bool"}],"internalType":"struct IAIMM.PoolParameters","name":"_params","type":"tuple"},{"internalType":"bytes","name":"_aiSignature","type":"bytes"}],"name":"syncParameters","outputs":[],"stateMutability":"payable","type":"function"},{"inputs":[{"internalType":"address","name":"newOwner","type":"address"}],"name":"transferOwnership","outputs":[],"stateMutability":"nonpayable","type":"function"},{"inputs":[{"internalType":"uint32","name":"","type":"uint32"}],"name":"trustedChains","outputs":[{"internalType":"bool","name":"","type":"bool"}],"stateMutability":"view","type":"function"}],"evm":{"bytecode":{"linkReferences":{},"object":"60a060405234801562000010575f80fd5b506040516200181e3803806200181e833981016040819052620000339162000102565b816001600160a01b0381166200006257604051631e4fbdf760e01b81525f600482015260240160405180910390fd5b6200006d8162000097565b50600180546001600160a01b0319166001600160a01b039485161790559091166080525062000149565b5f80546001600160a01b038381166001600160a01b0319831681178455604051919092169283917f8be0079c531659141344cd1fd0a4f28419497f9722a3daafe3b4186f6b6457e09190a35050565b80516001600160a01b0381168114620000fd575f80fd5b919050565b5f805f6060848603121562000115575f80fd5b6200012084620000e6565b92506200013060208501620000e6565b91506200014060408501620000e6565b90509250925092565b6080516116a7620001775f395f818161023001528181610750015281816109790152610ab401526116a75ff3fe6080604052600436106100ee575f3560e01c80638ee7de8011610087578063b237721f11610057578063b237721f14610271578063b8c2b1fd146102af578063e549779b146102c2578063f2fde38b146102f6575f80fd5b80638ee7de80146101ec57806395b9783c146102005780639e9236ec1461021f578063ae455ade14610252575f80fd5b806363f42e2b116100c257806363f42e2b14610195578063715018a6146101a85780638da5cb5b146101bc5780638e2ff23c146101d8575f80fd5b8062e7d629146100f257806307968db11461011e578063177ffe9a1461015557806327325ed514610176575b5f80fd5b3480156100fd575f80fd5b50610106600181565b60405161ffff90911681526020015b60405180910390f35b348015610129575f80fd5b5060015461013d906001600160a01b031681565b6040516001600160a01b039091168152602001610115565b348015610160575f80fd5b5061017461016f366004610c24565b610315565b005b348015610181575f80fd5b50610174610190366004610c59565b610352565b6101746101a3366004610c79565b6103a2565b3480156101b3575f80fd5b5061017461056e565b3480156101c7575f80fd5b505f546001600160a01b031661013d565b3480156101e3575f80fd5b50610106600381565b3480156101f7575f80fd5b50610106600281565b34801561020b575f80fd5b5061017461021a366004610ce3565b610581565b34801561022a575f80fd5b5061013d7f000000000000000000000000000000000000000000000000000000000000000081565b34801561025d575f80fd5b5061017461026c366004610d42565b6105ab565b34801561027c575f80fd5b5061029f61028b366004610c59565b60026020525f908152604090205460ff1681565b6040519015158152602001610115565b6101746102bd366004610d97565b610739565b3480156102cd575f80fd5b5061013d6102dc366004610c59565b60036020525f90815260409020546001600160a01b031681565b348015610301575f80fd5b50610174610310366004610ce3565b610886565b61031d6108c3565b63ffffffff919091165f90815260036020526040902080546001600160a01b0319166001600160a01b03909216919091179055565b61035a6108c3565b63ffffffff81165f81815260026020526040808220805460ff19166001179055517f8839e62ce1f10dc01781d57e858d641221f7d582eeeec557f3ab24d763b446ac9190a250565b5f83116103eb5760405162461bcd60e51b81526020600482015260126024820152710416d6f756e74206d757374206265203e20360741b60448201526064015b60405180910390fd5b6001600160a01b0381166104355760405162461bcd60e51b8152602060048201526011602482015270125b9d985b1a59081c9958da5c1a595b9d607a1b60448201526064016103e2565b6040516323b872dd60e01b8152336004820152306024820152604481018490526001600160a01b038616906323b872dd906064016020604051808303815f875af1158015610485573d5f803e3d5ffd5b505050506040513d601f19601f820116820180604052508101906104a99190610e3d565b505f6040518060c00160405280876001600160a01b03168152602001866001600160a01b03168152602001858152602001848152602001836001600160a01b03168152602001426107086104fd9190610e58565b81525090505f600382604051602001610517929190610ec4565b60408051601f19818403018152908290528682529150339063ffffffff8a16907fae70cca265578844d3ab217fc35177e817385769f9e0074b1fb8963b8638f7659060200160405180910390a35050505050505050565b6105766108c3565b61057f5f6108ef565b565b6105896108c3565b600180546001600160a01b0319166001600160a01b0392909216919091179055565b6001546001600160a01b031633146106055760405162461bcd60e51b815260206004820152601760248201527f4f6e6c79204c617965725a65726f20656e64706f696e7400000000000000000060448201526064016103e2565b63ffffffff84165f90815260026020526040902054849060ff166106645760405162461bcd60e51b81526020600482015260166024820152752ab73a393ab9ba32b21039b7bab931b29031b430b4b760511b60448201526064016103e2565b5f6106726020828587610edc565b81019061067f9190610f03565b90505f1961ffff8216016106db576106d661069d8460208188610edc565b8080601f0160208091040260200160405190810160405280939291908181526020018383808284375f9201919091525061093e92505050565b610731565b60021961ffff821601610731576107316106f88460208188610edc565b8080601f0160208091040260200160405190810160405280939291908181526020018383808284375f92019190915250610a4e92505050565b505050505050565b60405163938ffd8560e01b81526001600160a01b037f0000000000000000000000000000000000000000000000000000000000000000169063938ffd859061078b908790879087908790600401610f87565b5f604051808303815f87803b1580156107a2575f80fd5b505af11580156107b4573d5f803e3d5ffd5b505050505f6040518060600160405280866001600160a01b03168152602001856107dd906110e6565b815260200184848080601f0160208091040260200160405190810160405280939291908181526020018383808284375f920182905250939094525050604051929350916108329150600190849060200161127e565b60408051601f198184030181529082905291506001600160a01b0387169063ffffffff8916907f23e1b91f081b446633b2e0543454cfde4d9194cc97182e5ef66c3aa3ddfa9719905f90a350505050505050565b61088e6108c3565b6001600160a01b0381166108b757604051631e4fbdf760e01b81525f60048201526024016103e2565b6108c0816108ef565b50565b5f546001600160a01b0316331461057f5760405163118cdaa760e01b81523360048201526024016103e2565b5f80546001600160a01b038381166001600160a01b0319831681178455604051919092169283917f8be0079c531659141344cd1fd0a4f28419497f9722a3daafe3b4186f6b6457e09190a35050565b5f818060200190518101906109539190611347565b80516020820151604080840151905163938ffd8560e01b81529394506001600160a01b037f0000000000000000000000000000000000000000000000000000000000000000169363938ffd85936109b0939092909160040161149f565b5f604051808303815f87803b1580156109c7575f80fd5b505af19250505080156109d8575060015b610a12576109e46114d4565b806308c379a003610a0857506109f86114ed565b80610a035750610a0a565b505050565b505b3d5f803e3d5ffd5b80516040516001600160a01b03909116905f907f23e1b91f081b446633b2e0543454cfde4d9194cc97182e5ef66c3aa3ddfa9719908290a35050565b5f81806020019051810190610a639190611575565b90508060a00151421115610ab25760405162461bcd60e51b815260206004820152601660248201527514ddd85c08191958591b1a5b9948195e18d95959195960521b60448201526064016103e2565b7f00000000000000000000000000000000000000000000000000000000000000006001600160a01b03166356e87df96040518060c00160405280845f01516001600160a01b0316815260200184602001516001600160a01b03168152602001846040015181526020018460600151815260200184608001516001600160a01b031681526020018460a001518152506040518263ffffffff1660e01b8152600401610b5c9190611606565b6020604051808303815f875af1925050508015610b96575060408051601f3d908101601f19168201909252610b9391810190611614565b60015b610a0357610ba26114d4565b806308c379a003610a085750610bb66114ed565b80610bc15750610a0a565b80604051602001610bd2919061162b565b60408051601f198184030181529082905262461bcd60e51b82526103e29160040161165f565b803563ffffffff81168114610c0b575f80fd5b919050565b6001600160a01b03811681146108c0575f80fd5b5f8060408385031215610c35575f80fd5b610c3e83610bf8565b91506020830135610c4e81610c10565b809150509250929050565b5f60208284031215610c69575f80fd5b610c7282610bf8565b9392505050565b5f805f805f8060c08789031215610c8e575f80fd5b610c9787610bf8565b95506020870135610ca781610c10565b94506040870135610cb781610c10565b9350606087013592506080870135915060a0870135610cd581610c10565b809150509295509295509295565b5f60208284031215610cf3575f80fd5b8135610c7281610c10565b5f8083601f840112610d0e575f80fd5b5081356001600160401b03811115610d24575f80fd5b602083019150836020828501011115610d3b575f80fd5b9250929050565b5f805f8060608587031215610d55575f80fd5b610d5e85610bf8565b93506020850135925060408501356001600160401b03811115610d7f575f80fd5b610d8b87828801610cfe565b95989497509550505050565b5f805f805f60808688031215610dab575f80fd5b610db486610bf8565b94506020860135610dc481610c10565b935060408601356001600160401b0380821115610ddf575f80fd5b9087019060a0828a031215610df2575f80fd5b90935060608701359080821115610e07575f80fd5b50610e1488828901610cfe565b969995985093965092949392505050565b80151581146108c0575f80fd5b8051610c0b81610e25565b5f60208284031215610e4d575f80fd5b8151610c7281610e25565b80820180821115610e7757634e487b7160e01b5f52601160045260245ffd5b92915050565b80516001600160a01b03908116835260208083015182169084015260408083015190840152606080830151908401526080808301519091169083015260a090810151910152565b61ffff8316815260e08101610c726020830184610e7d565b5f8085851115610eea575f80fd5b83861115610ef6575f80fd5b5050820193919092039150565b5f60208284031215610f13575f80fd5b813561ffff81168114610c72575f80fd5b8183525f6001600160fb1b03831115610f3b575f80fd5b8260051b80836020870137939093016020019392505050565b8035610c0b81610e25565b81835281816020850137505f828201602090810191909152601f909101601f19169091010190565b60018060a01b03851681526060602082015283356060820152602084013560808201525f6040850135601e19863603018112610fc1575f80fd5b85016020810190356001600160401b03811115610fdc575f80fd5b8060051b3603821315610fed575f80fd5b60a08085015261100261010085018284610f24565b915050606086013560c084015261101b60808701610f54565b151560e08401528281036040840152611035818587610f5f565b979650505050505050565b634e487b7160e01b5f52604160045260245ffd5b60a081018181106001600160401b038211171561107357611073611040565b60405250565b606081018181106001600160401b038211171561107357611073611040565b601f8201601f191681016001600160401b03811182821017156110bd576110bd611040565b6040525050565b5f6001600160401b038211156110dc576110dc611040565b5060051b60200190565b5f60a082360312156110f6575f80fd5b60405161110281611054565b823581526020808401358183015260408401356001600160401b03811115611128575f80fd5b840136601f820112611138575f80fd5b8035611143816110c4565b6040516111508282611098565b82815260059290921b830184019184810191503683111561116f575f80fd5b928401925b8284101561118d57833582529284019290840190611174565b604086015250505050606083810135908201526111ac60808401610f54565b608082015292915050565b5f60a08301825184526020808401516020860152604084015160a0604087015282815180855260c0880191506020830194505f92505b8083101561120d57845182529383019360019290920191908301906111ed565b50606086015160608801526080860151151560808801528094505050505092915050565b5f5b8381101561124b578181015183820152602001611233565b50505f910152565b5f815180845261126a816020860160208601611231565b601f01601f19169290920160200192915050565b61ffff831681526040602082015260018060a01b0382511660408201525f60208301516060808401526112b460a08401826111b7565b90506040840151603f198483030160808501526112d18282611253565b9695505050505050565b5f82601f8301126112ea575f80fd5b81516001600160401b0381111561130357611303611040565b60405161131a601f8301601f191660200182611098565b81815284602083860101111561132e575f80fd5b61133f826020830160208701611231565b949350505050565b5f6020808385031215611358575f80fd5b82516001600160401b038082111561136e575f80fd5b9084019060608287031215611381575f80fd5b6040805161138e81611079565b835161139981610c10565b815283850151838111156113ab575f80fd5b840160a0818a0312156113bc575f80fd5b82516113c781611054565b81518152868201518782015283820151858111156113e3575f80fd5b8201601f81018b136113f3575f80fd5b80516113fe816110c4565b865161140a8282611098565b82815260059290921b83018a01918a810191508d831115611429575f80fd5b928a01925b828410156114475783518252928a0192908a019061142e565b848801525050506060828101519082015261146460808301610e32565b60808201528087840152505081840151945082851115611482575f80fd5b61148e888686016112db565b918101919091529695505050505050565b6001600160a01b03841681526060602082018190525f906114c2908301856111b7565b82810360408401526112d18185611253565b5f60033d11156114ea5760045f803e505f5160e01c5b90565b5f60443d10156114fa5790565b6040516003193d81016004833e81513d6001600160401b03816024840111818411171561152957505050505090565b82850191508151818111156115415750505050505090565b843d870101602082850101111561155b5750505050505090565b61156a60208286010187611098565b509095945050505050565b5f60c08284031215611585575f80fd5b60405160c081018181106001600160401b03821117156115a7576115a7611040565b60405282516115b581610c10565b815260208301516115c581610c10565b80602083015250604083015160408201526060830151606082015260808301516115ee81610c10565b608082015260a0928301519281019290925250919050565b60c08101610e778284610e7d565b5f60208284031215611624575f80fd5b5051919050565b6c029bbb0b8103330b4b632b21d1609d1b81525f825161165281600d850160208701611231565b91909101600d0192915050565b602081525f610c72602083018461125356fea2646970667358221220bec48a73a8f35e9d469c4ba6a030a1edcb7a0c80c378d330ecb64ca4626025a264736f6c63430008160033","opcodes":"PUSH1 0xA0 PUSH1 0x40 MSTORE CALLVALUE DUP1 ISZERO PUSH3 0x10 JUMPI PUSH0 DUP1 REVERT JUMPDEST POP PUSH1 0x40 MLOAD PUSH3 0x181E CODESIZE SUB DUP1 PUSH3 0x181E DUP4 CODECOPY DUP2 ADD PUSH1 0x40 DUP2 SWAP1 MSTORE PUSH3 0x33 SWAP2 PUSH3 0x102 JUMP JUMPDEST DUP2 PUSH1 0x1 PUSH1 0x1 PUSH1 0xA0 SHL SUB DUP2 AND PUSH3 0x62 JUMPI PUSH1 0x40 MLOAD PUSH4 0x1E4FBDF7 PUSH1 0xE0 SHL DUP2 MSTORE PUSH0 PUSH1 0x4 DUP3 ADD MSTORE PUSH1 0x24 ADD PUSH1 0x40 MLOAD DUP1 SWAP2 SUB SWAP1 REVERT JUMPDEST PUSH3 0x6D DUP2 PUSH3 0x97 JUMP JUMPDEST POP PUSH1 0x1 DUP1 SLOAD PUSH1 0x1 PUSH1 0x1 PUSH1 0xA0 SHL SUB NOT AND PUSH1 0x1 PUSH1 0x1 PUSH1 0xA0 SHL SUB SWAP5 DUP6 AND OR SWAP1 SSTORE SWAP1 SWAP2 AND PUSH1 0x80 MSTORE POP PUSH3 0x149 JUMP JUMPDEST PUSH0 DUP1 SLOAD PUSH1 0x1 PUSH1 0x1 PUSH1 0xA0 SHL SUB DUP4 DUP2 AND PUSH1 0x1 PUSH1 0x1 PUSH1 0xA0 SHL SUB NOT DUP4 AND DUP2 OR DUP5 SSTORE PUSH1 0x40 MLOAD SWAP2 SWAP1 SWAP3 AND SWAP3 DUP4 SWAP2 PUSH32 0x8BE0079C531659141344CD1FD0A4F28419497F9722A3DAAFE3B4186F6B6457E0 SWAP2 SWAP1 LOG3 POP POP JUMP JUMPDEST DUP1 MLOAD PUSH1 0x1 PUSH1 0x1 PUSH1 0xA0 SHL SUB DUP2 AND DUP2 EQ PUSH3 0xFD JUMPI PUSH0 DUP1 REVERT JUMPDEST SWAP2 SWAP1 POP JUMP JUMPDEST PUSH0 DUP1 PUSH0 PUSH1 0x60 DUP5 DUP7 SUB SLT ISZERO PUSH3 0x115 JUMPI PUSH0 DUP1 REVERT JUMPDEST PUSH3 0x120 DUP5 PUSH3 0xE6 JUMP JUMPDEST SWAP3 POP PUSH3 0x130 PUSH1 0x20 DUP6 ADD PUSH3 0xE6 JUMP JUMPDEST SWAP2 POP PUSH3 0x140 PUSH1 0x40 DUP6 ADD PUSH3 0xE6 JUMP JUMPDEST SWAP1 POP SWAP3 POP SWAP3 POP SWAP3 JUMP JUMPDEST PUSH1 0x80 MLOAD PUSH2 0x16A7 PUSH3 0x177 PUSH0 CODECOPY PUSH0 DUP2 DUP2 PUSH2 0x230 ADD MSTORE DUP2 DUP2 PUSH2 0x750 ADD MSTORE DUP2 DUP2 PUSH2 0x979 ADD MSTORE PUSH2 0xAB4 ADD MSTORE PUSH2 0x16A7 PUSH0 RETURN INVALID PUSH1 0x80 PUSH1 0x40 MSTORE PUSH1 0x4 CALLDATASIZE LT PUSH2 0xEE JUMPI PUSH0 CALLDATALOAD PUSH1 0xE0 SHR DUP1 PUSH4 0x8EE7DE80 GT PUSH2 0x87 JUMPI DUP1 PUSH4 0xB237721F GT PUSH2 0x57 JUMPI DUP1 PUSH4 0xB237721F EQ PUSH2 0x271 JUMPI DUP1 PUSH4 0xB8C2B1FD EQ PUSH2 0x2AF JUMPI DUP1 PUSH4 0xE549779B EQ PUSH2 0x2C2 JUMPI DUP1 PUSH4 0xF2FDE38B EQ PUSH2 0x2F6 JUMPI PUSH0 DUP1 REVERT JUMPDEST DUP1 PUSH4 0x8EE7DE80 EQ PUSH2 0x1EC JUMPI DUP1 PUSH4 0x95B9783C EQ PUSH2 0x200 JUMPI DUP1 PUSH4 0x9E9236EC EQ PUSH2 0x21F JUMPI DUP1 PUSH4 0xAE455ADE EQ PUSH2 0x252 JUMPI PUSH0 DUP1 REVERT JUMPDEST DUP1 PUSH4 0x63F42E2B GT PUSH2 0xC2 JUMPI DUP1 PUSH4 0x63F42E2B EQ PUSH2 0x195 JUMPI DUP1 PUSH4 0x715018A6 EQ PUSH2 0x1A8 JUMPI DUP1 PUSH4 0x8DA5CB5B EQ PUSH2 0x1BC JUMPI DUP1 PUSH4 0x8E2FF23C EQ PUSH2 0x1D8 JUMPI PUSH0 DUP1 REVERT JUMPDEST DUP1 PUSH3 0xE7D629 EQ PUSH2 0xF2 JUMPI DUP1 PUSH4 0x7968DB1 EQ PUSH2 0x11E JUMPI DUP1 PUSH4 0x177FFE9A EQ PUSH2 0x155 JUMPI DUP1 PUSH4 0x27325ED5 EQ PUSH2 0x176 JUMPI JUMPDEST PUSH0 DUP1 REVERT JUMPDEST CALLVALUE DUP1 ISZERO PUSH2 0xFD JUMPI PUSH0 DUP1 REVERT JUMPDEST POP PUSH2 0x106 PUSH1 0x1 DUP2 JUMP JUMPDEST PUSH1 0x40 MLOAD PUSH2 0xFFFF SWAP1 SWAP2 AND DUP2 MSTORE PUSH1 0x20 ADD JUMPDEST PUSH1 0x40 MLOAD DUP1 SWAP2 SUB SWAP1 RETURN JUMPDEST CALLVALUE DUP1 ISZERO PUSH2 0x129 JUMPI PUSH0 DUP1 REVERT JUMPDEST POP PUSH1 0x1 SLOAD PUSH2 0x13D SWAP1 PUSH1 0x1 PUSH1 0x1 PUSH1 0xA0 SHL SUB AND DUP2 JUMP JUMPDEST PUSH1 0x40 MLOAD PUSH1 0x1 PUSH1 0x1 PUSH1 0xA0 SHL SUB SWAP1 SWAP2 AND DUP2 MSTORE PUSH1 0x20 ADD PUSH2 0x115 JUMP JUMPDEST CALLVALUE DUP1 ISZERO PUSH2 0x160 JUMPI PUSH0 DUP1 REVERT JUMPDEST POP PUSH2 0x174 PUSH2 0x16F CALLDATASIZE PUSH1 0x4 PUSH2 0xC24 JUMP JUMPDEST PUSH2 0x315 JUMP JUMPDEST STOP JUMPDEST CALLVALUE DUP1 ISZERO PUSH2 0x181 JUMPI PUSH0 DUP1 REVERT JUMPDEST POP PUSH2 0x174 PUSH2 0x190 CALLDATASIZE PUSH1 0x4 PUSH2 0xC59 JUMP JUMPDEST PUSH2 0x352 JUMP JUMPDEST PUSH2 0x174 PUSH2 0x1A3 CALLDATASIZE PUSH1 0x4 PUSH2 0xC79 JUMP JUMPDEST PUSH2 0x3A2 JUMP JUMPDEST CALLVALUE DUP1 ISZERO PUSH2 0x1B3 JUMPI PUSH0 DUP1 REVERT JUMPDEST POP PUSH2 0x174 PUSH2 0x56E JUMP JUMPDEST CALLVALUE DUP1 ISZERO PUSH2 0x1C7 JUMPI PUSH0 DUP1 REVERT JUMPDEST POP PUSH0 SLOAD PUSH1 0x1 PUSH1 0x1 PUSH1 0xA0 SHL SUB AND PUSH2 0x13D JUMP JUMPDEST CALLVALUE DUP1 ISZERO PUSH2 0x1E3 JUMPI PUSH0 DUP1 REVERT JUMPDEST POP PUSH2 0x106 PUSH1 0x3 DUP2 JUMP JUMPDEST CALLVALUE DUP1 ISZERO PUSH2 0x1F7 JUMPI PUSH0 DUP1 REVERT JUMPDEST POP PUSH2 0x106 PUSH1 0x2 DUP2 JUMP JUMPDEST CALLVALUE DUP1 ISZERO PUSH2 0x20B JUMPI PUSH0 DUP1 REVERT JUMPDEST POP PUSH2 0x174 PUSH2 0x21A CALLDATASIZE PUSH1 0x4 PUSH2 0xCE3 JUMP JUMPDEST PUSH2 0x581 JUMP JUMPDEST CALLVALUE DUP1 ISZERO PUSH2 0x22A JUMPI PUSH0 DUP1 REVERT JUMPDEST POP PUSH2 0x13D PUSH32 0x0 DUP2 JUMP JUMPDEST CALLVALUE DUP1 ISZERO PUSH2 0x25D JUMPI PUSH0 DUP1 REVERT JUMPDEST POP PUSH2 0x174 PUSH2 0x26C CALLDATASIZE PUSH1 0x4 PUSH2 0xD42 JUMP JUMPDEST PUSH2 0x5AB JUMP JUMPDEST CALLVALUE DUP1 ISZERO PUSH2 0x27C JUMPI PUSH0 DUP1 REVERT JUMPDEST POP PUSH2 0x29F PUSH2 0x28B CALLDATASIZE PUSH1 0x4 PUSH2 0xC59 JUMP JUMPDEST PUSH1 0x2 PUSH1 0x20 MSTORE PUSH0 SWAP1 DUP2 MSTORE PUSH1 0x40 SWAP1 KECCAK256 SLOAD PUSH1 0xFF AND DUP2 JUMP JUMPDEST PUSH1 0x40 MLOAD SWAP1 ISZERO ISZERO DUP2 MSTORE PUSH1 0x20 ADD PUSH2 0x115 JUMP JUMPDEST PUSH2 0x174 PUSH2 0x2BD CALLDATASIZE PUSH1 0x4 PUSH2 0xD97 JUMP JUMPDEST PUSH2 0x739 JUMP JUMPDEST CALLVALUE DUP1 ISZERO PUSH2 0x2CD JUMPI PUSH0 DUP1 REVERT JUMPDEST POP PUSH2 0x13D PUSH2 0x2DC CALLDATASIZE PUSH1 0x4 PUSH2 0xC59 JUMP JUMPDEST PUSH1 0x3 PUSH1 0x20 MSTORE PUSH0 SWAP1 DUP2 MSTORE PUSH1 0x40 SWAP1 KECCAK256 SLOAD PUSH1 0x1 PUSH1 0x1 PUSH1 0xA0 SHL SUB AND DUP2 JUMP JUMPDEST CALLVALUE DUP1 ISZERO PUSH2 0x301 JUMPI PUSH0 DUP1 REVERT JUMPDEST POP PUSH2 0x174 PUSH2 0x310 CALLDATASIZE PUSH1 0x4 PUSH2 0xCE3 JUMP JUMPDEST PUSH2 0x886 JUMP JUMPDEST PUSH2 0x31D PUSH2 0x8C3 JUMP JUMPDEST PUSH4 0xFFFFFFFF SWAP2 SWAP1 SWAP2 AND PUSH0 SWAP1 DUP2 MSTORE PUSH1 0x3 PUSH1 0x20 MSTORE PUSH1 0x40 SWAP1 KECCAK256 DUP1 SLOAD PUSH1 0x1 PUSH1 0x1 PUSH1 0xA0 SHL SUB NOT AND PUSH1 0x1 PUSH1 0x1 PUSH1 0xA0 SHL SUB SWAP1 SWAP3 AND SWAP2 SWAP1 SWAP2 OR SWAP1 SSTORE JUMP JUMPDEST PUSH2 0x35A PUSH2 0x8C3 JUMP JUMPDEST PUSH4 0xFFFFFFFF DUP2 AND PUSH0 DUP2 DUP2 MSTORE PUSH1 0x2 PUSH1 0x20 MSTORE PUSH1 0x40 DUP1 DUP3 KECCAK256 DUP1 SLOAD PUSH1 0xFF NOT AND PUSH1 0x1 OR SWAP1 SSTORE MLOAD PUSH32 0x8839E62CE1F10DC01781D57E858D641221F7D582EEEEC557F3AB24D763B446AC SWAP2 SWAP1 LOG2 POP JUMP JUMPDEST PUSH0 DUP4 GT PUSH2 0x3EB JUMPI PUSH1 0x40 MLOAD PUSH3 0x461BCD PUSH1 0xE5 SHL DUP2 MSTORE PUSH1 0x20 PUSH1 0x4 DUP3 ADD MSTORE PUSH1 0x12 PUSH1 0x24 DUP3 ADD MSTORE PUSH18 0x416D6F756E74206D757374206265203E203 PUSH1 0x74 SHL PUSH1 0x44 DUP3 ADD MSTORE PUSH1 0x64 ADD JUMPDEST PUSH1 0x40 MLOAD DUP1 SWAP2 SUB SWAP1 REVERT JUMPDEST PUSH1 0x1 PUSH1 0x1 PUSH1 0xA0 SHL SUB DUP2 AND PUSH2 0x435 JUMPI PUSH1 0x40 MLOAD PUSH3 0x461BCD PUSH1 0xE5 SHL DUP2 MSTORE PUSH1 0x20 PUSH1 0x4 DUP3 ADD MSTORE PUSH1 0x11 PUSH1 0x24 DUP3 ADD MSTORE PUSH17 0x125B9D985B1A59081C9958DA5C1A595B9D PUSH1 0x7A SHL PUSH1 0x44 DUP3 ADD MSTORE PUSH1 0x64 ADD PUSH2 0x3E2 JUMP JUMPDEST PUSH1 0x40 MLOAD PUSH4 0x23B872DD PUSH1 0xE0 SHL DUP2 MSTORE CALLER PUSH1 0x4 DUP3 ADD MSTORE ADDRESS PUSH1 0x24 DUP3 ADD MSTORE PUSH1 0x44 DUP2 ADD DUP5 SWAP1 MSTORE PUSH1 0x1 PUSH1 0x1 PUSH1 0xA0 SHL SUB DUP7 AND SWAP1 PUSH4 0x23B872DD SWAP1 PUSH1 0x64 ADD PUSH1 0x20 PUSH1 0x40 MLOAD DUP1 DUP4 SUB DUP2 PUSH0 DUP8 GAS CALL ISZERO DUP1 ISZERO PUSH2 0x485 JUMPI RETURNDATASIZE PUSH0 DUP1 RETURNDATACOPY RETURNDATASIZE PUSH0 REVERT JUMPDEST POP POP POP POP PUSH1 0x40 MLOAD RETURNDATASIZE PUSH1 0x1F NOT PUSH1 0x1F DUP3 ADD AND DUP3 ADD DUP1 PUSH1 0x40 MSTORE POP DUP2 ADD SWAP1 PUSH2 0x4A9 SWAP2 SWAP1 PUSH2 0xE3D JUMP JUMPDEST POP PUSH0 PUSH1 0x40 MLOAD DUP1 PUSH1 0xC0 ADD PUSH1 0x40 MSTORE DUP1 DUP8 PUSH1 0x1 PUSH1 0x1 PUSH1 0xA0 SHL SUB AND DUP2 MSTORE PUSH1 0x20 ADD DUP7 PUSH1 0x1 PUSH1 0x1 PUSH1 0xA0 SHL SUB AND DUP2 MSTORE PUSH1 0x20 ADD DUP6 DUP2 MSTORE PUSH1 0x20 ADD DUP5 DUP2 MSTORE PUSH1 0x20 ADD DUP4 PUSH1 0x1 PUSH1 0x1 PUSH1 0xA0 SHL SUB AND DUP2 MSTORE PUSH1 0x20 ADD TIMESTAMP PUSH2 0x708 PUSH2 0x4FD SWAP2 SWAP1 PUSH2 0xE58 JUMP JUMPDEST DUP2 MSTORE POP SWAP1 POP PUSH0 PUSH1 0x3 DUP3 PUSH1 0x40 MLOAD PUSH1 0x20 ADD PUSH2 0x517 SWAP3 SWAP2 SWAP1 PUSH2 0xEC4 JUMP JUMPDEST PUSH1 0x40 DUP1 MLOAD PUSH1 0x1F NOT DUP2 DUP5 SUB ADD DUP2 MSTORE SWAP1 DUP3 SWAP1 MSTORE DUP7 DUP3 MSTORE SWAP2 POP CALLER SWAP1 PUSH4 0xFFFFFFFF DUP11 AND SWAP1 PUSH32 0xAE70CCA265578844D3AB217FC35177E817385769F9E0074B1FB8963B8638F765 SWAP1 PUSH1 0x20 ADD PUSH1 0x40 MLOAD DUP1 SWAP2 SUB SWAP1 LOG3 POP POP POP POP POP POP POP POP JUMP JUMPDEST PUSH2 0x576 PUSH2 0x8C3 JUMP JUMPDEST PUSH2 0x57F PUSH0 PUSH2 0x8EF JUMP JUMPDEST JUMP JUMPDEST PUSH2 0x589 PUSH2 0x8C3 JUMP JUMPDEST PUSH1 0x1 DUP1 SLOAD PUSH1 0x1 PUSH1 0x1 PUSH1 0xA0 SHL SUB NOT AND PUSH1 0x1 PUSH1 0x1 PUSH1 0xA0 SHL SUB SWAP3 SWAP1 SWAP3 AND SWAP2 SWAP1 SWAP2 OR SWAP1 SSTORE JUMP JUMPDEST PUSH1 0x1 SLOAD PUSH1 0x1 PUSH1 0x1 PUSH1 0xA0 SHL SUB AND CALLER EQ PUSH2 0x605 JUMPI PUSH1 0x40 MLOAD PUSH3 0x461BCD PUSH1 0xE5 SHL DUP2 MSTORE PUSH1 0x20 PUSH1 0x4 DUP3 ADD MSTORE PUSH1 0x17 PUSH1 0x24 DUP3 ADD MSTORE PUSH32 0x4F6E6C79204C617965725A65726F20656E64706F696E74000000000000000000 PUSH1 0x44 DUP3 ADD MSTORE PUSH1 0x64 ADD PUSH2 0x3E2 JUMP JUMPDEST PUSH4 0xFFFFFFFF DUP5 AND PUSH0 SWAP1 DUP2 MSTORE PUSH1 0x2 PUSH1 0x20 MSTORE PUSH1 0x40 SWAP1 KECCAK256 SLOAD DUP5 SWAP1 PUSH1 0xFF AND PUSH2 0x664 JUMPI PUSH1 0x40 MLOAD PUSH3 0x461BCD PUSH1 0xE5 SHL DUP2 MSTORE PUSH1 0x20 PUSH1 0x4 DUP3 ADD MSTORE PUSH1 0x16 PUSH1 0x24 DUP3 ADD MSTORE PUSH22 0x2AB73A393AB9BA32B21039B7BAB931B29031B430B4B7 PUSH1 0x51 SHL PUSH1 0x44 DUP3 ADD MSTORE PUSH1 0x64 ADD PUSH2 0x3E2 JUMP JUMPDEST PUSH0 PUSH2 0x672 PUSH1 0x20 DUP3 DUP6 DUP8 PUSH2 0xEDC JUMP JUMPDEST DUP2 ADD SWAP1 PUSH2 0x67F SWAP2 SWAP1 PUSH2 0xF03 JUMP JUMPDEST SWAP1 POP PUSH0 NOT PUSH2 0xFFFF DUP3 AND ADD PUSH2 0x6DB JUMPI PUSH2 0x6D6 PUSH2 0x69D DUP5 PUSH1 0x20 DUP2 DUP9 PUSH2 0xEDC JUMP JUMPDEST DUP1 DUP1 PUSH1 0x1F ADD PUSH1 0x20 DUP1 SWAP2 DIV MUL PUSH1 0x20 ADD PUSH1 0x40 MLOAD SWAP1 DUP2 ADD PUSH1 0x40 MSTORE DUP1 SWAP4 SWAP3 SWAP2 SWAP1 DUP2 DUP2 MSTORE PUSH1 0x20 ADD DUP4 DUP4 DUP1 DUP3 DUP5 CALLDATACOPY PUSH0 SWAP3 ADD SWAP2 SWAP1 SWAP2 MSTORE POP PUSH2 0x93E SWAP3 POP POP POP JUMP JUMPDEST PUSH2 0x731 JUMP JUMPDEST PUSH1 0x2 NOT PUSH2 0xFFFF DUP3 AND ADD PUSH2 0x731 JUMPI PUSH2 0x731 PUSH2 0x6F8 DUP5 PUSH1 0x20 DUP2 DUP9 PUSH2 0xEDC JUMP JUMPDEST DUP1 DUP1 PUSH1 0x1F ADD PUSH1 0x20 DUP1 SWAP2 DIV MUL PUSH1 0x20 ADD PUSH1 0x40 MLOAD SWAP1 DUP2 ADD PUSH1 0x40 MSTORE DUP1 SWAP4 SWAP3 SWAP2 SWAP1 DUP2 DUP2 MSTORE PUSH1 0x20 ADD DUP4 DUP4 DUP1 DUP3 DUP5 CALLDATACOPY PUSH0 SWAP3 ADD SWAP2 SWAP1 SWAP2 MSTORE POP PUSH2 0xA4E SWAP3 POP POP POP JUMP JUMPDEST POP POP POP POP POP POP JUMP JUMPDEST PUSH1 0x40 MLOAD PUSH4 0x938FFD85 PUSH1 0xE0 SHL DUP2 MSTORE PUSH1 0x1 PUSH1 0x1 PUSH1 0xA0 SHL SUB PUSH32 0x0 AND SWAP1 PUSH4 0x938FFD85 SWAP1 PUSH2 0x78B SWAP1 DUP8 SWAP1 DUP8 SWAP1 DUP8 SWAP1 DUP8 SWAP1 PUSH1 0x4 ADD PUSH2 0xF87 JUMP JUMPDEST PUSH0 PUSH1 0x40 MLOAD DUP1 DUP4 SUB DUP2 PUSH0 DUP8 DUP1 EXTCODESIZE ISZERO DUP1 ISZERO PUSH2 0x7A2 JUMPI PUSH0 DUP1 REVERT JUMPDEST POP GAS CALL ISZERO DUP1 ISZERO PUSH2 0x7B4 JUMPI RETURNDATASIZE PUSH0 DUP1 RETURNDATACOPY RETURNDATASIZE PUSH0 REVERT JUMPDEST POP POP POP POP PUSH0 PUSH1 0x40 MLOAD DUP1 PUSH1 0x60 ADD PUSH1 0x40 MSTORE DUP1 DUP7 PUSH1 0x1 PUSH1 0x1 PUSH1 0xA0 SHL SUB AND DUP2 MSTORE PUSH1 0x20 ADD DUP6 PUSH2 0x7DD SWAP1 PUSH2 0x10E6 JUMP JUMPDEST DUP2 MSTORE PUSH1 0x20 ADD DUP5 DUP5 DUP1 DUP1 PUSH1 0x1F ADD PUSH1 0x20 DUP1 SWAP2 DIV MUL PUSH1 0x20 ADD PUSH1 0x40 MLOAD SWAP1 DUP2 ADD PUSH1 0x40 MSTORE DUP1 SWAP4 SWAP3 SWAP2 SWAP1 DUP2 DUP2 MSTORE PUSH1 0x20 ADD DUP4 DUP4 DUP1 DUP3 DUP5 CALLDATACOPY PUSH0 SWAP3 ADD DUP3 SWAP1 MSTORE POP SWAP4 SWAP1 SWAP5 MSTORE POP POP PUSH1 0x40 MLOAD SWAP3 SWAP4 POP SWAP2 PUSH2 0x832 SWAP2 POP PUSH1 0x1 SWAP1 DUP5 SWAP1 PUSH1 0x20 ADD PUSH2 0x127E JUMP JUMPDEST PUSH1 0x40 DUP1 MLOAD PUSH1 0x1F NOT DUP2 DUP5 SUB ADD DUP2 MSTORE SWAP1 DUP3 SWAP1 MSTORE SWAP2 POP PUSH1 0x1 PUSH1 0x1 PUSH1 0xA0 SHL SUB DUP8 AND SWAP1 PUSH4 0xFFFFFFFF DUP10 AND SWAP1 PUSH32 0x23E1B91F081B446633B2E0543454CFDE4D9194CC97182E5EF66C3AA3DDFA9719 SWAP1 PUSH0 SWAP1 LOG3 POP POP POP POP POP POP POP JUMP JUMPDEST PUSH2 0x88E PUSH2 0x8C3 JUMP JUMPDEST PUSH1 0x1 PUSH1 0x1 PUSH1 0xA0 SHL SUB DUP2 AND PUSH2 0x8B7 JUMPI PUSH1 0x40 MLOAD PUSH4 0x1E4FBDF7 PUSH1 0xE0 SHL DUP2 MSTORE PUSH0 PUSH1 0x4 DUP3 ADD MSTORE PUSH1 0x24 ADD PUSH2 0x3E2 JUMP JUMPDEST PUSH2 0x8C0 DUP2 PUSH2 0x8EF JUMP JUMPDEST POP JUMP JUMPDEST PUSH0 SLOAD PUSH1 0x1 PUSH1 0x1 PUSH1 0xA0 SHL SUB AND CALLER EQ PUSH2 0x57F JUMPI PUSH1 0x40 MLOAD PUSH4 0x118CDAA7 PUSH1 0xE0 SHL DUP2 MSTORE CALLER PUSH1 0x4 DUP3 ADD MSTORE PUSH1 0x24 ADD PUSH2 0x3E2 JUMP JUMPDEST PUSH0 DUP1 SLOAD PUSH1 0x1 PUSH1 0x1 PUSH1 0xA0 SHL SUB DUP4 DUP2 AND PUSH1 0x1 PUSH1 0x1 PUSH1 0xA0 SHL SUB NOT DUP4 AND DUP2 OR DUP5 SSTORE PUSH1 0x40 MLOAD SWAP2 SWAP1 SWAP3 AND SWAP3 DUP4 SWAP2 PUSH32 0x8BE0079C531659141344CD1FD0A4F28419497F9722A3DAAFE3B4186F6B6457E0 SWAP2 SWAP1 LOG3 POP POP JUMP JUMPDEST PUSH0 DUP2 DUP1 PUSH1 0x20 ADD SWAP1 MLOAD DUP2 ADD SWAP1 PUSH2 0x953 SWAP2 SWAP1 PUSH2 0x1347 JUMP JUMPDEST DUP1 MLOAD PUSH1 0x20 DUP3 ADD MLOAD PUSH1 0x40 DUP1 DUP5 ADD MLOAD SWAP1 MLOAD PUSH4 0x938FFD85 PUSH1 0xE0 SHL DUP2 MSTORE SWAP4 SWAP5 POP PUSH1 0x1 PUSH1 0x1 PUSH1 0xA0 SHL SUB PUSH32 0x0 AND SWAP4 PUSH4 0x938FFD85 SWAP4 PUSH2 0x9B0 SWAP4 SWAP1 SWAP3 SWAP1 SWAP2 PUSH1 0x4 ADD PUSH2 0x149F JUMP JUMPDEST PUSH0 PUSH1 0x40 MLOAD DUP1 DUP4 SUB DUP2 PUSH0 DUP8 DUP1 EXTCODESIZE ISZERO DUP1 ISZERO PUSH2 0x9C7 JUMPI PUSH0 DUP1 REVERT JUMPDEST POP GAS CALL SWAP3 POP POP POP DUP1 ISZERO PUSH2 0x9D8 JUMPI POP PUSH1 0x1 JUMPDEST PUSH2 0xA12 JUMPI PUSH2 0x9E4 PUSH2 0x14D4 JUMP JUMPDEST DUP1 PUSH4 0x8C379A0 SUB PUSH2 0xA08 JUMPI POP PUSH2 0x9F8 PUSH2 0x14ED JUMP JUMPDEST DUP1 PUSH2 0xA03 JUMPI POP PUSH2 0xA0A JUMP JUMPDEST POP POP POP JUMP JUMPDEST POP JUMPDEST RETURNDATASIZE PUSH0 DUP1 RETURNDATACOPY RETURNDATASIZE PUSH0 REVERT JUMPDEST DUP1 MLOAD PUSH1 0x40 MLOAD PUSH1 0x1 PUSH1 0x1 PUSH1 0xA0 SHL SUB SWAP1 SWAP2 AND SWAP1 PUSH0 SWAP1 PUSH32 0x23E1B91F081B446633B2E0543454CFDE4D9194CC97182E5EF66C3AA3DDFA9719 SWAP1 DUP3 SWAP1 LOG3 POP POP JUMP JUMPDEST PUSH0 DUP2 DUP1 PUSH1 0x20 ADD SWAP1 MLOAD DUP2 ADD SWAP1 PUSH2 0xA63 SWAP2 SWAP1 PUSH2 0x1575 JUMP JUMPDEST SWAP1 POP DUP1 PUSH1 0xA0 ADD MLOAD TIMESTAMP GT ISZERO PUSH2 0xAB2 JUMPI PUSH1 0x40 MLOAD PUSH3 0x461BCD PUSH1 0xE5 SHL DUP2 MSTORE PUSH1 0x20 PUSH1 0x4 DUP3 ADD MSTORE PUSH1 0x16 PUSH1 0x24 DUP3 ADD MSTORE PUSH22 0x14DDD85C08191958591B1A5B9948195E18D959591959 PUSH1 0x52 SHL PUSH1 0x44 DUP3 ADD MSTORE PUSH1 0x64 ADD PUSH2 0x3E2 JUMP JUMPDEST PUSH32 0x0 PUSH1 0x1 PUSH1 0x1 PUSH1 0xA0 SHL SUB AND PUSH4 0x56E87DF9 PUSH1 0x40 MLOAD DUP1 PUSH1 0xC0 ADD PUSH1 0x40 MSTORE DUP1 DUP5 PUSH0 ADD MLOAD PUSH1 0x1 PUSH1 0x1 PUSH1 0xA0 SHL SUB AND DUP2 MSTORE PUSH1 0x20 ADD DUP5 PUSH1 0x20 ADD MLOAD PUSH1 0x1 PUSH1 0x1 PUSH1 0xA0 SHL SUB AND DUP2 MSTORE PUSH1 0x20 ADD DUP5 PUSH1 0x40 ADD MLOAD DUP2 MSTORE PUSH1 0x20 ADD DUP5 PUSH1 0x60 ADD MLOAD DUP2 MSTORE PUSH1 0x20 ADD DUP5 PUSH1 0x80 ADD MLOAD PUSH1 0x1 PUSH1 0x1 PUSH1 0xA0 SHL SUB AND DUP2 MSTORE PUSH1 0x20 ADD DUP5 PUSH1 0xA0 ADD MLOAD DUP2 MSTORE POP PUSH1 0x40 MLOAD DUP3 PUSH4 0xFFFFFFFF AND PUSH1 0xE0 SHL DUP2 MSTORE PUSH1 0x4 ADD PUSH2 0xB5C SWAP2 SWAP1 PUSH2 0x1606 JUMP JUMPDEST PUSH1 0x20 PUSH1 0x40 MLOAD DUP1 DUP4 SUB DUP2 PUSH0 DUP8 GAS CALL SWAP3 POP POP POP DUP1 ISZERO PUSH2 0xB96 JUMPI POP PUSH1 0x40 DUP1 MLOAD PUSH1 0x1F RETURNDATASIZE SWAP1 DUP2 ADD PUSH1 0x1F NOT AND DUP3 ADD SWAP1 SWAP3 MSTORE PUSH2 0xB93 SWAP2 DUP2 ADD SWAP1 PUSH2 0x1614 JUMP JUMPDEST PUSH1 0x1 JUMPDEST PUSH2 0xA03 JUMPI PUSH2 0xBA2 PUSH2 0x14D4 JUMP JUMPDEST DUP1 PUSH4 0x8C379A0 SUB PUSH2 0xA08 JUMPI POP PUSH2 0xBB6 PUSH2 0x14ED JUMP JUMPDEST DUP1 PUSH2 0xBC1 JUMPI POP PUSH2 0xA0A JUMP JUMPDEST DUP1 PUSH1 0x40 MLOAD PUSH1 0x20 ADD PUSH2 0xBD2 SWAP2 SWAP1 PUSH2 0x162B JUMP JUMPDEST PUSH1 0x40 DUP1 MLOAD PUSH1 0x1F NOT DUP2 DUP5 SUB ADD DUP2 MSTORE SWAP1 DUP3 SWAP1 MSTORE PUSH3 0x461BCD PUSH1 0xE5 SHL DUP3 MSTORE PUSH2 0x3E2 SWAP2 PUSH1 0x4 ADD PUSH2 0x165F JUMP JUMPDEST DUP1 CALLDATALOAD PUSH4 0xFFFFFFFF DUP2 AND DUP2 EQ PUSH2 0xC0B JUMPI PUSH0 DUP1 REVERT JUMPDEST SWAP2 SWAP1 POP JUMP JUMPDEST PUSH1 0x1 PUSH1 0x1 PUSH1 0xA0 SHL SUB DUP2 AND DUP2 EQ PUSH2 0x8C0 JUMPI PUSH0 DUP1 REVERT JUMPDEST PUSH0 DUP1 PUSH1 0x40 DUP4 DUP6 SUB SLT ISZERO PUSH2 0xC35 JUMPI PUSH0 DUP1 REVERT JUMPDEST PUSH2 0xC3E DUP4 PUSH2 0xBF8 JUMP JUMPDEST SWAP2 POP PUSH1 0x20 DUP4 ADD CALLDATALOAD PUSH2 0xC4E DUP2 PUSH2 0xC10 JUMP JUMPDEST DUP1 SWAP2 POP POP SWAP3 POP SWAP3 SWAP1 POP JUMP JUMPDEST PUSH0 PUSH1 0x20 DUP3 DUP5 SUB SLT ISZERO PUSH2 0xC69 JUMPI PUSH0 DUP1 REVERT JUMPDEST PUSH2 0xC72 DUP3 PUSH2 0xBF8 JUMP JUMPDEST SWAP4 SWAP3 POP POP POP JUMP JUMPDEST PUSH0 DUP1 PUSH0 DUP1 PUSH0 DUP1 PUSH1 0xC0 DUP8 DUP10 SUB SLT ISZERO PUSH2 0xC8E JUMPI PUSH0 DUP1 REVERT JUMPDEST PUSH2 0xC97 DUP8 PUSH2 0xBF8 JUMP JUMPDEST SWAP6 POP PUSH1 0x20 DUP8 ADD CALLDATALOAD PUSH2 0xCA7 DUP2 PUSH2 0xC10 JUMP JUMPDEST SWAP5 POP PUSH1 0x40 DUP8 ADD CALLDATALOAD PUSH2 0xCB7 DUP2 PUSH2 0xC10 JUMP JUMPDEST SWAP4 POP PUSH1 0x60 DUP8 ADD CALLDATALOAD SWAP3 POP PUSH1 0x80 DUP8 ADD CALLDATALOAD SWAP2 POP PUSH1 0xA0 DUP8 ADD CALLDATALOAD PUSH2 0xCD5 DUP2 PUSH2 0xC10 JUMP JUMPDEST DUP1 SWAP2 POP POP SWAP3 SWAP6 POP SWAP3 SWAP6 POP SWAP3 SWAP6 JUMP JUMPDEST PUSH0 PUSH1 0x20 DUP3 DUP5 SUB SLT ISZERO PUSH2 0xCF3 JUMPI PUSH0 DUP1 REVERT JUMPDEST DUP2 CALLDATALOAD PUSH2 0xC72 DUP2 PUSH2 0xC10 JUMP JUMPDEST PUSH0 DUP1 DUP4 PUSH1 0x1F DUP5 ADD SLT PUSH2 0xD0E JUMPI PUSH0 DUP1 REVERT JUMPDEST POP DUP2 CALLDATALOAD PUSH1 0x1 PUSH1 0x1 PUSH1 0x40 SHL SUB DUP2 GT ISZERO PUSH2 0xD24 JUMPI PUSH0 DUP1 REVERT JUMPDEST PUSH1 0x20 DUP4 ADD SWAP2 POP DUP4 PUSH1 0x20 DUP3 DUP6 ADD ADD GT ISZERO PUSH2 0xD3B JUMPI PUSH0 DUP1 REVERT JUMPDEST SWAP3 POP SWAP3 SWAP1 POP JUMP JUMPDEST PUSH0 DUP1 PUSH0 DUP1 PUSH1 0x60 DUP6 DUP8 SUB SLT ISZERO PUSH2 0xD55 JUMPI PUSH0 DUP1 REVERT JUMPDEST PUSH2 0xD5E DUP6 PUSH2 0xBF8 JUMP JUMPDEST SWAP4 POP PUSH1 0x20 DUP6 ADD CALLDATALOAD SWAP3 POP PUSH1 0x40 DUP6 ADD CALLDATALOAD PUSH1 0x1 PUSH1 0x1 PUSH1 0x40 SHL SUB DUP2 GT ISZERO PUSH2 0xD7F JUMPI PUSH0 DUP1 REVERT JUMPDEST PUSH2 0xD8B DUP8 DUP3 DUP9 ADD PUSH2 0xCFE JUMP JUMPDEST SWAP6 SWAP9 SWAP5 SWAP8 POP SWAP6 POP POP POP POP JUMP JUMPDEST PUSH0 DUP1 PUSH0 DUP1 PUSH0 PUSH1 0x80 DUP7 DUP9 SUB SLT ISZERO PUSH2 0xDAB JUMPI PUSH0 DUP1 REVERT JUMPDEST PUSH2 0xDB4 DUP7 PUSH2 0xBF8 JUMP JUMPDEST SWAP5 POP PUSH1 0x20 DUP7 ADD CALLDATALOAD PUSH2 0xDC4 DUP2 PUSH2 0xC10 JUMP JUMPDEST SWAP4 POP PUSH1 0x40 DUP7 ADD CALLDATALOAD PUSH1 0x1 PUSH1 0x1 PUSH1 0x40 SHL SUB DUP1 DUP3 GT ISZERO PUSH2 0xDDF JUMPI PUSH0 DUP1 REVERT JUMPDEST SWAP1 DUP8 ADD SWAP1 PUSH1 0xA0 DUP3 DUP11 SUB SLT ISZERO PUSH2 0xDF2 JUMPI PUSH0 DUP1 REVERT JUMPDEST SWAP1 SWAP4 POP PUSH1 0x60 DUP8 ADD CALLDATALOAD SWAP1 DUP1 DUP3 GT ISZERO PUSH2 0xE07 JUMPI PUSH0 DUP1 REVERT JUMPDEST POP PUSH2 0xE14 DUP9 DUP3 DUP10 ADD PUSH2 0xCFE JUMP JUMPDEST SWAP7 SWAP10 SWAP6 SWAP9 POP SWAP4 SWAP7 POP SWAP3 SWAP5 SWAP4 SWAP3 POP POP POP JUMP JUMPDEST DUP1 ISZERO ISZERO DUP2 EQ PUSH2 0x8C0 JUMPI PUSH0 DUP1 REVERT JUMPDEST DUP1 MLOAD PUSH2 0xC0B DUP2 PUSH2 0xE25 JUMP JUMPDEST PUSH0 PUSH1 0x20 DUP3 DUP5 SUB SLT ISZERO PUSH2 0xE4D JUMPI PUSH0 DUP1 REVERT JUMPDEST DUP2 MLOAD PUSH2 0xC72 DUP2 PUSH2 0xE25 JUMP JUMPDEST DUP1 DUP3 ADD DUP1 DUP3 GT ISZERO PUSH2 0xE77 JUMPI PUSH4 0x4E487B71 PUSH1 0xE0 SHL PUSH0 MSTORE PUSH1 0x11 PUSH1 0x4 MSTORE PUSH1 0x24 PUSH0 REVERT JUMPDEST SWAP3 SWAP2 POP POP JUMP JUMPDEST DUP1 MLOAD PUSH1 0x1 PUSH1 0x1 PUSH1 0xA0 SHL SUB SWAP1 DUP2 AND DUP4 MSTORE PUSH1 0x20 DUP1 DUP4 ADD MLOAD DUP3 AND SWAP1 DUP5 ADD MSTORE PUSH1 0x40 DUP1 DUP4 ADD MLOAD SWAP1 DUP5 ADD MSTORE PUSH1 0x60 DUP1 DUP4 ADD MLOAD SWAP1 DUP5 ADD MSTORE PUSH1 0x80 DUP1 DUP4 ADD MLOAD SWAP1 SWAP2 AND SWAP1 DUP4 ADD MSTORE PUSH1 0xA0 SWAP1 DUP2 ADD MLOAD SWAP2 ADD MSTORE JUMP JUMPDEST PUSH2 0xFFFF DUP4 AND DUP2 MSTORE PUSH1 0xE0 DUP2 ADD PUSH2 0xC72 PUSH1 0x20 DUP4 ADD DUP5 PUSH2 0xE7D JUMP JUMPDEST PUSH0 DUP1 DUP6 DUP6 GT ISZERO PUSH2 0xEEA JUMPI PUSH0 DUP1 REVERT JUMPDEST DUP4 DUP7 GT ISZERO PUSH2 0xEF6 JUMPI PUSH0 DUP1 REVERT JUMPDEST POP POP DUP3 ADD SWAP4 SWAP2 SWAP1 SWAP3 SUB SWAP2 POP JUMP JUMPDEST PUSH0 PUSH1 0x20 DUP3 DUP5 SUB SLT ISZERO PUSH2 0xF13 JUMPI PUSH0 DUP1 REVERT JUMPDEST DUP2 CALLDATALOAD PUSH2 0xFFFF DUP2 AND DUP2 EQ PUSH2 0xC72 JUMPI PUSH0 DUP1 REVERT JUMPDEST DUP2 DUP4 MSTORE PUSH0 PUSH1 0x1 PUSH1 0x1 PUSH1 0xFB SHL SUB DUP4 GT ISZERO PUSH2 0xF3B JUMPI PUSH0 DUP1 REVERT JUMPDEST DUP3 PUSH1 0x5 SHL DUP1 DUP4 PUSH1 0x20 DUP8 ADD CALLDATACOPY SWAP4 SWAP1 SWAP4 ADD PUSH1 0x20 ADD SWAP4 SWAP3 POP POP POP JUMP JUMPDEST DUP1 CALLDATALOAD PUSH2 0xC0B DUP2 PUSH2 0xE25 JUMP JUMPDEST DUP2 DUP4 MSTORE DUP2 DUP2 PUSH1 0x20 DUP6 ADD CALLDATACOPY POP PUSH0 DUP3 DUP3 ADD PUSH1 0x20 SWAP1 DUP2 ADD SWAP2 SWAP1 SWAP2 MSTORE PUSH1 0x1F SWAP1 SWAP2 ADD PUSH1 0x1F NOT AND SWAP1 SWAP2 ADD ADD SWAP1 JUMP JUMPDEST PUSH1 0x1 DUP1 PUSH1 0xA0 SHL SUB DUP6 AND DUP2 MSTORE PUSH1 0x60 PUSH1 0x20 DUP3 ADD MSTORE DUP4 CALLDATALOAD PUSH1 0x60 DUP3 ADD MSTORE PUSH1 0x20 DUP5 ADD CALLDATALOAD PUSH1 0x80 DUP3 ADD MSTORE PUSH0 PUSH1 0x40 DUP6 ADD CALLDATALOAD PUSH1 0x1E NOT DUP7 CALLDATASIZE SUB ADD DUP2 SLT PUSH2 0xFC1 JUMPI PUSH0 DUP1 REVERT JUMPDEST DUP6 ADD PUSH1 0x20 DUP2 ADD SWAP1 CALLDATALOAD PUSH1 0x1 PUSH1 0x1 PUSH1 0x40 SHL SUB DUP2 GT ISZERO PUSH2 0xFDC JUMPI PUSH0 DUP1 REVERT JUMPDEST DUP1 PUSH1 0x5 SHL CALLDATASIZE SUB DUP3 SGT ISZERO PUSH2 0xFED JUMPI PUSH0 DUP1 REVERT JUMPDEST PUSH1 0xA0 DUP1 DUP6 ADD MSTORE PUSH2 0x1002 PUSH2 0x100 DUP6 ADD DUP3 DUP5 PUSH2 0xF24 JUMP JUMPDEST SWAP2 POP POP PUSH1 0x60 DUP7 ADD CALLDATALOAD PUSH1 0xC0 DUP5 ADD MSTORE PUSH2 0x101B PUSH1 0x80 DUP8 ADD PUSH2 0xF54 JUMP JUMPDEST ISZERO ISZERO PUSH1 0xE0 DUP5 ADD MSTORE DUP3 DUP2 SUB PUSH1 0x40 DUP5 ADD MSTORE PUSH2 0x1035 DUP2 DUP6 DUP8 PUSH2 0xF5F JUMP JUMPDEST SWAP8 SWAP7 POP POP POP POP POP POP POP JUMP JUMPDEST PUSH4 0x4E487B71 PUSH1 0xE0 SHL PUSH0 MSTORE PUSH1 0x41 PUSH1 0x4 MSTORE PUSH1 0x24 PUSH0 REVERT JUMPDEST PUSH1 0xA0 DUP2 ADD DUP2 DUP2 LT PUSH1 0x1 PUSH1 0x1 PUSH1 0x40 SHL SUB DUP3 GT OR ISZERO PUSH2 0x1073 JUMPI PUSH2 0x1073 PUSH2 0x1040 JUMP JUMPDEST PUSH1 0x40 MSTORE POP JUMP JUMPDEST PUSH1 0x60 DUP2 ADD DUP2 DUP2 LT PUSH1 0x1 PUSH1 0x1 PUSH1 0x40 SHL SUB DUP3 GT OR ISZERO PUSH2 0x1073 JUMPI PUSH2 0x1073 PUSH2 0x1040 JUMP JUMPDEST PUSH1 0x1F DUP3 ADD PUSH1 0x1F NOT AND DUP2 ADD PUSH1 0x1 PUSH1 0x1 PUSH1 0x40 SHL SUB DUP2 GT DUP3 DUP3 LT OR ISZERO PUSH2 0x10BD JUMPI PUSH2 0x10BD PUSH2 0x1040 JUMP JUMPDEST PUSH1 0x40 MSTORE POP POP JUMP JUMPDEST PUSH0 PUSH1 0x1 PUSH1 0x1 PUSH1 0x40 SHL SUB DUP3 GT ISZERO PUSH2 0x10DC JUMPI PUSH2 0x10DC PUSH2 0x1040 JUMP JUMPDEST POP PUSH1 0x5 SHL PUSH1 0x20 ADD SWAP1 JUMP JUMPDEST PUSH0 PUSH1 0xA0 DUP3 CALLDATASIZE SUB SLT ISZERO PUSH2 0x10F6 JUMPI PUSH0 DUP1 REVERT JUMPDEST PUSH1 0x40 MLOAD PUSH2 0x1102 DUP2 PUSH2 0x1054 JUMP JUMPDEST DUP3 CALLDATALOAD DUP2 MSTORE PUSH1 0x20 DUP1 DUP5 ADD CALLDATALOAD DUP2 DUP4 ADD MSTORE PUSH1 0x40 DUP5 ADD CALLDATALOAD PUSH1 0x1 PUSH1 0x1 PUSH1 0x40 SHL SUB DUP2 GT ISZERO PUSH2 0x1128 JUMPI PUSH0 DUP1 REVERT JUMPDEST DUP5 ADD CALLDATASIZE PUSH1 0x1F DUP3 ADD SLT PUSH2 0x1138 JUMPI PUSH0 DUP1 REVERT JUMPDEST DUP1 CALLDATALOAD PUSH2 0x1143 DUP2 PUSH2 0x10C4 JUMP JUMPDEST PUSH1 0x40 MLOAD PUSH2 0x1150 DUP3 DUP3 PUSH2 0x1098 JUMP JUMPDEST DUP3 DUP2 MSTORE PUSH1 0x5 SWAP3 SWAP1 SWAP3 SHL DUP4 ADD DUP5 ADD SWAP2 DUP5 DUP2 ADD SWAP2 POP CALLDATASIZE DUP4 GT ISZERO PUSH2 0x116F JUMPI PUSH0 DUP1 REVERT JUMPDEST SWAP3 DUP5 ADD SWAP3 JUMPDEST DUP3 DUP5 LT ISZERO PUSH2 0x118D JUMPI DUP4 CALLDATALOAD DUP3 MSTORE SWAP3 DUP5 ADD SWAP3 SWAP1 DUP5 ADD SWAP1 PUSH2 0x1174 JUMP JUMPDEST PUSH1 0x40 DUP7 ADD MSTORE POP POP POP POP PUSH1 0x60 DUP4 DUP2 ADD CALLDATALOAD SWAP1 DUP3 ADD MSTORE PUSH2 0x11AC PUSH1 0x80 DUP5 ADD PUSH2 0xF54 JUMP JUMPDEST PUSH1 0x80 DUP3 ADD MSTORE SWAP3 SWAP2 POP POP JUMP JUMPDEST PUSH0 PUSH1 0xA0 DUP4 ADD DUP3 MLOAD DUP5 MSTORE PUSH1 0x20 DUP1 DUP5 ADD MLOAD PUSH1 0x20 DUP7 ADD MSTORE PUSH1 0x40 DUP5 ADD MLOAD PUSH1 0xA0 PUSH1 0x40 DUP8 ADD MSTORE DUP3 DUP2 MLOAD DUP1 DUP6 MSTORE PUSH1 0xC0 DUP9 ADD SWAP2 POP PUSH1 0x20 DUP4 ADD SWAP5 POP PUSH0 SWAP3 POP JUMPDEST DUP1 DUP4 LT ISZERO PUSH2 0x120D JUMPI DUP5 MLOAD DUP3 MSTORE SWAP4 DUP4 ADD SWAP4 PUSH1 0x1 SWAP3 SWAP1 SWAP3 ADD SWAP2 SWAP1 DUP4 ADD SWAP1 PUSH2 0x11ED JUMP JUMPDEST POP PUSH1 0x60 DUP7 ADD MLOAD PUSH1 0x60 DUP9 ADD MSTORE PUSH1 0x80 DUP7 ADD MLOAD ISZERO ISZERO PUSH1 0x80 DUP9 ADD MSTORE DUP1 SWAP5 POP POP POP POP POP SWAP3 SWAP2 POP POP JUMP JUMPDEST PUSH0 JUMPDEST DUP4 DUP2 LT ISZERO PUSH2 0x124B JUMPI DUP2 DUP2 ADD MLOAD DUP4 DUP3 ADD MSTORE PUSH1 0x20 ADD PUSH2 0x1233 JUMP JUMPDEST POP POP PUSH0 SWAP2 ADD MSTORE JUMP JUMPDEST PUSH0 DUP2 MLOAD DUP1 DUP5 MSTORE PUSH2 0x126A DUP2 PUSH1 0x20 DUP7 ADD PUSH1 0x20 DUP7 ADD PUSH2 0x1231 JUMP JUMPDEST PUSH1 0x1F ADD PUSH1 0x1F NOT AND SWAP3 SWAP1 SWAP3 ADD PUSH1 0x20 ADD SWAP3 SWAP2 POP POP JUMP JUMPDEST PUSH2 0xFFFF DUP4 AND DUP2 MSTORE PUSH1 0x40 PUSH1 0x20 DUP3 ADD MSTORE PUSH1 0x1 DUP1 PUSH1 0xA0 SHL SUB DUP3 MLOAD AND PUSH1 0x40 DUP3 ADD MSTORE PUSH0 PUSH1 0x20 DUP4 ADD MLOAD PUSH1 0x60 DUP1 DUP5 ADD MSTORE PUSH2 0x12B4 PUSH1 0xA0 DUP5 ADD DUP3 PUSH2 0x11B7 JUMP JUMPDEST SWAP1 POP PUSH1 0x40 DUP5 ADD MLOAD PUSH1 0x3F NOT DUP5 DUP4 SUB ADD PUSH1 0x80 DUP6 ADD MSTORE PUSH2 0x12D1 DUP3 DUP3 PUSH2 0x1253 JUMP JUMPDEST SWAP7 SWAP6 POP POP POP POP POP POP JUMP JUMPDEST PUSH0 DUP3 PUSH1 0x1F DUP4 ADD SLT PUSH2 0x12EA JUMPI PUSH0 DUP1 REVERT JUMPDEST DUP2 MLOAD PUSH1 0x1 PUSH1 0x1 PUSH1 0x40 SHL SUB DUP2 GT ISZERO PUSH2 0x1303 JUMPI PUSH2 0x1303 PUSH2 0x1040 JUMP JUMPDEST PUSH1 0x40 MLOAD PUSH2 0x131A PUSH1 0x1F DUP4 ADD PUSH1 0x1F NOT AND PUSH1 0x20 ADD DUP3 PUSH2 0x1098 JUMP JUMPDEST DUP2 DUP2 MSTORE DUP5 PUSH1 0x20 DUP4 DUP7 ADD ADD GT ISZERO PUSH2 0x132E JUMPI PUSH0 DUP1 REVERT JUMPDEST PUSH2 0x133F DUP3 PUSH1 0x20 DUP4 ADD PUSH1 0x20 DUP8 ADD PUSH2 0x1231 JUMP JUMPDEST SWAP5 SWAP4 POP POP POP POP JUMP JUMPDEST PUSH0 PUSH1 0x20 DUP1 DUP4 DUP6 SUB SLT ISZERO PUSH2 0x1358 JUMPI PUSH0 DUP1 REVERT JUMPDEST DUP3 MLOAD PUSH1 0x1 PUSH1 0x1 PUSH1 0x40 SHL SUB DUP1 DUP3 GT ISZERO PUSH2 0x136E JUMPI PUSH0 DUP1 REVERT JUMPDEST SWAP1 DUP5 ADD SWAP1 PUSH1 0x60 DUP3 DUP8 SUB SLT ISZERO PUSH2 0x1381 JUMPI PUSH0 DUP1 REVERT JUMPDEST PUSH1 0x40 DUP1 MLOAD PUSH2 0x138E DUP2 PUSH2 0x1079 JUMP JUMPDEST DUP4 MLOAD PUSH2 0x1399 DUP2 PUSH2 0xC10 JUMP JUMPDEST DUP2 MSTORE DUP4 DUP6 ADD MLOAD DUP4 DUP2 GT ISZERO PUSH2 0x13AB JUMPI PUSH0 DUP1 REVERT JUMPDEST DUP5 ADD PUSH1 0xA0 DUP2 DUP11 SUB SLT ISZERO PUSH2 0x13BC JUMPI PUSH0 DUP1 REVERT JUMPDEST DUP3 MLOAD PUSH2 0x13C7 DUP2 PUSH2 0x1054 JUMP JUMPDEST DUP2 MLOAD DUP2 MSTORE DUP7 DUP3 ADD MLOAD DUP8 DUP3 ADD MSTORE DUP4 DUP3 ADD MLOAD DUP6 DUP2 GT ISZERO PUSH2 0x13E3 JUMPI PUSH0 DUP1 REVERT JUMPDEST DUP3 ADD PUSH1 0x1F DUP2 ADD DUP12 SGT PUSH2 0x13F3 JUMPI PUSH0 DUP1 REVERT JUMPDEST DUP1 MLOAD PUSH2 0x13FE DUP2 PUSH2 0x10C4 JUMP JUMPDEST DUP7 MLOAD PUSH2 0x140A DUP3 DUP3 PUSH2 0x1098 JUMP JUMPDEST DUP3 DUP2 MSTORE PUSH1 0x5 SWAP3 SWAP1 SWAP3 SHL DUP4 ADD DUP11 ADD SWAP2 DUP11 DUP2 ADD SWAP2 POP DUP14 DUP4 GT ISZERO PUSH2 0x1429 JUMPI PUSH0 DUP1 REVERT JUMPDEST SWAP3 DUP11 ADD SWAP3 JUMPDEST DUP3 DUP5 LT ISZERO PUSH2 0x1447 JUMPI DUP4 MLOAD DUP3 MSTORE SWAP3 DUP11 ADD SWAP3 SWAP1 DUP11 ADD SWAP1 PUSH2 0x142E JUMP JUMPDEST DUP5 DUP9 ADD MSTORE POP POP POP PUSH1 0x60 DUP3 DUP2 ADD MLOAD SWAP1 DUP3 ADD MSTORE PUSH2 0x1464 PUSH1 0x80 DUP4 ADD PUSH2 0xE32 JUMP JUMPDEST PUSH1 0x80 DUP3 ADD MSTORE DUP1 DUP8 DUP5 ADD MSTORE POP POP DUP2 DUP5 ADD MLOAD SWAP5 POP DUP3 DUP6 GT ISZERO PUSH2 0x1482 JUMPI PUSH0 DUP1 REVERT JUMPDEST PUSH2 0x148E DUP9 DUP7 DUP7 ADD PUSH2 0x12DB JUMP JUMPDEST SWAP2 DUP2 ADD SWAP2 SWAP1 SWAP2 MSTORE SWAP7 SWAP6 POP POP POP POP POP POP JUMP JUMPDEST PUSH1 0x1 PUSH1 0x1 PUSH1 0xA0 SHL SUB DUP5 AND DUP2 MSTORE PUSH1 0x60 PUSH1 0x20 DUP3 ADD DUP2 SWAP1 MSTORE PUSH0 SWAP1 PUSH2 0x14C2 SWAP1 DUP4 ADD DUP6 PUSH2 0x11B7 JUMP JUMPDEST DUP3 DUP2 SUB PUSH1 0x40 DUP5 ADD MSTORE PUSH2 0x12D1 DUP2 DUP6 PUSH2 0x1253 JUMP JUMPDEST PUSH0 PUSH1 0x3 RETURNDATASIZE GT ISZERO PUSH2 0x14EA JUMPI PUSH1 0x4 PUSH0 DUP1 RETURNDATACOPY POP PUSH0 MLOAD PUSH1 0xE0 SHR JUMPDEST SWAP1 JUMP JUMPDEST PUSH0 PUSH1 0x44 RETURNDATASIZE LT ISZERO PUSH2 0x14FA JUMPI SWAP1 JUMP JUMPDEST PUSH1 0x40 MLOAD PUSH1 0x3 NOT RETURNDATASIZE DUP2 ADD PUSH1 0x4 DUP4 RETURNDATACOPY DUP2 MLOAD RETURNDATASIZE PUSH1 0x1 PUSH1 0x1 PUSH1 0x40 SHL SUB DUP2 PUSH1 0x24 DUP5 ADD GT DUP2 DUP5 GT OR ISZERO PUSH2 0x1529 JUMPI POP POP POP POP POP SWAP1 JUMP JUMPDEST DUP3 DUP6 ADD SWAP2 POP DUP2 MLOAD DUP2 DUP2 GT ISZERO PUSH2 0x1541 JUMPI POP POP POP POP POP POP SWAP1 JUMP JUMPDEST DUP5 RETURNDATASIZE DUP8 ADD ADD PUSH1 0x20 DUP3 DUP6 ADD ADD GT ISZERO PUSH2 0x155B JUMPI POP POP POP POP POP POP SWAP1 JUMP JUMPDEST PUSH2 0x156A PUSH1 0x20 DUP3 DUP7 ADD ADD DUP8 PUSH2 0x1098 JUMP JUMPDEST POP SWAP1 SWAP6 SWAP5 POP POP POP POP POP JUMP JUMPDEST PUSH0 PUSH1 0xC0 DUP3 DUP5 SUB SLT ISZERO PUSH2 0x1585 JUMPI PUSH0 DUP1 REVERT JUMPDEST PUSH1 0x40 MLOAD PUSH1 0xC0 DUP2 ADD DUP2 DUP2 LT PUSH1 0x1 PUSH1 0x1 PUSH1 0x40 SHL SUB DUP3 GT OR ISZERO PUSH2 0x15A7 JUMPI PUSH2 0x15A7 PUSH2 0x1040 JUMP JUMPDEST PUSH1 0x40 MSTORE DUP3 MLOAD PUSH2 0x15B5 DUP2 PUSH2 0xC10 JUMP JUMPDEST DUP2 MSTORE PUSH1 0x20 DUP4 ADD MLOAD PUSH2 0x15C5 DUP2 PUSH2 0xC10 JUMP JUMPDEST DUP1 PUSH1 0x20 DUP4 ADD MSTORE POP PUSH1 0x40 DUP4 ADD MLOAD PUSH1 0x40 DUP3 ADD MSTORE PUSH1 0x60 DUP4 ADD MLOAD PUSH1 0x60 DUP3 ADD MSTORE PUSH1 0x80 DUP4 ADD MLOAD PUSH2 0x15EE DUP2 PUSH2 0xC10 JUMP JUMPDEST PUSH1 0x80 DUP3 ADD MSTORE PUSH1 0xA0 SWAP3 DUP4 ADD MLOAD SWAP3 DUP2 ADD SWAP3 SWAP1 SWAP3 MSTORE POP SWAP2 SWAP1 POP JUMP JUMPDEST PUSH1 0xC0 DUP2 ADD PUSH2 0xE77 DUP3 DUP5 PUSH2 0xE7D JUMP JUMPDEST PUSH0 PUSH1 0x20 DUP3 DUP5 SUB SLT ISZERO PUSH2 0x1624 JUMPI PUSH0 DUP1 REVERT JUMPDEST POP MLOAD SWAP2 SWAP1 POP JUMP JUMPDEST PUSH13 0x29BBB0B8103330B4B632B21D1 PUSH1 0x9D SHL DUP2 MSTORE PUSH0 DUP3 MLOAD PUSH2 0x1652 DUP2 PUSH1 0xD DUP6 ADD PUSH1 0x20 DUP8 ADD PUSH2 0x1231 JUMP JUMPDEST SWAP2 SWAP1 SWAP2 ADD PUSH1 0xD ADD SWAP3 SWAP2 POP POP JUMP JUMPDEST PUSH1 0x20 DUP2 MSTORE PUSH0 PUSH2 0xC72 PUSH1 0x20 DUP4 ADD DUP5 PUSH2 0x1253 JUMP INVALID LOG2 PUSH5 0x6970667358 0x22 SLT KECCAK256 0xBE 0xC4 DUP11 PUSH20 0xA8F35E9D469C4BA6A030A1EDCB7A0C80C378D330 0xEC 0xB6 0x4C LOG4 PUSH3 0x6025A2 PUSH5 0x736F6C6343 STOP ADDMOD AND STOP CALLER "},"methodIdentifiers":{"MSG_CROSS_CHAIN_SWAP()":"8e2ff23c","MSG_LIQUIDITY_SYNC()":"8ee7de80","MSG_PARAMETER_UPDATE()":"00e7d629","addTrustedChain(uint32)":"27325ed5","aimm()":"9e9236ec","crossChainSwap(uint32,address,address,uint256,uint256,address)":"63f42e2b","layerZeroEndpoint()":"07968db1","lzReceive(uint32,bytes32,bytes)":"ae455ade","owner()":"8da5cb5b","remotePeers(uint32)":"e549779b","renounceOwnership()":"715018a6","setLayerZeroEndpoint(address)":"95b9783c","setPeer(uint32,address)":"177ffe9a","syncParameters(uint32,address,(uint256,uint256,uint256[],uint256,bool),bytes)":"b8c2b1fd","transferOwnership(address)":"f2fde38b","trustedChains(uint32)":"b237721f"}}}}}