{"project/contracts/cross-chain/ChainlinkCCIPAMM.sol":{"ChainlinkCCIPAMM":{"abi":[{"inputs":[{"internalType":"address","name":"_router","type":"address"},{"internalType":"address","name":"_aimm","type":"address"}],"stateMutability":"nonpayable","type":"constructor"},{"inputs":[{"internalType":"uint64","name":"destinationChainSelector","type":"uint64"}],"name":"DestinationChainNotAllowed","type":"error"},{"inputs":[],"name":"InvalidReceiverAddress","type":"error"},{"inputs":[{"internalType":"uint256","name":"currentBalance","type":"uint256"},{"internalType":"uint256","name":"calculatedFees","type":"uint256"}],"name":"NotEnoughBalance","type":"error"},{"inputs":[{"internalType":"address","name":"owner","type":"address"}],"name":"OwnableInvalidOwner","type":"error"},{"inputs":[{"internalType":"address","name":"account","type":"address"}],"name":"OwnableUnauthorizedAccount","type":"error"},{"inputs":[{"internalType":"address","name":"sender","type":"address"}],"name":"SenderNotAllowed","type":"error"},{"inputs":[{"internalType":"uint64","name":"sourceChainSelector","type":"uint64"}],"name":"SourceChainNotAllowed","type":"error"},{"anonymous":false,"inputs":[{"indexed":true,"internalType":"bytes32","name":"messageId","type":"bytes32"},{"indexed":true,"internalType":"uint64","name":"sourceChainSelector","type":"uint64"},{"indexed":false,"internalType":"address","name":"sender","type":"address"},{"indexed":false,"internalType":"bytes","name":"data","type":"bytes"}],"name":"MessageReceived","type":"event"},{"anonymous":false,"inputs":[{"indexed":true,"internalType":"bytes32","name":"messageId","type":"bytes32"},{"indexed":true,"internalType":"uint64","name":"destinationChainSelector","type":"uint64"},{"indexed":false,"internalType":"address","name":"receiver","type":"address"},{"indexed":false,"internalType":"bytes","name":"data","type":"bytes"},{"indexed":false,"internalType":"uint256","name":"fees","type":"uint256"}],"name":"MessageSent","type":"event"},{"anonymous":false,"inputs":[{"indexed":true,"internalType":"address","name":"previousOwner","type":"address"},{"indexed":true,"internalType":"address","name":"newOwner","type":"address"}],"name":"OwnershipTransferred","type":"event"},{"anonymous":false,"inputs":[{"indexed":true,"internalType":"uint64","name":"sourceChain","type":"uint64"},{"indexed":true,"internalType":"address","name":"pool","type":"address"},{"indexed":false,"internalType":"uint256","name":"timestamp","type":"uint256"}],"name":"ParametersSynchronized","type":"event"},{"inputs":[],"name":"aimm","outputs":[{"internalType":"contract IAIMM","name":"","type":"address"}],"stateMutability":"view","type":"function"},{"inputs":[{"internalType":"uint64","name":"_destinationChainSelector","type":"uint64"},{"internalType":"bool","name":"_allowed","type":"bool"}],"name":"allowlistDestinationChain","outputs":[],"stateMutability":"nonpayable","type":"function"},{"inputs":[{"internalType":"address","name":"_sender","type":"address"},{"internalType":"bool","name":"_allowed","type":"bool"}],"name":"allowlistSender","outputs":[],"stateMutability":"nonpayable","type":"function"},{"inputs":[{"internalType":"uint64","name":"","type":"uint64"}],"name":"allowlistedChains","outputs":[{"internalType":"bool","name":"","type":"bool"}],"stateMutability":"view","type":"function"},{"inputs":[{"internalType":"address","name":"","type":"address"}],"name":"allowlistedSenders","outputs":[{"internalType":"bool","name":"","type":"bool"}],"stateMutability":"view","type":"function"},{"inputs":[{"internalType":"uint64","name":"_sourceChainSelector","type":"uint64"},{"internalType":"address","name":"_sender","type":"address"},{"internalType":"bytes","name":"_data","type":"bytes"}],"name":"ccipReceive","outputs":[],"stateMutability":"nonpayable","type":"function"},{"inputs":[],"name":"ccipRouter","outputs":[{"internalType":"address","name":"","type":"address"}],"stateMutability":"view","type":"function"},{"inputs":[],"name":"owner","outputs":[{"internalType":"address","name":"","type":"address"}],"stateMutability":"view","type":"function"},{"inputs":[],"name":"renounceOwnership","outputs":[],"stateMutability":"nonpayable","type":"function"},{"inputs":[{"internalType":"uint64","name":"_destinationChainSelector","type":"uint64"},{"internalType":"address","name":"_receiver","type":"address"},{"internalType":"address","name":"_pool","type":"address"},{"components":[{"internalType":"uint256","name":"feeRate","type":"uint256"},{"internalType":"uint256","name":"spreadMultiplier","type":"uint256"},{"internalType":"uint256[]","name":"weights","type":"uint256[]"},{"internalType":"uint256","name":"lastUpdate","type":"uint256"},{"internalType":"bool","name":"isActive","type":"bool"}],"internalType":"struct IAIMM.PoolParameters","name":"_params","type":"tuple"},{"internalType":"bytes","name":"_aiSignature","type":"bytes"}],"name":"sendParameterUpdate","outputs":[{"internalType":"bytes32","name":"messageId","type":"bytes32"}],"stateMutability":"nonpayable","type":"function"},{"inputs":[{"internalType":"address","name":"_router","type":"address"}],"name":"setCCIPRouter","outputs":[],"stateMutability":"nonpayable","type":"function"},{"inputs":[{"internalType":"address","name":"newOwner","type":"address"}],"name":"transferOwnership","outputs":[],"stateMutability":"nonpayable","type":"function"},{"inputs":[{"internalType":"address","name":"_beneficiary","type":"address"}],"name":"withdraw","outputs":[],"stateMutability":"nonpayable","type":"function"},{"inputs":[{"internalType":"address","name":"_beneficiary","type":"address"},{"internalType":"address","name":"_token","type":"address"}],"name":"withdrawToken","outputs":[],"stateMutability":"nonpayable","type":"function"},{"stateMutability":"payable","type":"receive"}],"evm":{"bytecode":{"linkReferences":{},"object":"60a060405234801562000010575f80fd5b50604051620017b7380380620017b78339810160408190526200003391620000f6565b33806200005957604051631e4fbdf760e01b81525f600482015260240160405180910390fd5b62000064816200008b565b50600180546001600160a01b0319166001600160a01b03938416179055166080526200012c565b5f80546001600160a01b038381166001600160a01b0319831681178455604051919092169283917f8be0079c531659141344cd1fd0a4f28419497f9722a3daafe3b4186f6b6457e09190a35050565b80516001600160a01b0381168114620000f1575f80fd5b919050565b5f806040838503121562000108575f80fd5b6200011383620000da565b91506200012360208401620000da565b90509250929050565b608051611664620001535f395f818161027b015281816105db0152610ad801526116645ff3fe6080604052600436106100dc575f3560e01c80638da5cb5b1161007c5780639e9236ec116100575780639e9236ec1461026a578063a9bfd4701461029d578063eab5b02c146102bc578063f2fde38b146102db575f80fd5b80638da5cb5b14610202578063930e77161461021e57806396d3b83d1461024b575f80fd5b80633aeac4e1116100b75780633aeac4e11461018257806351cff8d9146101a15780636159ada1146101c0578063715018a6146101ee575f80fd5b80630bb106eb146100e75780630de229841461012a57806331c1e16a14610161575f80fd5b366100e357005b5f80fd5b3480156100f2575f80fd5b50610115610101366004610bd7565b60026020525f908152604090205460ff1681565b60405190151581526020015b60405180910390f35b348015610135575f80fd5b50600154610149906001600160a01b031681565b6040516001600160a01b039091168152602001610121565b34801561016c575f80fd5b5061018061017b366004610c0b565b6102fa565b005b34801561018d575f80fd5b5061018061019c366004610c26565b610324565b3480156101ac575f80fd5b506101806101bb366004610c0b565b610456565b3480156101cb575f80fd5b506101156101da366004610c0b565b60036020525f908152604090205460ff1681565b3480156101f9575f80fd5b5061018061053b565b34801561020d575f80fd5b505f546001600160a01b0316610149565b348015610229575f80fd5b5061023d610238366004610ca1565b61054e565b604051908152602001610121565b348015610256575f80fd5b50610180610265366004610d59565b61079d565b348015610275575f80fd5b506101497f000000000000000000000000000000000000000000000000000000000000000081565b3480156102a8575f80fd5b506101806102b7366004610d83565b6107cf565b3480156102c7575f80fd5b506101806102d6366004610de1565b610953565b3480156102e6575f80fd5b506101806102f5366004610c0b565b610985565b6103026109c2565b600180546001600160a01b0319166001600160a01b0392909216919091179055565b61032c6109c2565b6040516370a0823160e01b81523060048201525f906001600160a01b038316906370a0823190602401602060405180830381865afa158015610370573d5f803e3d5ffd5b505050506040513d601f19601f820116820180604052508101906103949190610dfd565b90505f81116103e05760405162461bcd60e51b81526020600482015260136024820152724e6f7468696e6720746f20776974686472617760681b60448201526064015b60405180910390fd5b60405163a9059cbb60e01b81526001600160a01b0384811660048301526024820183905283169063a9059cbb906044016020604051808303815f875af115801561042c573d5f803e3d5ffd5b505050506040513d601f19601f820116820180604052508101906104509190610e1f565b50505050565b61045e6109c2565b47806104a25760405162461bcd60e51b81526020600482015260136024820152724e6f7468696e6720746f20776974686472617760681b60448201526064016103d7565b5f826001600160a01b0316826040515f6040518083038185875af1925050503d805f81146104eb576040519150601f19603f3d011682016040523d82523d5f602084013e6104f0565b606091505b50509050806105365760405162461bcd60e51b81526020600482015260126024820152714661696c656420746f20776974686472617760701b60448201526064016103d7565b505050565b6105436109c2565b61054c5f6109ee565b565b5f6105576109c2565b6001600160401b0387165f90815260026020526040902054879060ff1661059c5760405163206abad760e01b81526001600160401b03821660048201526024016103d7565b866001600160a01b0381166105c45760405163502ffa3f60e11b815260040160405180910390fd5b60405163938ffd8560e01b81526001600160a01b037f0000000000000000000000000000000000000000000000000000000000000000169063938ffd8590610616908a908a908a908a90600401610e92565b5f604051808303815f87803b15801561062d575f80fd5b505af115801561063f573d5f803e3d5ffd5b505050505f6040518060800160405280896001600160a01b031681526020018861066890610ff1565b815260200187878080601f0160208091040260200160405190810160405280939291908181526020018383808284375f92018290525093855250504260209384015250604051929350916106c091839185910161119d565b604051602081830303815290604052905042816040516020016106e4929190611221565b6040516020818303038152906040528051906020012094508a6001600160401b0316857fbce6a2c2c43067d8a6d6604a7339727cf8ca343d9fd153381e257848afa1f97c8c845f60405161073a93929190611246565b60405180910390a3886001600160a01b03168b6001600160401b03167fe44b4fe5171333420f2aba6cf10010b31c6b5e7f20f3b6fdccadd168eb824be34260405161078791815260200190565b60405180910390a3505050509695505050505050565b6107a56109c2565b6001600160401b03919091165f908152600260205260409020805460ff1916911515919091179055565b6001546001600160a01b0316331461081c5760405162461bcd60e51b815260206004820152601060248201526f27b7363c9021a1a4a8103937baba32b960811b60448201526064016103d7565b6001600160401b0384165f9081526002602052604090205460ff1661085f5760405163042784cf60e31b81526001600160401b03851660048201526024016103d7565b6001600160a01b0383165f9081526003602052604090205460ff166108a2576040516368692cbb60e11b81526001600160a01b03841660048201526024016103d7565b5f806108b08385018561129f565b90925090505f8260028111156108c8576108c86110c2565b036108d6576108d681610a3d565b5f4285856040516020016108ec93929190611334565b604051602081830303815290604052805190602001209050866001600160401b0316817f4add8c8902d6fd412fed639bf652d936405bbb837c732a202153c91e89ebfaa78888886040516109429392919061134d565b60405180910390a350505050505050565b61095b6109c2565b6001600160a01b03919091165f908152600360205260409020805460ff1916911515919091179055565b61098d6109c2565b6001600160a01b0381166109b657604051631e4fbdf760e01b81525f60048201526024016103d7565b6109bf816109ee565b50565b5f546001600160a01b0316331461054c5760405163118cdaa760e01b81523360048201526024016103d7565b5f80546001600160a01b038381166001600160a01b0319831681178455604051919092169283917f8be0079c531659141344cd1fd0a4f28419497f9722a3daafe3b4186f6b6457e09190a35050565b5f81806020019051810190610a5291906113c6565b90508060600151610e10610a669190611529565b421115610ab55760405162461bcd60e51b815260206004820152601860248201527f506172616d657465722075706461746520746f6f206f6c64000000000000000060448201526064016103d7565b80516020820151604080840151905163938ffd8560e01b81526001600160a01b037f0000000000000000000000000000000000000000000000000000000000000000169363938ffd8593610b1093919290919060040161154e565b5f604051808303815f87803b158015610b27575f80fd5b505af1925050508015610b38575060015b610b6d57610b4461158d565b806308c379a003610b635750610b586115a6565b806105365750610b65565b505b3d5f803e3d5ffd5b805f01516001600160a01b03165f7fe44b4fe5171333420f2aba6cf10010b31c6b5e7f20f3b6fdccadd168eb824be38360600151604051610bb091815260200190565b60405180910390a35050565b80356001600160401b0381168114610bd2575f80fd5b919050565b5f60208284031215610be7575f80fd5b610bf082610bbc565b9392505050565b6001600160a01b03811681146109bf575f80fd5b5f60208284031215610c1b575f80fd5b8135610bf081610bf7565b5f8060408385031215610c37575f80fd5b8235610c4281610bf7565b91506020830135610c5281610bf7565b809150509250929050565b5f8083601f840112610c6d575f80fd5b5081356001600160401b03811115610c83575f80fd5b602083019150836020828501011115610c9a575f80fd5b9250929050565b5f805f805f8060a08789031215610cb6575f80fd5b610cbf87610bbc565b95506020870135610ccf81610bf7565b94506040870135610cdf81610bf7565b935060608701356001600160401b0380821115610cfa575f80fd5b9088019060a0828b031215610d0d575f80fd5b90935060808801359080821115610d22575f80fd5b50610d2f89828a01610c5d565b979a9699509497509295939492505050565b80151581146109bf575f80fd5b8035610bd281610d41565b5f8060408385031215610d6a575f80fd5b610d7383610bbc565b91506020830135610c5281610d41565b5f805f8060608587031215610d96575f80fd5b610d9f85610bbc565b93506020850135610daf81610bf7565b925060408501356001600160401b03811115610dc9575f80fd5b610dd587828801610c5d565b95989497509550505050565b5f8060408385031215610df2575f80fd5b8235610d7381610bf7565b5f60208284031215610e0d575f80fd5b5051919050565b8051610bd281610d41565b5f60208284031215610e2f575f80fd5b8151610bf081610d41565b8183525f6001600160fb1b03831115610e51575f80fd5b8260051b80836020870137939093016020019392505050565b81835281816020850137505f828201602090810191909152601f909101601f19169091010190565b60018060a01b03851681526060602082015283356060820152602084013560808201525f6040850135601e19863603018112610ecc575f80fd5b85016020810190356001600160401b03811115610ee7575f80fd5b8060051b3603821315610ef8575f80fd5b60a080850152610f0d61010085018284610e3a565b915050606086013560c0840152610f2660808701610d4e565b151560e08401528281036040840152610f40818587610e6a565b979650505050505050565b634e487b7160e01b5f52604160045260245ffd5b60a081018181106001600160401b0382111715610f7e57610f7e610f4b565b60405250565b608081018181106001600160401b0382111715610f7e57610f7e610f4b565b601f8201601f191681016001600160401b0381118282101715610fc857610fc8610f4b565b6040525050565b5f6001600160401b03821115610fe757610fe7610f4b565b5060051b60200190565b5f60a08236031215611001575f80fd5b60405161100d81610f5f565b823581526020808401358183015260408401356001600160401b03811115611033575f80fd5b840136601f820112611043575f80fd5b803561104e81610fcf565b60405161105b8282610fa3565b82815260059290921b830184019184810191503683111561107a575f80fd5b928401925b828410156110985783358252928401929084019061107f565b604086015250505050606083810135908201526110b760808401610d4e565b608082015292915050565b634e487b7160e01b5f52602160045260245ffd5b5f60a08301825184526020808401516020860152604084015160a0604087015282815180855260c0880191506020830194505f92505b8083101561112c578451825293830193600192909201919083019061110c565b50606086015160608801526080860151151560808801528094505050505092915050565b5f5b8381101561116a578181015183820152602001611152565b50505f910152565b5f8151808452611189816020860160208601611150565b601f01601f19169290920160200192915050565b5f600384106111ba57634e487b7160e01b5f52602160045260245ffd5b8382526040602083015260018060a01b0383511660408301526020830151608060608401526111ec60c08401826110d6565b90506040840151603f198483030160808501526112098282611172565b915050606084015160a0840152809150509392505050565b8281525f8251611238816020850160208701611150565b919091016020019392505050565b6001600160a01b03841681526060602082018190525f9061126990830185611172565b9050826040830152949350505050565b5f6001600160401b0382111561129157611291610f4b565b50601f01601f191660200190565b5f80604083850312156112b0575f80fd5b8235600381106112be575f80fd5b915060208301356001600160401b038111156112d8575f80fd5b8301601f810185136112e8575f80fd5b80356112f381611279565b6040516113008282610fa3565b828152876020848601011115611314575f80fd5b826020850160208301375f60208483010152809450505050509250929050565b838152818360208301375f910160200190815292915050565b6001600160a01b03841681526040602082018190525f906113719083018486610e6a565b95945050505050565b5f82601f830112611389575f80fd5b815161139481611279565b6040516113a18282610fa3565b8281528560208487010111156113b5575f80fd5b611371836020830160208801611150565b5f60208083850312156113d7575f80fd5b82516001600160401b03808211156113ed575f80fd5b9084019060808287031215611400575f80fd5b6040805161140d81610f84565b835161141881610bf7565b8152838501518381111561142a575f80fd5b840160a0818a03121561143b575f80fd5b825161144681610f5f565b8151815286820151878201528382015185811115611462575f80fd5b8201601f81018b13611472575f80fd5b805161147d81610fcf565b86516114898282610fa3565b82815260059290921b83018a01918a810191508d8311156114a8575f80fd5b928a01925b828410156114c65783518252928a0192908a01906114ad565b84880152505050606082810151908201526114e360808301610e14565b60808201528087840152505081840151945082851115611501575f80fd5b61150d8886860161137a565b8282015260608401516060820152809550505050505092915050565b8082018082111561154857634e487b7160e01b5f52601160045260245ffd5b92915050565b6001600160a01b03841681526060602082018190525f90611571908301856110d6565b82810360408401526115838185611172565b9695505050505050565b5f60033d11156115a35760045f803e505f5160e01c5b90565b5f60443d10156115b35790565b6040516003193d81016004833e81513d6001600160401b0381602484011181841117156115e257505050505090565b82850191508151818111156115fa5750505050505090565b843d87010160208285010111156116145750505050505090565b61162360208286010187610fa3565b50909594505050505056fea2646970667358221220f0467918b0ca7d26a24b09974e69d1fcb83c6852dee9f78b2f7d5ba11d06ccd164736f6c63430008160033","opcodes":"PUSH1 0xA0 PUSH1 0x40 MSTORE CALLVALUE DUP1 ISZERO PUSH3 0x10 JUMPI PUSH0 DUP1 REVERT JUMPDEST POP PUSH1 0x40 MLOAD PUSH3 0x17B7 CODESIZE SUB DUP1 PUSH3 0x17B7 DUP4 CODECOPY DUP2 ADD PUSH1 0x40 DUP2 SWAP1 MSTORE PUSH3 0x33 SWAP2 PUSH3 0xF6 JUMP JUMPDEST CALLER DUP1 PUSH3 0x59 JUMPI PUSH1 0x40 MLOAD PUSH4 0x1E4FBDF7 PUSH1 0xE0 SHL DUP2 MSTORE PUSH0 PUSH1 0x4 DUP3 ADD MSTORE PUSH1 0x24 ADD PUSH1 0x40 MLOAD DUP1 SWAP2 SUB SWAP1 REVERT JUMPDEST PUSH3 0x64 DUP2 PUSH3 0x8B JUMP JUMPDEST POP PUSH1 0x1 DUP1 SLOAD PUSH1 0x1 PUSH1 0x1 PUSH1 0xA0 SHL SUB NOT AND PUSH1 0x1 PUSH1 0x1 PUSH1 0xA0 SHL SUB SWAP4 DUP5 AND OR SWAP1 SSTORE AND PUSH1 0x80 MSTORE PUSH3 0x12C JUMP JUMPDEST PUSH0 DUP1 SLOAD PUSH1 0x1 PUSH1 0x1 PUSH1 0xA0 SHL SUB DUP4 DUP2 AND PUSH1 0x1 PUSH1 0x1 PUSH1 0xA0 SHL SUB NOT DUP4 AND DUP2 OR DUP5 SSTORE PUSH1 0x40 MLOAD SWAP2 SWAP1 SWAP3 AND SWAP3 DUP4 SWAP2 PUSH32 0x8BE0079C531659141344CD1FD0A4F28419497F9722A3DAAFE3B4186F6B6457E0 SWAP2 SWAP1 LOG3 POP POP JUMP JUMPDEST DUP1 MLOAD PUSH1 0x1 PUSH1 0x1 PUSH1 0xA0 SHL SUB DUP2 AND DUP2 EQ PUSH3 0xF1 JUMPI PUSH0 DUP1 REVERT JUMPDEST SWAP2 SWAP1 POP JUMP JUMPDEST PUSH0 DUP1 PUSH1 0x40 DUP4 DUP6 SUB SLT ISZERO PUSH3 0x108 JUMPI PUSH0 DUP1 REVERT JUMPDEST PUSH3 0x113 DUP4 PUSH3 0xDA JUMP JUMPDEST SWAP2 POP PUSH3 0x123 PUSH1 0x20 DUP5 ADD PUSH3 0xDA JUMP JUMPDEST SWAP1 POP SWAP3 POP SWAP3 SWAP1 POP JUMP JUMPDEST PUSH1 0x80 MLOAD PUSH2 0x1664 PUSH3 0x153 PUSH0 CODECOPY PUSH0 DUP2 DUP2 PUSH2 0x27B ADD MSTORE DUP2 DUP2 PUSH2 0x5DB ADD MSTORE PUSH2 0xAD8 ADD MSTORE PUSH2 0x1664 PUSH0 RETURN INVALID PUSH1 0x80 PUSH1 0x40 MSTORE PUSH1 0x4 CALLDATASIZE LT PUSH2 0xDC JUMPI PUSH0 CALLDATALOAD PUSH1 0xE0 SHR DUP1 PUSH4 0x8DA5CB5B GT PUSH2 0x7C JUMPI DUP1 PUSH4 0x9E9236EC GT PUSH2 0x57 JUMPI DUP1 PUSH4 0x9E9236EC EQ PUSH2 0x26A JUMPI DUP1 PUSH4 0xA9BFD470 EQ PUSH2 0x29D JUMPI DUP1 PUSH4 0xEAB5B02C EQ PUSH2 0x2BC JUMPI DUP1 PUSH4 0xF2FDE38B EQ PUSH2 0x2DB JUMPI PUSH0 DUP1 REVERT JUMPDEST DUP1 PUSH4 0x8DA5CB5B EQ PUSH2 0x202 JUMPI DUP1 PUSH4 0x930E7716 EQ PUSH2 0x21E JUMPI DUP1 PUSH4 0x96D3B83D EQ PUSH2 0x24B JUMPI PUSH0 DUP1 REVERT JUMPDEST DUP1 PUSH4 0x3AEAC4E1 GT PUSH2 0xB7 JUMPI DUP1 PUSH4 0x3AEAC4E1 EQ PUSH2 0x182 JUMPI DUP1 PUSH4 0x51CFF8D9 EQ PUSH2 0x1A1 JUMPI DUP1 PUSH4 0x6159ADA1 EQ PUSH2 0x1C0 JUMPI DUP1 PUSH4 0x715018A6 EQ PUSH2 0x1EE JUMPI PUSH0 DUP1 REVERT JUMPDEST DUP1 PUSH4 0xBB106EB EQ PUSH2 0xE7 JUMPI DUP1 PUSH4 0xDE22984 EQ PUSH2 0x12A JUMPI DUP1 PUSH4 0x31C1E16A EQ PUSH2 0x161 JUMPI PUSH0 DUP1 REVERT JUMPDEST CALLDATASIZE PUSH2 0xE3 JUMPI STOP JUMPDEST PUSH0 DUP1 REVERT JUMPDEST CALLVALUE DUP1 ISZERO PUSH2 0xF2 JUMPI PUSH0 DUP1 REVERT JUMPDEST POP PUSH2 0x115 PUSH2 0x101 CALLDATASIZE PUSH1 0x4 PUSH2 0xBD7 JUMP JUMPDEST PUSH1 0x2 PUSH1 0x20 MSTORE PUSH0 SWAP1 DUP2 MSTORE PUSH1 0x40 SWAP1 KECCAK256 SLOAD PUSH1 0xFF AND DUP2 JUMP JUMPDEST PUSH1 0x40 MLOAD SWAP1 ISZERO ISZERO DUP2 MSTORE PUSH1 0x20 ADD JUMPDEST PUSH1 0x40 MLOAD DUP1 SWAP2 SUB SWAP1 RETURN JUMPDEST CALLVALUE DUP1 ISZERO PUSH2 0x135 JUMPI PUSH0 DUP1 REVERT JUMPDEST POP PUSH1 0x1 SLOAD PUSH2 0x149 SWAP1 PUSH1 0x1 PUSH1 0x1 PUSH1 0xA0 SHL SUB AND DUP2 JUMP JUMPDEST PUSH1 0x40 MLOAD PUSH1 0x1 PUSH1 0x1 PUSH1 0xA0 SHL SUB SWAP1 SWAP2 AND DUP2 MSTORE PUSH1 0x20 ADD PUSH2 0x121 JUMP JUMPDEST CALLVALUE DUP1 ISZERO PUSH2 0x16C JUMPI PUSH0 DUP1 REVERT JUMPDEST POP PUSH2 0x180 PUSH2 0x17B CALLDATASIZE PUSH1 0x4 PUSH2 0xC0B JUMP JUMPDEST PUSH2 0x2FA JUMP JUMPDEST STOP JUMPDEST CALLVALUE DUP1 ISZERO PUSH2 0x18D JUMPI PUSH0 DUP1 REVERT JUMPDEST POP PUSH2 0x180 PUSH2 0x19C CALLDATASIZE PUSH1 0x4 PUSH2 0xC26 JUMP JUMPDEST PUSH2 0x324 JUMP JUMPDEST CALLVALUE DUP1 ISZERO PUSH2 0x1AC JUMPI PUSH0 DUP1 REVERT JUMPDEST POP PUSH2 0x180 PUSH2 0x1BB CALLDATASIZE PUSH1 0x4 PUSH2 0xC0B JUMP JUMPDEST PUSH2 0x456 JUMP JUMPDEST CALLVALUE DUP1 ISZERO PUSH2 0x1CB JUMPI PUSH0 DUP1 REVERT JUMPDEST POP PUSH2 0x115 PUSH2 0x1DA CALLDATASIZE PUSH1 0x4 PUSH2 0xC0B JUMP JUMPDEST PUSH1 0x3 PUSH1 0x20 MSTORE PUSH0 SWAP1 DUP2 MSTORE PUSH1 0x40 SWAP1 KECCAK256 SLOAD PUSH1 0xFF AND DUP2 JUMP JUMPDEST CALLVALUE DUP1 ISZERO PUSH2 0x1F9 JUMPI PUSH0 DUP1 REVERT JUMPDEST POP PUSH2 0x180 PUSH2 0x53B JUMP JUMPDEST CALLVALUE DUP1 ISZERO PUSH2 0x20D JUMPI PUSH0 DUP1 REVERT JUMPDEST POP PUSH0 SLOAD PUSH1 0x1 PUSH1 0x1 PUSH1 0xA0 SHL SUB AND PUSH2 0x149 JUMP JUMPDEST CALLVALUE DUP1 ISZERO PUSH2 0x229 JUMPI PUSH0 DUP1 REVERT JUMPDEST POP PUSH2 0x23D PUSH2 0x238 CALLDATASIZE PUSH1 0x4 PUSH2 0xCA1 JUMP JUMPDEST PUSH2 0x54E JUMP JUMPDEST PUSH1 0x40 MLOAD SWAP1 DUP2 MSTORE PUSH1 0x20 ADD PUSH2 0x121 JUMP JUMPDEST CALLVALUE DUP1 ISZERO PUSH2 0x256 JUMPI PUSH0 DUP1 REVERT JUMPDEST POP PUSH2 0x180 PUSH2 0x265 CALLDATASIZE PUSH1 0x4 PUSH2 0xD59 JUMP JUMPDEST PUSH2 0x79D JUMP JUMPDEST CALLVALUE DUP1 ISZERO PUSH2 0x275 JUMPI PUSH0 DUP1 REVERT JUMPDEST POP PUSH2 0x149 PUSH32 0x0 DUP2 JUMP JUMPDEST CALLVALUE DUP1 ISZERO PUSH2 0x2A8 JUMPI PUSH0 DUP1 REVERT JUMPDEST POP PUSH2 0x180 PUSH2 0x2B7 CALLDATASIZE PUSH1 0x4 PUSH2 0xD83 JUMP JUMPDEST PUSH2 0x7CF JUMP JUMPDEST CALLVALUE DUP1 ISZERO PUSH2 0x2C7 JUMPI PUSH0 DUP1 REVERT JUMPDEST POP PUSH2 0x180 PUSH2 0x2D6 CALLDATASIZE PUSH1 0x4 PUSH2 0xDE1 JUMP JUMPDEST PUSH2 0x953 JUMP JUMPDEST CALLVALUE DUP1 ISZERO PUSH2 0x2E6 JUMPI PUSH0 DUP1 REVERT JUMPDEST POP PUSH2 0x180 PUSH2 0x2F5 CALLDATASIZE PUSH1 0x4 PUSH2 0xC0B JUMP JUMPDEST PUSH2 0x985 JUMP JUMPDEST PUSH2 0x302 PUSH2 0x9C2 JUMP JUMPDEST PUSH1 0x1 DUP1 SLOAD PUSH1 0x1 PUSH1 0x1 PUSH1 0xA0 SHL SUB NOT AND PUSH1 0x1 PUSH1 0x1 PUSH1 0xA0 SHL SUB SWAP3 SWAP1 SWAP3 AND SWAP2 SWAP1 SWAP2 OR SWAP1 SSTORE JUMP JUMPDEST PUSH2 0x32C PUSH2 0x9C2 JUMP JUMPDEST PUSH1 0x40 MLOAD PUSH4 0x70A08231 PUSH1 0xE0 SHL DUP2 MSTORE ADDRESS PUSH1 0x4 DUP3 ADD MSTORE PUSH0 SWAP1 PUSH1 0x1 PUSH1 0x1 PUSH1 0xA0 SHL SUB DUP4 AND SWAP1 PUSH4 0x70A08231 SWAP1 PUSH1 0x24 ADD PUSH1 0x20 PUSH1 0x40 MLOAD DUP1 DUP4 SUB DUP2 DUP7 GAS STATICCALL ISZERO DUP1 ISZERO PUSH2 0x370 JUMPI RETURNDATASIZE PUSH0 DUP1 RETURNDATACOPY RETURNDATASIZE PUSH0 REVERT JUMPDEST POP POP POP POP PUSH1 0x40 MLOAD RETURNDATASIZE PUSH1 0x1F NOT PUSH1 0x1F DUP3 ADD AND DUP3 ADD DUP1 PUSH1 0x40 MSTORE POP DUP2 ADD SWAP1 PUSH2 0x394 SWAP2 SWAP1 PUSH2 0xDFD JUMP JUMPDEST SWAP1 POP PUSH0 DUP2 GT PUSH2 0x3E0 JUMPI PUSH1 0x40 MLOAD PUSH3 0x461BCD PUSH1 0xE5 SHL DUP2 MSTORE PUSH1 0x20 PUSH1 0x4 DUP3 ADD MSTORE PUSH1 0x13 PUSH1 0x24 DUP3 ADD MSTORE PUSH19 0x4E6F7468696E6720746F207769746864726177 PUSH1 0x68 SHL PUSH1 0x44 DUP3 ADD MSTORE PUSH1 0x64 ADD JUMPDEST PUSH1 0x40 MLOAD DUP1 SWAP2 SUB SWAP1 REVERT JUMPDEST PUSH1 0x40 MLOAD PUSH4 0xA9059CBB PUSH1 0xE0 SHL DUP2 MSTORE PUSH1 0x1 PUSH1 0x1 PUSH1 0xA0 SHL SUB DUP5 DUP2 AND PUSH1 0x4 DUP4 ADD MSTORE PUSH1 0x24 DUP3 ADD DUP4 SWAP1 MSTORE DUP4 AND SWAP1 PUSH4 0xA9059CBB SWAP1 PUSH1 0x44 ADD PUSH1 0x20 PUSH1 0x40 MLOAD DUP1 DUP4 SUB DUP2 PUSH0 DUP8 GAS CALL ISZERO DUP1 ISZERO PUSH2 0x42C JUMPI RETURNDATASIZE PUSH0 DUP1 RETURNDATACOPY RETURNDATASIZE PUSH0 REVERT JUMPDEST POP POP POP POP PUSH1 0x40 MLOAD RETURNDATASIZE PUSH1 0x1F NOT PUSH1 0x1F DUP3 ADD AND DUP3 ADD DUP1 PUSH1 0x40 MSTORE POP DUP2 ADD SWAP1 PUSH2 0x450 SWAP2 SWAP1 PUSH2 0xE1F JUMP JUMPDEST POP POP POP POP JUMP JUMPDEST PUSH2 0x45E PUSH2 0x9C2 JUMP JUMPDEST SELFBALANCE DUP1 PUSH2 0x4A2 JUMPI PUSH1 0x40 MLOAD PUSH3 0x461BCD PUSH1 0xE5 SHL DUP2 MSTORE PUSH1 0x20 PUSH1 0x4 DUP3 ADD MSTORE PUSH1 0x13 PUSH1 0x24 DUP3 ADD MSTORE PUSH19 0x4E6F7468696E6720746F207769746864726177 PUSH1 0x68 SHL PUSH1 0x44 DUP3 ADD MSTORE PUSH1 0x64 ADD PUSH2 0x3D7 JUMP JUMPDEST PUSH0 DUP3 PUSH1 0x1 PUSH1 0x1 PUSH1 0xA0 SHL SUB AND DUP3 PUSH1 0x40 MLOAD PUSH0 PUSH1 0x40 MLOAD DUP1 DUP4 SUB DUP2 DUP6 DUP8 GAS CALL SWAP3 POP POP POP RETURNDATASIZE DUP1 PUSH0 DUP2 EQ PUSH2 0x4EB JUMPI PUSH1 0x40 MLOAD SWAP2 POP PUSH1 0x1F NOT PUSH1 0x3F RETURNDATASIZE ADD AND DUP3 ADD PUSH1 0x40 MSTORE RETURNDATASIZE DUP3 MSTORE RETURNDATASIZE PUSH0 PUSH1 0x20 DUP5 ADD RETURNDATACOPY PUSH2 0x4F0 JUMP JUMPDEST PUSH1 0x60 SWAP2 POP JUMPDEST POP POP SWAP1 POP DUP1 PUSH2 0x536 JUMPI PUSH1 0x40 MLOAD PUSH3 0x461BCD PUSH1 0xE5 SHL DUP2 MSTORE PUSH1 0x20 PUSH1 0x4 DUP3 ADD MSTORE PUSH1 0x12 PUSH1 0x24 DUP3 ADD MSTORE PUSH18 0x4661696C656420746F207769746864726177 PUSH1 0x70 SHL PUSH1 0x44 DUP3 ADD MSTORE PUSH1 0x64 ADD PUSH2 0x3D7 JUMP JUMPDEST POP POP POP JUMP JUMPDEST PUSH2 0x543 PUSH2 0x9C2 JUMP JUMPDEST PUSH2 0x54C PUSH0 PUSH2 0x9EE JUMP JUMPDEST JUMP JUMPDEST PUSH0 PUSH2 0x557 PUSH2 0x9C2 JUMP JUMPDEST PUSH1 0x1 PUSH1 0x1 PUSH1 0x40 SHL SUB DUP8 AND PUSH0 SWAP1 DUP2 MSTORE PUSH1 0x2 PUSH1 0x20 MSTORE PUSH1 0x40 SWAP1 KECCAK256 SLOAD DUP8 SWAP1 PUSH1 0xFF AND PUSH2 0x59C JUMPI PUSH1 0x40 MLOAD PUSH4 0x206ABAD7 PUSH1 0xE0 SHL DUP2 MSTORE PUSH1 0x1 PUSH1 0x1 PUSH1 0x40 SHL SUB DUP3 AND PUSH1 0x4 DUP3 ADD MSTORE PUSH1 0x24 ADD PUSH2 0x3D7 JUMP JUMPDEST DUP7 PUSH1 0x1 PUSH1 0x1 PUSH1 0xA0 SHL SUB DUP2 AND PUSH2 0x5C4 JUMPI PUSH1 0x40 MLOAD PUSH4 0x502FFA3F PUSH1 0xE1 SHL DUP2 MSTORE PUSH1 0x4 ADD PUSH1 0x40 MLOAD DUP1 SWAP2 SUB SWAP1 REVERT JUMPDEST PUSH1 0x40 MLOAD PUSH4 0x938FFD85 PUSH1 0xE0 SHL DUP2 MSTORE PUSH1 0x1 PUSH1 0x1 PUSH1 0xA0 SHL SUB PUSH32 0x0 AND SWAP1 PUSH4 0x938FFD85 SWAP1 PUSH2 0x616 SWAP1 DUP11 SWAP1 DUP11 SWAP1 DUP11 SWAP1 DUP11 SWAP1 PUSH1 0x4 ADD PUSH2 0xE92 JUMP JUMPDEST PUSH0 PUSH1 0x40 MLOAD DUP1 DUP4 SUB DUP2 PUSH0 DUP8 DUP1 EXTCODESIZE ISZERO DUP1 ISZERO PUSH2 0x62D JUMPI PUSH0 DUP1 REVERT JUMPDEST POP GAS CALL ISZERO DUP1 ISZERO PUSH2 0x63F JUMPI RETURNDATASIZE PUSH0 DUP1 RETURNDATACOPY RETURNDATASIZE PUSH0 REVERT JUMPDEST POP POP POP POP PUSH0 PUSH1 0x40 MLOAD DUP1 PUSH1 0x80 ADD PUSH1 0x40 MSTORE DUP1 DUP10 PUSH1 0x1 PUSH1 0x1 PUSH1 0xA0 SHL SUB AND DUP2 MSTORE PUSH1 0x20 ADD DUP9 PUSH2 0x668 SWAP1 PUSH2 0xFF1 JUMP JUMPDEST DUP2 MSTORE PUSH1 0x20 ADD DUP8 DUP8 DUP1 DUP1 PUSH1 0x1F ADD PUSH1 0x20 DUP1 SWAP2 DIV MUL PUSH1 0x20 ADD PUSH1 0x40 MLOAD SWAP1 DUP2 ADD PUSH1 0x40 MSTORE DUP1 SWAP4 SWAP3 SWAP2 SWAP1 DUP2 DUP2 MSTORE PUSH1 0x20 ADD DUP4 DUP4 DUP1 DUP3 DUP5 CALLDATACOPY PUSH0 SWAP3 ADD DUP3 SWAP1 MSTORE POP SWAP4 DUP6 MSTORE POP POP TIMESTAMP PUSH1 0x20 SWAP4 DUP5 ADD MSTORE POP PUSH1 0x40 MLOAD SWAP3 SWAP4 POP SWAP2 PUSH2 0x6C0 SWAP2 DUP4 SWAP2 DUP6 SWAP2 ADD PUSH2 0x119D JUMP JUMPDEST PUSH1 0x40 MLOAD PUSH1 0x20 DUP2 DUP4 SUB SUB DUP2 MSTORE SWAP1 PUSH1 0x40 MSTORE SWAP1 POP TIMESTAMP DUP2 PUSH1 0x40 MLOAD PUSH1 0x20 ADD PUSH2 0x6E4 SWAP3 SWAP2 SWAP1 PUSH2 0x1221 JUMP JUMPDEST PUSH1 0x40 MLOAD PUSH1 0x20 DUP2 DUP4 SUB SUB DUP2 MSTORE SWAP1 PUSH1 0x40 MSTORE DUP1 MLOAD SWAP1 PUSH1 0x20 ADD KECCAK256 SWAP5 POP DUP11 PUSH1 0x1 PUSH1 0x1 PUSH1 0x40 SHL SUB AND DUP6 PUSH32 0xBCE6A2C2C43067D8A6D6604A7339727CF8CA343D9FD153381E257848AFA1F97C DUP13 DUP5 PUSH0 PUSH1 0x40 MLOAD PUSH2 0x73A SWAP4 SWAP3 SWAP2 SWAP1 PUSH2 0x1246 JUMP JUMPDEST PUSH1 0x40 MLOAD DUP1 SWAP2 SUB SWAP1 LOG3 DUP9 PUSH1 0x1 PUSH1 0x1 PUSH1 0xA0 SHL SUB AND DUP12 PUSH1 0x1 PUSH1 0x1 PUSH1 0x40 SHL SUB AND PUSH32 0xE44B4FE5171333420F2ABA6CF10010B31C6B5E7F20F3B6FDCCADD168EB824BE3 TIMESTAMP PUSH1 0x40 MLOAD PUSH2 0x787 SWAP2 DUP2 MSTORE PUSH1 0x20 ADD SWAP1 JUMP JUMPDEST PUSH1 0x40 MLOAD DUP1 SWAP2 SUB SWAP1 LOG3 POP POP POP POP SWAP7 SWAP6 POP POP POP POP POP POP JUMP JUMPDEST PUSH2 0x7A5 PUSH2 0x9C2 JUMP JUMPDEST PUSH1 0x1 PUSH1 0x1 PUSH1 0x40 SHL SUB SWAP2 SWAP1 SWAP2 AND PUSH0 SWAP1 DUP2 MSTORE PUSH1 0x2 PUSH1 0x20 MSTORE PUSH1 0x40 SWAP1 KECCAK256 DUP1 SLOAD PUSH1 0xFF NOT AND SWAP2 ISZERO ISZERO SWAP2 SWAP1 SWAP2 OR SWAP1 SSTORE JUMP JUMPDEST PUSH1 0x1 SLOAD PUSH1 0x1 PUSH1 0x1 PUSH1 0xA0 SHL SUB AND CALLER EQ PUSH2 0x81C JUMPI PUSH1 0x40 MLOAD PUSH3 0x461BCD PUSH1 0xE5 SHL DUP2 MSTORE PUSH1 0x20 PUSH1 0x4 DUP3 ADD MSTORE PUSH1 0x10 PUSH1 0x24 DUP3 ADD MSTORE PUSH16 0x27B7363C9021A1A4A8103937BABA32B9 PUSH1 0x81 SHL PUSH1 0x44 DUP3 ADD MSTORE PUSH1 0x64 ADD PUSH2 0x3D7 JUMP JUMPDEST PUSH1 0x1 PUSH1 0x1 PUSH1 0x40 SHL SUB DUP5 AND PUSH0 SWAP1 DUP2 MSTORE PUSH1 0x2 PUSH1 0x20 MSTORE PUSH1 0x40 SWAP1 KECCAK256 SLOAD PUSH1 0xFF AND PUSH2 0x85F JUMPI PUSH1 0x40 MLOAD PUSH4 0x42784CF PUSH1 0xE3 SHL DUP2 MSTORE PUSH1 0x1 PUSH1 0x1 PUSH1 0x40 SHL SUB DUP6 AND PUSH1 0x4 DUP3 ADD MSTORE PUSH1 0x24 ADD PUSH2 0x3D7 JUMP JUMPDEST PUSH1 0x1 PUSH1 0x1 PUSH1 0xA0 SHL SUB DUP4 AND PUSH0 SWAP1 DUP2 MSTORE PUSH1 0x3 PUSH1 0x20 MSTORE PUSH1 0x40 SWAP1 KECCAK256 SLOAD PUSH1 0xFF AND PUSH2 0x8A2 JUMPI PUSH1 0x40 MLOAD PUSH4 0x68692CBB PUSH1 0xE1 SHL DUP2 MSTORE PUSH1 0x1 PUSH1 0x1 PUSH1 0xA0 SHL SUB DUP5 AND PUSH1 0x4 DUP3 ADD MSTORE PUSH1 0x24 ADD PUSH2 0x3D7 JUMP JUMPDEST PUSH0 DUP1 PUSH2 0x8B0 DUP4 DUP6 ADD DUP6 PUSH2 0x129F JUMP JUMPDEST SWAP1 SWAP3 POP SWAP1 POP PUSH0 DUP3 PUSH1 0x2 DUP2 GT ISZERO PUSH2 0x8C8 JUMPI PUSH2 0x8C8 PUSH2 0x10C2 JUMP JUMPDEST SUB PUSH2 0x8D6 JUMPI PUSH2 0x8D6 DUP2 PUSH2 0xA3D JUMP JUMPDEST PUSH0 TIMESTAMP DUP6 DUP6 PUSH1 0x40 MLOAD PUSH1 0x20 ADD PUSH2 0x8EC SWAP4 SWAP3 SWAP2 SWAP1 PUSH2 0x1334 JUMP JUMPDEST PUSH1 0x40 MLOAD PUSH1 0x20 DUP2 DUP4 SUB SUB DUP2 MSTORE SWAP1 PUSH1 0x40 MSTORE DUP1 MLOAD SWAP1 PUSH1 0x20 ADD KECCAK256 SWAP1 POP DUP7 PUSH1 0x1 PUSH1 0x1 PUSH1 0x40 SHL SUB AND DUP2 PUSH32 0x4ADD8C8902D6FD412FED639BF652D936405BBB837C732A202153C91E89EBFAA7 DUP9 DUP9 DUP9 PUSH1 0x40 MLOAD PUSH2 0x942 SWAP4 SWAP3 SWAP2 SWAP1 PUSH2 0x134D JUMP JUMPDEST PUSH1 0x40 MLOAD DUP1 SWAP2 SUB SWAP1 LOG3 POP POP POP POP POP POP POP JUMP JUMPDEST PUSH2 0x95B PUSH2 0x9C2 JUMP JUMPDEST PUSH1 0x1 PUSH1 0x1 PUSH1 0xA0 SHL SUB SWAP2 SWAP1 SWAP2 AND PUSH0 SWAP1 DUP2 MSTORE PUSH1 0x3 PUSH1 0x20 MSTORE PUSH1 0x40 SWAP1 KECCAK256 DUP1 SLOAD PUSH1 0xFF NOT AND SWAP2 ISZERO ISZERO SWAP2 SWAP1 SWAP2 OR SWAP1 SSTORE JUMP JUMPDEST PUSH2 0x98D PUSH2 0x9C2 JUMP JUMPDEST PUSH1 0x1 PUSH1 0x1 PUSH1 0xA0 SHL SUB DUP2 AND PUSH2 0x9B6 JUMPI PUSH1 0x40 MLOAD PUSH4 0x1E4FBDF7 PUSH1 0xE0 SHL DUP2 MSTORE PUSH0 PUSH1 0x4 DUP3 ADD MSTORE PUSH1 0x24 ADD PUSH2 0x3D7 JUMP JUMPDEST PUSH2 0x9BF DUP2 PUSH2 0x9EE JUMP JUMPDEST POP JUMP JUMPDEST PUSH0 SLOAD PUSH1 0x1 PUSH1 0x1 PUSH1 0xA0 SHL SUB AND CALLER EQ PUSH2 0x54C JUMPI PUSH1 0x40 MLOAD PUSH4 0x118CDAA7 PUSH1 0xE0 SHL DUP2 MSTORE CALLER PUSH1 0x4 DUP3 ADD MSTORE PUSH1 0x24 ADD PUSH2 0x3D7 JUMP JUMPDEST PUSH0 DUP1 SLOAD PUSH1 0x1 PUSH1 0x1 PUSH1 0xA0 SHL SUB DUP4 DUP2 AND PUSH1 0x1 PUSH1 0x1 PUSH1 0xA0 SHL SUB NOT DUP4 AND DUP2 OR DUP5 SSTORE PUSH1 0x40 MLOAD SWAP2 SWAP1 SWAP3 AND SWAP3 DUP4 SWAP2 PUSH32 0x8BE0079C531659141344CD1FD0A4F28419497F9722A3DAAFE3B4186F6B6457E0 SWAP2 SWAP1 LOG3 POP POP JUMP JUMPDEST PUSH0 DUP2 DUP1 PUSH1 0x20 ADD SWAP1 MLOAD DUP2 ADD SWAP1 PUSH2 0xA52 SWAP2 SWAP1 PUSH2 0x13C6 JUMP JUMPDEST SWAP1 POP DUP1 PUSH1 0x60 ADD MLOAD PUSH2 0xE10 PUSH2 0xA66 SWAP2 SWAP1 PUSH2 0x1529 JUMP JUMPDEST TIMESTAMP GT ISZERO PUSH2 0xAB5 JUMPI PUSH1 0x40 MLOAD PUSH3 0x461BCD PUSH1 0xE5 SHL DUP2 MSTORE PUSH1 0x20 PUSH1 0x4 DUP3 ADD MSTORE PUSH1 0x18 PUSH1 0x24 DUP3 ADD MSTORE PUSH32 0x506172616D657465722075706461746520746F6F206F6C640000000000000000 PUSH1 0x44 DUP3 ADD MSTORE PUSH1 0x64 ADD PUSH2 0x3D7 JUMP JUMPDEST DUP1 MLOAD PUSH1 0x20 DUP3 ADD MLOAD PUSH1 0x40 DUP1 DUP5 ADD MLOAD SWAP1 MLOAD PUSH4 0x938FFD85 PUSH1 0xE0 SHL DUP2 MSTORE PUSH1 0x1 PUSH1 0x1 PUSH1 0xA0 SHL SUB PUSH32 0x0 AND SWAP4 PUSH4 0x938FFD85 SWAP4 PUSH2 0xB10 SWAP4 SWAP2 SWAP3 SWAP1 SWAP2 SWAP1 PUSH1 0x4 ADD PUSH2 0x154E JUMP JUMPDEST PUSH0 PUSH1 0x40 MLOAD DUP1 DUP4 SUB DUP2 PUSH0 DUP8 DUP1 EXTCODESIZE ISZERO DUP1 ISZERO PUSH2 0xB27 JUMPI PUSH0 DUP1 REVERT JUMPDEST POP GAS CALL SWAP3 POP POP POP DUP1 ISZERO PUSH2 0xB38 JUMPI POP PUSH1 0x1 JUMPDEST PUSH2 0xB6D JUMPI PUSH2 0xB44 PUSH2 0x158D JUMP JUMPDEST DUP1 PUSH4 0x8C379A0 SUB PUSH2 0xB63 JUMPI POP PUSH2 0xB58 PUSH2 0x15A6 JUMP JUMPDEST DUP1 PUSH2 0x536 JUMPI POP PUSH2 0xB65 JUMP JUMPDEST POP JUMPDEST RETURNDATASIZE PUSH0 DUP1 RETURNDATACOPY RETURNDATASIZE PUSH0 REVERT JUMPDEST DUP1 PUSH0 ADD MLOAD PUSH1 0x1 PUSH1 0x1 PUSH1 0xA0 SHL SUB AND PUSH0 PUSH32 0xE44B4FE5171333420F2ABA6CF10010B31C6B5E7F20F3B6FDCCADD168EB824BE3 DUP4 PUSH1 0x60 ADD MLOAD PUSH1 0x40 MLOAD PUSH2 0xBB0 SWAP2 DUP2 MSTORE PUSH1 0x20 ADD SWAP1 JUMP JUMPDEST PUSH1 0x40 MLOAD DUP1 SWAP2 SUB SWAP1 LOG3 POP POP JUMP JUMPDEST DUP1 CALLDATALOAD PUSH1 0x1 PUSH1 0x1 PUSH1 0x40 SHL SUB DUP2 AND DUP2 EQ PUSH2 0xBD2 JUMPI PUSH0 DUP1 REVERT JUMPDEST SWAP2 SWAP1 POP JUMP JUMPDEST PUSH0 PUSH1 0x20 DUP3 DUP5 SUB SLT ISZERO PUSH2 0xBE7 JUMPI PUSH0 DUP1 REVERT JUMPDEST PUSH2 0xBF0 DUP3 PUSH2 0xBBC JUMP JUMPDEST SWAP4 SWAP3 POP POP POP JUMP JUMPDEST PUSH1 0x1 PUSH1 0x1 PUSH1 0xA0 SHL SUB DUP2 AND DUP2 EQ PUSH2 0x9BF JUMPI PUSH0 DUP1 REVERT JUMPDEST PUSH0 PUSH1 0x20 DUP3 DUP5 SUB SLT ISZERO PUSH2 0xC1B JUMPI PUSH0 DUP1 REVERT JUMPDEST DUP2 CALLDATALOAD PUSH2 0xBF0 DUP2 PUSH2 0xBF7 JUMP JUMPDEST PUSH0 DUP1 PUSH1 0x40 DUP4 DUP6 SUB SLT ISZERO PUSH2 0xC37 JUMPI PUSH0 DUP1 REVERT JUMPDEST DUP3 CALLDATALOAD PUSH2 0xC42 DUP2 PUSH2 0xBF7 JUMP JUMPDEST SWAP2 POP PUSH1 0x20 DUP4 ADD CALLDATALOAD PUSH2 0xC52 DUP2 PUSH2 0xBF7 JUMP JUMPDEST DUP1 SWAP2 POP POP SWAP3 POP SWAP3 SWAP1 POP JUMP JUMPDEST PUSH0 DUP1 DUP4 PUSH1 0x1F DUP5 ADD SLT PUSH2 0xC6D JUMPI PUSH0 DUP1 REVERT JUMPDEST POP DUP2 CALLDATALOAD PUSH1 0x1 PUSH1 0x1 PUSH1 0x40 SHL SUB DUP2 GT ISZERO PUSH2 0xC83 JUMPI PUSH0 DUP1 REVERT JUMPDEST PUSH1 0x20 DUP4 ADD SWAP2 POP DUP4 PUSH1 0x20 DUP3 DUP6 ADD ADD GT ISZERO PUSH2 0xC9A JUMPI PUSH0 DUP1 REVERT JUMPDEST SWAP3 POP SWAP3 SWAP1 POP JUMP JUMPDEST PUSH0 DUP1 PUSH0 DUP1 PUSH0 DUP1 PUSH1 0xA0 DUP8 DUP10 SUB SLT ISZERO PUSH2 0xCB6 JUMPI PUSH0 DUP1 REVERT JUMPDEST PUSH2 0xCBF DUP8 PUSH2 0xBBC JUMP JUMPDEST SWAP6 POP PUSH1 0x20 DUP8 ADD CALLDATALOAD PUSH2 0xCCF DUP2 PUSH2 0xBF7 JUMP JUMPDEST SWAP5 POP PUSH1 0x40 DUP8 ADD CALLDATALOAD PUSH2 0xCDF DUP2 PUSH2 0xBF7 JUMP JUMPDEST SWAP4 POP PUSH1 0x60 DUP8 ADD CALLDATALOAD PUSH1 0x1 PUSH1 0x1 PUSH1 0x40 SHL SUB DUP1 DUP3 GT ISZERO PUSH2 0xCFA JUMPI PUSH0 DUP1 REVERT JUMPDEST SWAP1 DUP9 ADD SWAP1 PUSH1 0xA0 DUP3 DUP12 SUB SLT ISZERO PUSH2 0xD0D JUMPI PUSH0 DUP1 REVERT JUMPDEST SWAP1 SWAP4 POP PUSH1 0x80 DUP9 ADD CALLDATALOAD SWAP1 DUP1 DUP3 GT ISZERO PUSH2 0xD22 JUMPI PUSH0 DUP1 REVERT JUMPDEST POP PUSH2 0xD2F DUP10 DUP3 DUP11 ADD PUSH2 0xC5D JUMP JUMPDEST SWAP8 SWAP11 SWAP7 SWAP10 POP SWAP5 SWAP8 POP SWAP3 SWAP6 SWAP4 SWAP5 SWAP3 POP POP POP JUMP JUMPDEST DUP1 ISZERO ISZERO DUP2 EQ PUSH2 0x9BF JUMPI PUSH0 DUP1 REVERT JUMPDEST DUP1 CALLDATALOAD PUSH2 0xBD2 DUP2 PUSH2 0xD41 JUMP JUMPDEST PUSH0 DUP1 PUSH1 0x40 DUP4 DUP6 SUB SLT ISZERO PUSH2 0xD6A JUMPI PUSH0 DUP1 REVERT JUMPDEST PUSH2 0xD73 DUP4 PUSH2 0xBBC JUMP JUMPDEST SWAP2 POP PUSH1 0x20 DUP4 ADD CALLDATALOAD PUSH2 0xC52 DUP2 PUSH2 0xD41 JUMP JUMPDEST PUSH0 DUP1 PUSH0 DUP1 PUSH1 0x60 DUP6 DUP8 SUB SLT ISZERO PUSH2 0xD96 JUMPI PUSH0 DUP1 REVERT JUMPDEST PUSH2 0xD9F DUP6 PUSH2 0xBBC JUMP JUMPDEST SWAP4 POP PUSH1 0x20 DUP6 ADD CALLDATALOAD PUSH2 0xDAF DUP2 PUSH2 0xBF7 JUMP JUMPDEST SWAP3 POP PUSH1 0x40 DUP6 ADD CALLDATALOAD PUSH1 0x1 PUSH1 0x1 PUSH1 0x40 SHL SUB DUP2 GT ISZERO PUSH2 0xDC9 JUMPI PUSH0 DUP1 REVERT JUMPDEST PUSH2 0xDD5 DUP8 DUP3 DUP9 ADD PUSH2 0xC5D JUMP JUMPDEST SWAP6 SWAP9 SWAP5 SWAP8 POP SWAP6 POP POP POP POP JUMP JUMPDEST PUSH0 DUP1 PUSH1 0x40 DUP4 DUP6 SUB SLT ISZERO PUSH2 0xDF2 JUMPI PUSH0 DUP1 REVERT JUMPDEST DUP3 CALLDATALOAD PUSH2 0xD73 DUP2 PUSH2 0xBF7 JUMP JUMPDEST PUSH0 PUSH1 0x20 DUP3 DUP5 SUB SLT ISZERO PUSH2 0xE0D JUMPI PUSH0 DUP1 REVERT JUMPDEST POP MLOAD SWAP2 SWAP1 POP JUMP JUMPDEST DUP1 MLOAD PUSH2 0xBD2 DUP2 PUSH2 0xD41 JUMP JUMPDEST PUSH0 PUSH1 0x20 DUP3 DUP5 SUB SLT ISZERO PUSH2 0xE2F JUMPI PUSH0 DUP1 REVERT JUMPDEST DUP2 MLOAD PUSH2 0xBF0 DUP2 PUSH2 0xD41 JUMP JUMPDEST DUP2 DUP4 MSTORE PUSH0 PUSH1 0x1 PUSH1 0x1 PUSH1 0xFB SHL SUB DUP4 GT ISZERO PUSH2 0xE51 JUMPI PUSH0 DUP1 REVERT JUMPDEST DUP3 PUSH1 0x5 SHL DUP1 DUP4 PUSH1 0x20 DUP8 ADD CALLDATACOPY SWAP4 SWAP1 SWAP4 ADD PUSH1 0x20 ADD SWAP4 SWAP3 POP POP POP JUMP JUMPDEST DUP2 DUP4 MSTORE DUP2 DUP2 PUSH1 0x20 DUP6 ADD CALLDATACOPY POP PUSH0 DUP3 DUP3 ADD PUSH1 0x20 SWAP1 DUP2 ADD SWAP2 SWAP1 SWAP2 MSTORE PUSH1 0x1F SWAP1 SWAP2 ADD PUSH1 0x1F NOT AND SWAP1 SWAP2 ADD ADD SWAP1 JUMP JUMPDEST PUSH1 0x1 DUP1 PUSH1 0xA0 SHL SUB DUP6 AND DUP2 MSTORE PUSH1 0x60 PUSH1 0x20 DUP3 ADD MSTORE DUP4 CALLDATALOAD PUSH1 0x60 DUP3 ADD MSTORE PUSH1 0x20 DUP5 ADD CALLDATALOAD PUSH1 0x80 DUP3 ADD MSTORE PUSH0 PUSH1 0x40 DUP6 ADD CALLDATALOAD PUSH1 0x1E NOT DUP7 CALLDATASIZE SUB ADD DUP2 SLT PUSH2 0xECC JUMPI PUSH0 DUP1 REVERT JUMPDEST DUP6 ADD PUSH1 0x20 DUP2 ADD SWAP1 CALLDATALOAD PUSH1 0x1 PUSH1 0x1 PUSH1 0x40 SHL SUB DUP2 GT ISZERO PUSH2 0xEE7 JUMPI PUSH0 DUP1 REVERT JUMPDEST DUP1 PUSH1 0x5 SHL CALLDATASIZE SUB DUP3 SGT ISZERO PUSH2 0xEF8 JUMPI PUSH0 DUP1 REVERT JUMPDEST PUSH1 0xA0 DUP1 DUP6 ADD MSTORE PUSH2 0xF0D PUSH2 0x100 DUP6 ADD DUP3 DUP5 PUSH2 0xE3A JUMP JUMPDEST SWAP2 POP POP PUSH1 0x60 DUP7 ADD CALLDATALOAD PUSH1 0xC0 DUP5 ADD MSTORE PUSH2 0xF26 PUSH1 0x80 DUP8 ADD PUSH2 0xD4E JUMP JUMPDEST ISZERO ISZERO PUSH1 0xE0 DUP5 ADD MSTORE DUP3 DUP2 SUB PUSH1 0x40 DUP5 ADD MSTORE PUSH2 0xF40 DUP2 DUP6 DUP8 PUSH2 0xE6A JUMP JUMPDEST SWAP8 SWAP7 POP POP POP POP POP POP POP JUMP JUMPDEST PUSH4 0x4E487B71 PUSH1 0xE0 SHL PUSH0 MSTORE PUSH1 0x41 PUSH1 0x4 MSTORE PUSH1 0x24 PUSH0 REVERT JUMPDEST PUSH1 0xA0 DUP2 ADD DUP2 DUP2 LT PUSH1 0x1 PUSH1 0x1 PUSH1 0x40 SHL SUB DUP3 GT OR ISZERO PUSH2 0xF7E JUMPI PUSH2 0xF7E PUSH2 0xF4B JUMP JUMPDEST PUSH1 0x40 MSTORE POP JUMP JUMPDEST PUSH1 0x80 DUP2 ADD DUP2 DUP2 LT PUSH1 0x1 PUSH1 0x1 PUSH1 0x40 SHL SUB DUP3 GT OR ISZERO PUSH2 0xF7E JUMPI PUSH2 0xF7E PUSH2 0xF4B JUMP JUMPDEST PUSH1 0x1F DUP3 ADD PUSH1 0x1F NOT AND DUP2 ADD PUSH1 0x1 PUSH1 0x1 PUSH1 0x40 SHL SUB DUP2 GT DUP3 DUP3 LT OR ISZERO PUSH2 0xFC8 JUMPI PUSH2 0xFC8 PUSH2 0xF4B JUMP JUMPDEST PUSH1 0x40 MSTORE POP POP JUMP JUMPDEST PUSH0 PUSH1 0x1 PUSH1 0x1 PUSH1 0x40 SHL SUB DUP3 GT ISZERO PUSH2 0xFE7 JUMPI PUSH2 0xFE7 PUSH2 0xF4B JUMP JUMPDEST POP PUSH1 0x5 SHL PUSH1 0x20 ADD SWAP1 JUMP JUMPDEST PUSH0 PUSH1 0xA0 DUP3 CALLDATASIZE SUB SLT ISZERO PUSH2 0x1001 JUMPI PUSH0 DUP1 REVERT JUMPDEST PUSH1 0x40 MLOAD PUSH2 0x100D DUP2 PUSH2 0xF5F JUMP JUMPDEST DUP3 CALLDATALOAD DUP2 MSTORE PUSH1 0x20 DUP1 DUP5 ADD CALLDATALOAD DUP2 DUP4 ADD MSTORE PUSH1 0x40 DUP5 ADD CALLDATALOAD PUSH1 0x1 PUSH1 0x1 PUSH1 0x40 SHL SUB DUP2 GT ISZERO PUSH2 0x1033 JUMPI PUSH0 DUP1 REVERT JUMPDEST DUP5 ADD CALLDATASIZE PUSH1 0x1F DUP3 ADD SLT PUSH2 0x1043 JUMPI PUSH0 DUP1 REVERT JUMPDEST DUP1 CALLDATALOAD PUSH2 0x104E DUP2 PUSH2 0xFCF JUMP JUMPDEST PUSH1 0x40 MLOAD PUSH2 0x105B DUP3 DUP3 PUSH2 0xFA3 JUMP JUMPDEST DUP3 DUP2 MSTORE PUSH1 0x5 SWAP3 SWAP1 SWAP3 SHL DUP4 ADD DUP5 ADD SWAP2 DUP5 DUP2 ADD SWAP2 POP CALLDATASIZE DUP4 GT ISZERO PUSH2 0x107A JUMPI PUSH0 DUP1 REVERT JUMPDEST SWAP3 DUP5 ADD SWAP3 JUMPDEST DUP3 DUP5 LT ISZERO PUSH2 0x1098 JUMPI DUP4 CALLDATALOAD DUP3 MSTORE SWAP3 DUP5 ADD SWAP3 SWAP1 DUP5 ADD SWAP1 PUSH2 0x107F JUMP JUMPDEST PUSH1 0x40 DUP7 ADD MSTORE POP POP POP POP PUSH1 0x60 DUP4 DUP2 ADD CALLDATALOAD SWAP1 DUP3 ADD MSTORE PUSH2 0x10B7 PUSH1 0x80 DUP5 ADD PUSH2 0xD4E JUMP JUMPDEST PUSH1 0x80 DUP3 ADD MSTORE SWAP3 SWAP2 POP POP JUMP JUMPDEST PUSH4 0x4E487B71 PUSH1 0xE0 SHL PUSH0 MSTORE PUSH1 0x21 PUSH1 0x4 MSTORE PUSH1 0x24 PUSH0 REVERT JUMPDEST PUSH0 PUSH1 0xA0 DUP4 ADD DUP3 MLOAD DUP5 MSTORE PUSH1 0x20 DUP1 DUP5 ADD MLOAD PUSH1 0x20 DUP7 ADD MSTORE PUSH1 0x40 DUP5 ADD MLOAD PUSH1 0xA0 PUSH1 0x40 DUP8 ADD MSTORE DUP3 DUP2 MLOAD DUP1 DUP6 MSTORE PUSH1 0xC0 DUP9 ADD SWAP2 POP PUSH1 0x20 DUP4 ADD SWAP5 POP PUSH0 SWAP3 POP JUMPDEST DUP1 DUP4 LT ISZERO PUSH2 0x112C JUMPI DUP5 MLOAD DUP3 MSTORE SWAP4 DUP4 ADD SWAP4 PUSH1 0x1 SWAP3 SWAP1 SWAP3 ADD SWAP2 SWAP1 DUP4 ADD SWAP1 PUSH2 0x110C JUMP JUMPDEST POP PUSH1 0x60 DUP7 ADD MLOAD PUSH1 0x60 DUP9 ADD MSTORE PUSH1 0x80 DUP7 ADD MLOAD ISZERO ISZERO PUSH1 0x80 DUP9 ADD MSTORE DUP1 SWAP5 POP POP POP POP POP SWAP3 SWAP2 POP POP JUMP JUMPDEST PUSH0 JUMPDEST DUP4 DUP2 LT ISZERO PUSH2 0x116A JUMPI DUP2 DUP2 ADD MLOAD DUP4 DUP3 ADD MSTORE PUSH1 0x20 ADD PUSH2 0x1152 JUMP JUMPDEST POP POP PUSH0 SWAP2 ADD MSTORE JUMP JUMPDEST PUSH0 DUP2 MLOAD DUP1 DUP5 MSTORE PUSH2 0x1189 DUP2 PUSH1 0x20 DUP7 ADD PUSH1 0x20 DUP7 ADD PUSH2 0x1150 JUMP JUMPDEST PUSH1 0x1F ADD PUSH1 0x1F NOT AND SWAP3 SWAP1 SWAP3 ADD PUSH1 0x20 ADD SWAP3 SWAP2 POP POP JUMP JUMPDEST PUSH0 PUSH1 0x3 DUP5 LT PUSH2 0x11BA JUMPI PUSH4 0x4E487B71 PUSH1 0xE0 SHL PUSH0 MSTORE PUSH1 0x21 PUSH1 0x4 MSTORE PUSH1 0x24 PUSH0 REVERT JUMPDEST DUP4 DUP3 MSTORE PUSH1 0x40 PUSH1 0x20 DUP4 ADD MSTORE PUSH1 0x1 DUP1 PUSH1 0xA0 SHL SUB DUP4 MLOAD AND PUSH1 0x40 DUP4 ADD MSTORE PUSH1 0x20 DUP4 ADD MLOAD PUSH1 0x80 PUSH1 0x60 DUP5 ADD MSTORE PUSH2 0x11EC PUSH1 0xC0 DUP5 ADD DUP3 PUSH2 0x10D6 JUMP JUMPDEST SWAP1 POP PUSH1 0x40 DUP5 ADD MLOAD PUSH1 0x3F NOT DUP5 DUP4 SUB ADD PUSH1 0x80 DUP6 ADD MSTORE PUSH2 0x1209 DUP3 DUP3 PUSH2 0x1172 JUMP JUMPDEST SWAP2 POP POP PUSH1 0x60 DUP5 ADD MLOAD PUSH1 0xA0 DUP5 ADD MSTORE DUP1 SWAP2 POP POP SWAP4 SWAP3 POP POP POP JUMP JUMPDEST DUP3 DUP2 MSTORE PUSH0 DUP3 MLOAD PUSH2 0x1238 DUP2 PUSH1 0x20 DUP6 ADD PUSH1 0x20 DUP8 ADD PUSH2 0x1150 JUMP JUMPDEST SWAP2 SWAP1 SWAP2 ADD PUSH1 0x20 ADD SWAP4 SWAP3 POP POP POP JUMP JUMPDEST PUSH1 0x1 PUSH1 0x1 PUSH1 0xA0 SHL SUB DUP5 AND DUP2 MSTORE PUSH1 0x60 PUSH1 0x20 DUP3 ADD DUP2 SWAP1 MSTORE PUSH0 SWAP1 PUSH2 0x1269 SWAP1 DUP4 ADD DUP6 PUSH2 0x1172 JUMP JUMPDEST SWAP1 POP DUP3 PUSH1 0x40 DUP4 ADD MSTORE SWAP5 SWAP4 POP POP POP POP JUMP JUMPDEST PUSH0 PUSH1 0x1 PUSH1 0x1 PUSH1 0x40 SHL SUB DUP3 GT ISZERO PUSH2 0x1291 JUMPI PUSH2 0x1291 PUSH2 0xF4B JUMP JUMPDEST POP PUSH1 0x1F ADD PUSH1 0x1F NOT AND PUSH1 0x20 ADD SWAP1 JUMP JUMPDEST PUSH0 DUP1 PUSH1 0x40 DUP4 DUP6 SUB SLT ISZERO PUSH2 0x12B0 JUMPI PUSH0 DUP1 REVERT JUMPDEST DUP3 CALLDATALOAD PUSH1 0x3 DUP2 LT PUSH2 0x12BE JUMPI PUSH0 DUP1 REVERT JUMPDEST SWAP2 POP PUSH1 0x20 DUP4 ADD CALLDATALOAD PUSH1 0x1 PUSH1 0x1 PUSH1 0x40 SHL SUB DUP2 GT ISZERO PUSH2 0x12D8 JUMPI PUSH0 DUP1 REVERT JUMPDEST DUP4 ADD PUSH1 0x1F DUP2 ADD DUP6 SGT PUSH2 0x12E8 JUMPI PUSH0 DUP1 REVERT JUMPDEST DUP1 CALLDATALOAD PUSH2 0x12F3 DUP2 PUSH2 0x1279 JUMP JUMPDEST PUSH1 0x40 MLOAD PUSH2 0x1300 DUP3 DUP3 PUSH2 0xFA3 JUMP JUMPDEST DUP3 DUP2 MSTORE DUP8 PUSH1 0x20 DUP5 DUP7 ADD ADD GT ISZERO PUSH2 0x1314 JUMPI PUSH0 DUP1 REVERT JUMPDEST DUP3 PUSH1 0x20 DUP6 ADD PUSH1 0x20 DUP4 ADD CALLDATACOPY PUSH0 PUSH1 0x20 DUP5 DUP4 ADD ADD MSTORE DUP1 SWAP5 POP POP POP POP POP SWAP3 POP SWAP3 SWAP1 POP JUMP JUMPDEST DUP4 DUP2 MSTORE DUP2 DUP4 PUSH1 0x20 DUP4 ADD CALLDATACOPY PUSH0 SWAP2 ADD PUSH1 0x20 ADD SWAP1 DUP2 MSTORE SWAP3 SWAP2 POP POP JUMP JUMPDEST PUSH1 0x1 PUSH1 0x1 PUSH1 0xA0 SHL SUB DUP5 AND DUP2 MSTORE PUSH1 0x40 PUSH1 0x20 DUP3 ADD DUP2 SWAP1 MSTORE PUSH0 SWAP1 PUSH2 0x1371 SWAP1 DUP4 ADD DUP5 DUP7 PUSH2 0xE6A JUMP JUMPDEST SWAP6 SWAP5 POP POP POP POP POP JUMP JUMPDEST PUSH0 DUP3 PUSH1 0x1F DUP4 ADD SLT PUSH2 0x1389 JUMPI PUSH0 DUP1 REVERT JUMPDEST DUP2 MLOAD PUSH2 0x1394 DUP2 PUSH2 0x1279 JUMP JUMPDEST PUSH1 0x40 MLOAD PUSH2 0x13A1 DUP3 DUP3 PUSH2 0xFA3 JUMP JUMPDEST DUP3 DUP2 MSTORE DUP6 PUSH1 0x20 DUP5 DUP8 ADD ADD GT ISZERO PUSH2 0x13B5 JUMPI PUSH0 DUP1 REVERT JUMPDEST PUSH2 0x1371 DUP4 PUSH1 0x20 DUP4 ADD PUSH1 0x20 DUP9 ADD PUSH2 0x1150 JUMP JUMPDEST PUSH0 PUSH1 0x20 DUP1 DUP4 DUP6 SUB SLT ISZERO PUSH2 0x13D7 JUMPI PUSH0 DUP1 REVERT JUMPDEST DUP3 MLOAD PUSH1 0x1 PUSH1 0x1 PUSH1 0x40 SHL SUB DUP1 DUP3 GT ISZERO PUSH2 0x13ED JUMPI PUSH0 DUP1 REVERT JUMPDEST SWAP1 DUP5 ADD SWAP1 PUSH1 0x80 DUP3 DUP8 SUB SLT ISZERO PUSH2 0x1400 JUMPI PUSH0 DUP1 REVERT JUMPDEST PUSH1 0x40 DUP1 MLOAD PUSH2 0x140D DUP2 PUSH2 0xF84 JUMP JUMPDEST DUP4 MLOAD PUSH2 0x1418 DUP2 PUSH2 0xBF7 JUMP JUMPDEST DUP2 MSTORE DUP4 DUP6 ADD MLOAD DUP4 DUP2 GT ISZERO PUSH2 0x142A JUMPI PUSH0 DUP1 REVERT JUMPDEST DUP5 ADD PUSH1 0xA0 DUP2 DUP11 SUB SLT ISZERO PUSH2 0x143B JUMPI PUSH0 DUP1 REVERT JUMPDEST DUP3 MLOAD PUSH2 0x1446 DUP2 PUSH2 0xF5F JUMP JUMPDEST DUP2 MLOAD DUP2 MSTORE DUP7 DUP3 ADD MLOAD DUP8 DUP3 ADD MSTORE DUP4 DUP3 ADD MLOAD DUP6 DUP2 GT ISZERO PUSH2 0x1462 JUMPI PUSH0 DUP1 REVERT JUMPDEST DUP3 ADD PUSH1 0x1F DUP2 ADD DUP12 SGT PUSH2 0x1472 JUMPI PUSH0 DUP1 REVERT JUMPDEST DUP1 MLOAD PUSH2 0x147D DUP2 PUSH2 0xFCF JUMP JUMPDEST DUP7 MLOAD PUSH2 0x1489 DUP3 DUP3 PUSH2 0xFA3 JUMP JUMPDEST DUP3 DUP2 MSTORE PUSH1 0x5 SWAP3 SWAP1 SWAP3 SHL DUP4 ADD DUP11 ADD SWAP2 DUP11 DUP2 ADD SWAP2 POP DUP14 DUP4 GT ISZERO PUSH2 0x14A8 JUMPI PUSH0 DUP1 REVERT JUMPDEST SWAP3 DUP11 ADD SWAP3 JUMPDEST DUP3 DUP5 LT ISZERO PUSH2 0x14C6 JUMPI DUP4 MLOAD DUP3 MSTORE SWAP3 DUP11 ADD SWAP3 SWAP1 DUP11 ADD SWAP1 PUSH2 0x14AD JUMP JUMPDEST DUP5 DUP9 ADD MSTORE POP POP POP PUSH1 0x60 DUP3 DUP2 ADD MLOAD SWAP1 DUP3 ADD MSTORE PUSH2 0x14E3 PUSH1 0x80 DUP4 ADD PUSH2 0xE14 JUMP JUMPDEST PUSH1 0x80 DUP3 ADD MSTORE DUP1 DUP8 DUP5 ADD MSTORE POP POP DUP2 DUP5 ADD MLOAD SWAP5 POP DUP3 DUP6 GT ISZERO PUSH2 0x1501 JUMPI PUSH0 DUP1 REVERT JUMPDEST PUSH2 0x150D DUP9 DUP7 DUP7 ADD PUSH2 0x137A JUMP JUMPDEST DUP3 DUP3 ADD MSTORE PUSH1 0x60 DUP5 ADD MLOAD PUSH1 0x60 DUP3 ADD MSTORE DUP1 SWAP6 POP POP POP POP POP POP SWAP3 SWAP2 POP POP JUMP JUMPDEST DUP1 DUP3 ADD DUP1 DUP3 GT ISZERO PUSH2 0x1548 JUMPI PUSH4 0x4E487B71 PUSH1 0xE0 SHL PUSH0 MSTORE PUSH1 0x11 PUSH1 0x4 MSTORE PUSH1 0x24 PUSH0 REVERT JUMPDEST SWAP3 SWAP2 POP POP JUMP JUMPDEST PUSH1 0x1 PUSH1 0x1 PUSH1 0xA0 SHL SUB DUP5 AND DUP2 MSTORE PUSH1 0x60 PUSH1 0x20 DUP3 ADD DUP2 SWAP1 MSTORE PUSH0 SWAP1 PUSH2 0x1571 SWAP1 DUP4 ADD DUP6 PUSH2 0x10D6 JUMP JUMPDEST DUP3 DUP2 SUB PUSH1 0x40 DUP5 ADD MSTORE PUSH2 0x1583 DUP2 DUP6 PUSH2 0x1172 JUMP JUMPDEST SWAP7 SWAP6 POP POP POP POP POP POP JUMP JUMPDEST PUSH0 PUSH1 0x3 RETURNDATASIZE GT ISZERO PUSH2 0x15A3 JUMPI PUSH1 0x4 PUSH0 DUP1 RETURNDATACOPY POP PUSH0 MLOAD PUSH1 0xE0 SHR JUMPDEST SWAP1 JUMP JUMPDEST PUSH0 PUSH1 0x44 RETURNDATASIZE LT ISZERO PUSH2 0x15B3 JUMPI SWAP1 JUMP JUMPDEST PUSH1 0x40 MLOAD PUSH1 0x3 NOT RETURNDATASIZE DUP2 ADD PUSH1 0x4 DUP4 RETURNDATACOPY DUP2 MLOAD RETURNDATASIZE PUSH1 0x1 PUSH1 0x1 PUSH1 0x40 SHL SUB DUP2 PUSH1 0x24 DUP5 ADD GT DUP2 DUP5 GT OR ISZERO PUSH2 0x15E2 JUMPI POP POP POP POP POP SWAP1 JUMP JUMPDEST DUP3 DUP6 ADD SWAP2 POP DUP2 MLOAD DUP2 DUP2 GT ISZERO PUSH2 0x15FA JUMPI POP POP POP POP POP POP SWAP1 JUMP JUMPDEST DUP5 RETURNDATASIZE DUP8 ADD ADD PUSH1 0x20 DUP3 DUP6 ADD ADD GT ISZERO PUSH2 0x1614 JUMPI POP POP POP POP POP POP SWAP1 JUMP JUMPDEST PUSH2 0x1623 PUSH1 0x20 DUP3 DUP7 ADD ADD DUP8 PUSH2 0xFA3 JUMP JUMPDEST POP SWAP1 SWAP6 SWAP5 POP POP POP POP POP JUMP INVALID LOG2 PUSH5 0x6970667358 0x22 SLT KECCAK256 CREATE CHAINID PUSH26 0x18B0CA7D26A24B09974E69D1FCB83C6852DEE9F78B2F7D5BA11D MOD 0xCC 0xD1 PUSH5 0x736F6C6343 STOP ADDMOD AND STOP CALLER "},"methodIdentifiers":{"aimm()":"9e9236ec","allowlistDestinationChain(uint64,bool)":"96d3b83d","allowlistSender(address,bool)":"eab5b02c","allowlistedChains(uint64)":"0bb106eb","allowlistedSenders(address)":"6159ada1","ccipReceive(uint64,address,bytes)":"a9bfd470","ccipRouter()":"0de22984","owner()":"8da5cb5b","renounceOwnership()":"715018a6","sendParameterUpdate(uint64,address,address,(uint256,uint256,uint256[],uint256,bool),bytes)":"930e7716","setCCIPRouter(address)":"31c1e16a","transferOwnership(address)":"f2fde38b","withdraw(address)":"51cff8d9","withdrawToken(address,address)":"3aeac4e1"}}}}}