{"project/contracts/core/AIMM.sol":{"AIMM":{"abi":[{"inputs":[{"internalType":"address","name":"_aiAgent","type":"address"}],"stateMutability":"nonpayable","type":"constructor"},{"inputs":[],"name":"ECDSAInvalidSignature","type":"error"},{"inputs":[{"internalType":"uint256","name":"length","type":"uint256"}],"name":"ECDSAInvalidSignatureLength","type":"error"},{"inputs":[{"internalType":"bytes32","name":"s","type":"bytes32"}],"name":"ECDSAInvalidSignatureS","type":"error"},{"inputs":[{"internalType":"address","name":"owner","type":"address"}],"name":"OwnableInvalidOwner","type":"error"},{"inputs":[{"internalType":"address","name":"account","type":"address"}],"name":"OwnableUnauthorizedAccount","type":"error"},{"inputs":[{"internalType":"address","name":"token","type":"address"}],"name":"SafeERC20FailedOperation","type":"error"},{"anonymous":false,"inputs":[{"indexed":true,"internalType":"address","name":"oldAgent","type":"address"},{"indexed":true,"internalType":"address","name":"newAgent","type":"address"}],"name":"AIAgentUpdated","type":"event"},{"anonymous":false,"inputs":[{"indexed":true,"internalType":"address","name":"tokenA","type":"address"},{"indexed":true,"internalType":"address","name":"tokenB","type":"address"},{"indexed":false,"internalType":"uint256","name":"amountA","type":"uint256"},{"indexed":false,"internalType":"uint256","name":"amountB","type":"uint256"},{"indexed":false,"internalType":"uint256","name":"liquidity","type":"uint256"}],"name":"LiquidityAdded","type":"event"},{"anonymous":false,"inputs":[{"indexed":true,"internalType":"address","name":"previousOwner","type":"address"},{"indexed":true,"internalType":"address","name":"newOwner","type":"address"}],"name":"OwnershipTransferred","type":"event"},{"anonymous":false,"inputs":[{"indexed":true,"internalType":"address","name":"pool","type":"address"},{"components":[{"internalType":"uint256","name":"feeRate","type":"uint256"},{"internalType":"uint256","name":"spreadMultiplier","type":"uint256"},{"internalType":"uint256[]","name":"weights","type":"uint256[]"},{"internalType":"uint256","name":"lastUpdate","type":"uint256"},{"internalType":"bool","name":"isActive","type":"bool"}],"indexed":false,"internalType":"struct IAIMM.PoolParameters","name":"newParams","type":"tuple"},{"indexed":true,"internalType":"address","name":"aiAgent","type":"address"}],"name":"ParametersUpdated","type":"event"},{"anonymous":false,"inputs":[{"indexed":true,"internalType":"address","name":"tokenIn","type":"address"},{"indexed":true,"internalType":"address","name":"tokenOut","type":"address"},{"indexed":false,"internalType":"uint256","name":"amountIn","type":"uint256"},{"indexed":false,"internalType":"uint256","name":"amountOut","type":"uint256"},{"indexed":true,"internalType":"address","name":"to","type":"address"}],"name":"Swap","type":"event"},{"inputs":[],"name":"BASIS_POINTS","outputs":[{"internalType":"uint256","name":"","type":"uint256"}],"stateMutability":"view","type":"function"},{"inputs":[],"name":"MAX_FEE_RATE","outputs":[{"internalType":"uint256","name":"","type":"uint256"}],"stateMutability":"view","type":"function"},{"inputs":[],"name":"MIN_LIQUIDITY","outputs":[{"internalType":"uint256","name":"","type":"uint256"}],"stateMutability":"view","type":"function"},{"inputs":[{"internalType":"address","name":"tokenA","type":"address"},{"internalType":"address","name":"tokenB","type":"address"},{"internalType":"uint256","name":"amountA","type":"uint256"},{"internalType":"uint256","name":"amountB","type":"uint256"},{"internalType":"address","name":"to","type":"address"}],"name":"addLiquidity","outputs":[{"internalType":"uint256","name":"liquidity","type":"uint256"}],"stateMutability":"nonpayable","type":"function"},{"inputs":[],"name":"aiAgent","outputs":[{"internalType":"address","name":"","type":"address"}],"stateMutability":"view","type":"function"},{"inputs":[{"internalType":"address","name":"","type":"address"},{"internalType":"address","name":"","type":"address"}],"name":"balanceOf","outputs":[{"internalType":"uint256","name":"","type":"uint256"}],"stateMutability":"view","type":"function"},{"inputs":[{"internalType":"uint256","name":"amountIn","type":"uint256"},{"internalType":"address","name":"tokenIn","type":"address"},{"internalType":"address","name":"tokenOut","type":"address"}],"name":"getAmountOut","outputs":[{"internalType":"uint256","name":"amountOut","type":"uint256"}],"stateMutability":"view","type":"function"},{"inputs":[{"internalType":"address","name":"tokenA","type":"address"},{"internalType":"address","name":"tokenB","type":"address"}],"name":"getPairAddress","outputs":[{"internalType":"address","name":"","type":"address"}],"stateMutability":"pure","type":"function"},{"inputs":[],"name":"owner","outputs":[{"internalType":"address","name":"","type":"address"}],"stateMutability":"view","type":"function"},{"inputs":[{"internalType":"address","name":"","type":"address"}],"name":"poolParameters","outputs":[{"internalType":"uint256","name":"feeRate","type":"uint256"},{"internalType":"uint256","name":"spreadMultiplier","type":"uint256"},{"internalType":"uint256","name":"lastUpdate","type":"uint256"},{"internalType":"bool","name":"isActive","type":"bool"}],"stateMutability":"view","type":"function"},{"inputs":[],"name":"renounceOwnership","outputs":[],"stateMutability":"nonpayable","type":"function"},{"inputs":[{"internalType":"address","name":"","type":"address"},{"internalType":"address","name":"","type":"address"}],"name":"reserves","outputs":[{"internalType":"uint256","name":"","type":"uint256"}],"stateMutability":"view","type":"function"},{"inputs":[{"internalType":"address","name":"_aiAgent","type":"address"}],"name":"setAIAgent","outputs":[],"stateMutability":"nonpayable","type":"function"},{"inputs":[{"components":[{"internalType":"address","name":"tokenIn","type":"address"},{"internalType":"address","name":"tokenOut","type":"address"},{"internalType":"uint256","name":"amountIn","type":"uint256"},{"internalType":"uint256","name":"minAmountOut","type":"uint256"},{"internalType":"address","name":"to","type":"address"},{"internalType":"uint256","name":"deadline","type":"uint256"}],"internalType":"struct IAIMM.SwapParams","name":"params","type":"tuple"}],"name":"swap","outputs":[{"internalType":"uint256","name":"amountOut","type":"uint256"}],"stateMutability":"nonpayable","type":"function"},{"inputs":[{"internalType":"address","name":"","type":"address"}],"name":"totalSupply","outputs":[{"internalType":"uint256","name":"","type":"uint256"}],"stateMutability":"view","type":"function"},{"inputs":[{"internalType":"address","name":"newOwner","type":"address"}],"name":"transferOwnership","outputs":[],"stateMutability":"nonpayable","type":"function"},{"inputs":[{"internalType":"address","name":"pool","type":"address"},{"components":[{"internalType":"uint256","name":"feeRate","type":"uint256"},{"internalType":"uint256","name":"spreadMultiplier","type":"uint256"},{"internalType":"uint256[]","name":"weights","type":"uint256[]"},{"internalType":"uint256","name":"lastUpdate","type":"uint256"},{"internalType":"bool","name":"isActive","type":"bool"}],"internalType":"struct IAIMM.PoolParameters","name":"newParams","type":"tuple"},{"internalType":"bytes","name":"aiSignature","type":"bytes"}],"name":"updateParameters","outputs":[],"stateMutability":"nonpayable","type":"function"}],"evm":{"bytecode":{"linkReferences":{},"object":"608060405234801561000f575f80fd5b5060405161186a38038061186a83398101604081905261002e916100d1565b338061005357604051631e4fbdf760e01b81525f600482015260240160405180910390fd5b61005c81610082565b50600180546001600160a01b0319166001600160a01b03929092169190911790556100fe565b5f80546001600160a01b038381166001600160a01b0319831681178455604051919092169283917f8be0079c531659141344cd1fd0a4f28419497f9722a3daafe3b4186f6b6457e09190a35050565b5f602082840312156100e1575f80fd5b81516001600160a01b03811681146100f7575f80fd5b9392505050565b61175f8061010b5f395ff3fe608060405234801561000f575f80fd5b5060043610610106575f3560e01c8063938ffd851161009e578063e4dc2aa41161006e578063e4dc2aa4146101e2578063ea4afc5414610201578063ebbbbd6d1461022b578063f2fde38b14610284578063f7888aec14610297575f80fd5b8063938ffd85146101a0578063a6d5b732146101b3578063b4f69a2f146101c6578063e1f1c4a7146101d9575f80fd5b80636ebe941b116100d95780636ebe941b1461015f578063715018a6146101745780638da5cb5b1461017c57806392f6576e1461010a575f80fd5b806321b77d631461010a5780634b2fc7bb1461012657806356e87df9146101395780635e1e63251461014c575b5f80fd5b6101136103e881565b6040519081526020015b60405180910390f35b610113610134366004611231565b6102c1565b610113610147366004611284565b6105a8565b61011361015a366004611294565b610890565b61017261016d3660046112cd565b610a9a565b005b610172610af3565b5f546001600160a01b03165b6040516001600160a01b03909116815260200161011d565b6101726101ae3660046112e6565b610b06565b600154610188906001600160a01b031681565b6101886101d4366004611387565b610d8e565b61011361271081565b6101136101f03660046112cd565b60046020525f908152604090205481565b61011361020f366004611387565b600360209081525f928352604080842090915290825290205481565b6102626102393660046112cd565b60026020525f908152604090208054600182015460038301546004909301549192909160ff1684565b604080519485526020850193909352918301521515606082015260800161011d565b6101726102923660046112cd565b610dda565b6101136102a5366004611387565b600560209081525f928352604080842090915290825290205481565b5f80841180156102d057505f83115b6103175760405162461bcd60e51b81526020600482015260136024820152720416d6f756e7473206d757374206265203e203606c1b60448201526064015b60405180910390fd5b61032c6001600160a01b038716333087610e17565b6103416001600160a01b038616333086610e17565b5f61034c8787610d8e565b6001600160a01b0381165f908152600460205260408120549192508190036103b0576103e861038361037e87896113cc565b610e84565b61038d91906113e3565b6001600160a01b0383165f9081526004602052604090206103e890559250610420565b6001600160a01b038089165f818152600360208181526040808420958d1684529481528483205491815284832093835292909252919091205461041b826103f7858b6113cc565b61040191906113f6565b8261040c868b6113cc565b61041691906113f6565b610ef2565b945050505b5f831161046f5760405162461bcd60e51b815260206004820152601d60248201527f496e73756666696369656e74206c6971756964697479206d696e746564000000604482015260640161030e565b6001600160a01b0382165f9081526004602052604081208054859290610496908490611415565b90915550506001600160a01b038083165f908152600560209081526040808320938816835292905290812080548592906104d1908490611415565b90915550506001600160a01b038089165f908152600360209081526040808320938b168352929052908120805488929061050c908490611415565b90915550506001600160a01b038088165f908152600360209081526040808320938c1683529290529081208054879290610547908490611415565b909155505060408051878152602081018790529081018490526001600160a01b0380891691908a16907f4a1a2a6176e9646d9e3157f7c2ab3c499f18337c0b0828cfb28e0a61de4a11f79060600160405180910390a3505095945050505050565b5f428260a0013510156105f15760405162461bcd60e51b8152602060048201526011602482015270111958591b1a5b9948195e18d959591959607a1b604482015260640161030e565b5f82604001351161063c5760405162461bcd60e51b81526020600482015260156024820152740416d6f756e7420696e206d757374206265203e203605c1b604482015260640161030e565b610661604083013561065160208501856112cd565b61015a60408601602087016112cd565b905081606001358110156106b75760405162461bcd60e51b815260206004820152601a60248201527f496e73756666696369656e74206f757470757420616d6f756e74000000000000604482015260640161030e565b6106df333060408501356106ce60208701876112cd565b6001600160a01b0316929190610e17565b6107136106f260a08401608085016112cd565b8261070360408601602087016112cd565b6001600160a01b03169190610f09565b604082013560035f61072860208601866112cd565b6001600160a01b03166001600160a01b031681526020019081526020015f205f84602001602081019061075b91906112cd565b6001600160a01b03166001600160a01b031681526020019081526020015f205f8282546107889190611415565b9091555081905060035f6107a260408601602087016112cd565b6001600160a01b031681526020808201929092526040015f908120916107ca908601866112cd565b6001600160a01b03166001600160a01b031681526020019081526020015f205f8282546107f791906113e3565b9091555061080d905060a08301608084016112cd565b6001600160a01b031661082660408401602085016112cd565b6001600160a01b031661083c60208501856112cd565b6001600160a01b03167fb39c9bc43f811e1a7ce159c5f147458fdb80266bf23c17322013316e27e086d0856040013585604051610883929190918252602082015260400190565b60405180910390a4919050565b5f8084116108d85760405162461bcd60e51b81526020600482015260156024820152740416d6f756e7420696e206d757374206265203e203605c1b604482015260640161030e565b5f6108e38484610d8e565b6001600160a01b0381165f908152600260208181526040808420815160a08101835281548152600182015481850152938101805483518186028101860185528181529798509596949591949286019390919083018282801561096257602002820191905f5260205f20905b81548152602001906001019080831161094e575b505050918352505060038281015460208084019190915260049093015460ff1615156040928301526001600160a01b03808a165f818152838652848120928b168152918552838220549285528382209082529093529120549192509081158015906109cc57505f81115b610a115760405162461bcd60e51b8152602060048201526016602482015275496e73756666696369656e74206c697175696469747960501b604482015260640161030e565b82515f90610a21906127106113e3565b610a2b908a6113cc565b90505f610a3883836113cc565b90505f82610a48612710876113cc565b610a529190611415565b9050610a5e81836113f6565b975061271086602001511115610a8c576020860151610a7f6127108a6113cc565b610a8991906113f6565b97505b505050505050509392505050565b610aa2610f3f565b600180546001600160a01b038381166001600160a01b0319831681179093556040519116919082907f0ac42006b88adb1efcf4e9c3898bf1f0ad6b79559ababbfdf9358497d5ccbac2905f90a35050565b610afb610f3f565b610b045f610f6b565b565b5f8484356020860135610b1c6040880188611428565b8860600135604051602001610b3696959493929190611475565b6040516020818303038152906040528051906020012090505f610bc3610b88837f19457468657265756d205369676e6564204d6573736167653a0a3332000000005f908152601c91909152603c902090565b85858080601f0160208091040260200160405190810160405280939291908181526020018383808284375f92019190915250610fba92505050565b6001549091506001600160a01b03808316911614610c1a5760405162461bcd60e51b8152602060048201526014602482015273496e76616c6964204149207369676e617475726560601b604482015260640161030e565b6103e885351115610c615760405162461bcd60e51b815260206004820152601160248201527008ccaca40e4c2e8ca40e8dede40d0d2ced607b1b604482015260640161030e565b610c7160a08601608087016114e8565b610cb35760405162461bcd60e51b8152602060048201526013602482015272506f6f6c206d7573742062652061637469766560681b604482015260640161030e565b6001600160a01b0386165f90815260026020526040902060030154606086013511610d175760405162461bcd60e51b81526020600482015260146024820152732830b930b6b2ba32b939903737ba103732bbb2b960611b604482015260640161030e565b6001600160a01b0386165f9081526002602052604090208590610d3a82826115b9565b50506001546040516001600160a01b03918216918816907f62bfe367173b5066d6164c7dbe35c3075529cba30c8fa799527219907ca96dbc90610d7e90899061167e565b60405180910390a3505050505050565b6040516bffffffffffffffffffffffff19606084811b8216602084015283901b1660348201525f90604801604051602081830303815290604052805190602001205f1c90505b92915050565b610de2610f3f565b6001600160a01b038116610e0b57604051631e4fbdf760e01b81525f600482015260240161030e565b610e1481610f6b565b50565b6040516001600160a01b038481166024830152838116604483015260648201839052610e7e9186918216906323b872dd906084015b604051602081830303815290604052915060e01b6020820180516001600160e01b038381831617835250505050610fe2565b50505050565b5f6003821115610ee35750805f610e9c6002836113f6565b610ea7906001611415565b90505b81811015610edd57905080600281610ec281866113f6565b610ecc9190611415565b610ed691906113f6565b9050610eaa565b50919050565b8115610eed575060015b919050565b5f818310610f005781610f02565b825b9392505050565b6040516001600160a01b03838116602483015260448201839052610f3a91859182169063a9059cbb90606401610e4c565b505050565b5f546001600160a01b03163314610b045760405163118cdaa760e01b815233600482015260240161030e565b5f80546001600160a01b038381166001600160a01b0319831681178455604051919092169283917f8be0079c531659141344cd1fd0a4f28419497f9722a3daafe3b4186f6b6457e09190a35050565b5f805f80610fc8868661104e565b925092509250610fd88282611097565b5090949350505050565b5f8060205f8451602086015f885af180611001576040513d5f823e3d81fd5b50505f513d91508115611018578060011415611025565b6001600160a01b0384163b155b15610e7e57604051635274afe760e01b81526001600160a01b038516600482015260240161030e565b5f805f8351604103611085576020840151604085015160608601515f1a61107788828585611153565b955095509550505050611090565b505081515f91506002905b9250925092565b5f8260038111156110aa576110aa611715565b036110b3575050565b60018260038111156110c7576110c7611715565b036110e55760405163f645eedf60e01b815260040160405180910390fd5b60028260038111156110f9576110f9611715565b0361111a5760405163fce698f760e01b81526004810182905260240161030e565b600382600381111561112e5761112e611715565b0361114f576040516335e2f38360e21b81526004810182905260240161030e565b5050565b5f80807f7fffffffffffffffffffffffffffffff5d576e7357a4501ddfe92f46681b20a084111561118c57505f91506003905082611211565b604080515f808252602082018084528a905260ff891692820192909252606081018790526080810186905260019060a0016020604051602081039080840390855afa1580156111dd573d5f803e3d5ffd5b5050604051601f1901519150506001600160a01b03811661120857505f925060019150829050611211565b92505f91508190505b9450945094915050565b80356001600160a01b0381168114610eed575f80fd5b5f805f805f60a08688031215611245575f80fd5b61124e8661121b565b945061125c6020870161121b565b935060408601359250606086013591506112786080870161121b565b90509295509295909350565b5f60c08284031215610edd575f80fd5b5f805f606084860312156112a6575f80fd5b833592506112b66020850161121b565b91506112c46040850161121b565b90509250925092565b5f602082840312156112dd575f80fd5b610f028261121b565b5f805f80606085870312156112f9575f80fd5b6113028561121b565b9350602085013567ffffffffffffffff8082111561131e575f80fd5b9086019060a08289031215611331575f80fd5b90935060408601359080821115611346575f80fd5b818701915087601f830112611359575f80fd5b813581811115611367575f80fd5b886020828501011115611378575f80fd5b95989497505060200194505050565b5f8060408385031215611398575f80fd5b6113a18361121b565b91506113af6020840161121b565b90509250929050565b634e487b7160e01b5f52601160045260245ffd5b8082028115828204841417610dd457610dd46113b8565b81810381811115610dd457610dd46113b8565b5f8261141057634e487b7160e01b5f52601260045260245ffd5b500490565b80820180821115610dd457610dd46113b8565b5f808335601e1984360301811261143d575f80fd5b83018035915067ffffffffffffffff821115611457575f80fd5b6020019150600581901b360382131561146e575f80fd5b9250929050565b606087901b6bffffffffffffffffffffffff1916815260148101869052603481018590525f6001600160fb1b038411156114ad575f80fd5b8360051b8086605485013760549201918201929092526074019695505050505050565b8015158114610e14575f80fd5b8035610eed816114d0565b5f602082840312156114f8575f80fd5b8135610f02816114d0565b634e487b7160e01b5f52604160045260245ffd5b67ffffffffffffffff83111561152f5761152f611503565b6801000000000000000083111561154857611548611503565b80548382558084101561157d575f828152602090208481019082015b8082101561157a575f8255600182019150611564565b50505b505f8181526020812083915b858110156115a557823582820155602090920191600101611589565b505050505050565b5f8135610dd4816114d0565b81358155602082013560018201556040820135601e198336030181126115dd575f80fd5b8201803567ffffffffffffffff8111156115f5575f80fd5b6020820191508060051b360382131561160c575f80fd5b61161a818360028601611517565b50506060820135600382015561114f611635608084016115ad565b6004830160ff1981541660ff8315151681178255505050565b8183525f6001600160fb1b03831115611665575f80fd5b8260051b80836020870137939093016020019392505050565b6020815281356020820152602082013560408201525f6040830135601e198436030181126116aa575f80fd5b830160208101903567ffffffffffffffff8111156116c6575f80fd5b8060051b36038213156116d7575f80fd5b60a060608501526116ec60c08501828461164e565b91505060608401356080840152611705608085016114dd565b80151560a0850152509392505050565b634e487b7160e01b5f52602160045260245ffdfea264697066735822122005867e64182ed57d45e179524a39fd627cf710344be2c78deb4ad086966a31f764736f6c63430008160033","opcodes":"PUSH1 0x80 PUSH1 0x40 MSTORE CALLVALUE DUP1 ISZERO PUSH2 0xF JUMPI PUSH0 DUP1 REVERT JUMPDEST POP PUSH1 0x40 MLOAD PUSH2 0x186A CODESIZE SUB DUP1 PUSH2 0x186A DUP4 CODECOPY DUP2 ADD PUSH1 0x40 DUP2 SWAP1 MSTORE PUSH2 0x2E SWAP2 PUSH2 0xD1 JUMP JUMPDEST CALLER DUP1 PUSH2 0x53 JUMPI PUSH1 0x40 MLOAD PUSH4 0x1E4FBDF7 PUSH1 0xE0 SHL DUP2 MSTORE PUSH0 PUSH1 0x4 DUP3 ADD MSTORE PUSH1 0x24 ADD PUSH1 0x40 MLOAD DUP1 SWAP2 SUB SWAP1 REVERT JUMPDEST PUSH2 0x5C DUP2 PUSH2 0x82 JUMP JUMPDEST POP PUSH1 0x1 DUP1 SLOAD PUSH1 0x1 PUSH1 0x1 PUSH1 0xA0 SHL SUB NOT AND PUSH1 0x1 PUSH1 0x1 PUSH1 0xA0 SHL SUB SWAP3 SWAP1 SWAP3 AND SWAP2 SWAP1 SWAP2 OR SWAP1 SSTORE PUSH2 0xFE JUMP JUMPDEST PUSH0 DUP1 SLOAD PUSH1 0x1 PUSH1 0x1 PUSH1 0xA0 SHL SUB DUP4 DUP2 AND PUSH1 0x1 PUSH1 0x1 PUSH1 0xA0 SHL SUB NOT DUP4 AND DUP2 OR DUP5 SSTORE PUSH1 0x40 MLOAD SWAP2 SWAP1 SWAP3 AND SWAP3 DUP4 SWAP2 PUSH32 0x8BE0079C531659141344CD1FD0A4F28419497F9722A3DAAFE3B4186F6B6457E0 SWAP2 SWAP1 LOG3 POP POP JUMP JUMPDEST PUSH0 PUSH1 0x20 DUP3 DUP5 SUB SLT ISZERO PUSH2 0xE1 JUMPI PUSH0 DUP1 REVERT JUMPDEST DUP2 MLOAD PUSH1 0x1 PUSH1 0x1 PUSH1 0xA0 SHL SUB DUP2 AND DUP2 EQ PUSH2 0xF7 JUMPI PUSH0 DUP1 REVERT JUMPDEST SWAP4 SWAP3 POP POP POP JUMP JUMPDEST PUSH2 0x175F DUP1 PUSH2 0x10B PUSH0 CODECOPY PUSH0 RETURN INVALID PUSH1 0x80 PUSH1 0x40 MSTORE CALLVALUE DUP1 ISZERO PUSH2 0xF JUMPI PUSH0 DUP1 REVERT JUMPDEST POP PUSH1 0x4 CALLDATASIZE LT PUSH2 0x106 JUMPI PUSH0 CALLDATALOAD PUSH1 0xE0 SHR DUP1 PUSH4 0x938FFD85 GT PUSH2 0x9E JUMPI DUP1 PUSH4 0xE4DC2AA4 GT PUSH2 0x6E JUMPI DUP1 PUSH4 0xE4DC2AA4 EQ PUSH2 0x1E2 JUMPI DUP1 PUSH4 0xEA4AFC54 EQ PUSH2 0x201 JUMPI DUP1 PUSH4 0xEBBBBD6D EQ PUSH2 0x22B JUMPI DUP1 PUSH4 0xF2FDE38B EQ PUSH2 0x284 JUMPI DUP1 PUSH4 0xF7888AEC EQ PUSH2 0x297 JUMPI PUSH0 DUP1 REVERT JUMPDEST DUP1 PUSH4 0x938FFD85 EQ PUSH2 0x1A0 JUMPI DUP1 PUSH4 0xA6D5B732 EQ PUSH2 0x1B3 JUMPI DUP1 PUSH4 0xB4F69A2F EQ PUSH2 0x1C6 JUMPI DUP1 PUSH4 0xE1F1C4A7 EQ PUSH2 0x1D9 JUMPI PUSH0 DUP1 REVERT JUMPDEST DUP1 PUSH4 0x6EBE941B GT PUSH2 0xD9 JUMPI DUP1 PUSH4 0x6EBE941B EQ PUSH2 0x15F JUMPI DUP1 PUSH4 0x715018A6 EQ PUSH2 0x174 JUMPI DUP1 PUSH4 0x8DA5CB5B EQ PUSH2 0x17C JUMPI DUP1 PUSH4 0x92F6576E EQ PUSH2 0x10A JUMPI PUSH0 DUP1 REVERT JUMPDEST DUP1 PUSH4 0x21B77D63 EQ PUSH2 0x10A JUMPI DUP1 PUSH4 0x4B2FC7BB EQ PUSH2 0x126 JUMPI DUP1 PUSH4 0x56E87DF9 EQ PUSH2 0x139 JUMPI DUP1 PUSH4 0x5E1E6325 EQ PUSH2 0x14C JUMPI JUMPDEST PUSH0 DUP1 REVERT JUMPDEST PUSH2 0x113 PUSH2 0x3E8 DUP2 JUMP JUMPDEST PUSH1 0x40 MLOAD SWAP1 DUP2 MSTORE PUSH1 0x20 ADD JUMPDEST PUSH1 0x40 MLOAD DUP1 SWAP2 SUB SWAP1 RETURN JUMPDEST PUSH2 0x113 PUSH2 0x134 CALLDATASIZE PUSH1 0x4 PUSH2 0x1231 JUMP JUMPDEST PUSH2 0x2C1 JUMP JUMPDEST PUSH2 0x113 PUSH2 0x147 CALLDATASIZE PUSH1 0x4 PUSH2 0x1284 JUMP JUMPDEST PUSH2 0x5A8 JUMP JUMPDEST PUSH2 0x113 PUSH2 0x15A CALLDATASIZE PUSH1 0x4 PUSH2 0x1294 JUMP JUMPDEST PUSH2 0x890 JUMP JUMPDEST PUSH2 0x172 PUSH2 0x16D CALLDATASIZE PUSH1 0x4 PUSH2 0x12CD JUMP JUMPDEST PUSH2 0xA9A JUMP JUMPDEST STOP JUMPDEST PUSH2 0x172 PUSH2 0xAF3 JUMP JUMPDEST PUSH0 SLOAD PUSH1 0x1 PUSH1 0x1 PUSH1 0xA0 SHL SUB AND JUMPDEST PUSH1 0x40 MLOAD PUSH1 0x1 PUSH1 0x1 PUSH1 0xA0 SHL SUB SWAP1 SWAP2 AND DUP2 MSTORE PUSH1 0x20 ADD PUSH2 0x11D JUMP JUMPDEST PUSH2 0x172 PUSH2 0x1AE CALLDATASIZE PUSH1 0x4 PUSH2 0x12E6 JUMP JUMPDEST PUSH2 0xB06 JUMP JUMPDEST PUSH1 0x1 SLOAD PUSH2 0x188 SWAP1 PUSH1 0x1 PUSH1 0x1 PUSH1 0xA0 SHL SUB AND DUP2 JUMP JUMPDEST PUSH2 0x188 PUSH2 0x1D4 CALLDATASIZE PUSH1 0x4 PUSH2 0x1387 JUMP JUMPDEST PUSH2 0xD8E JUMP JUMPDEST PUSH2 0x113 PUSH2 0x2710 DUP2 JUMP JUMPDEST PUSH2 0x113 PUSH2 0x1F0 CALLDATASIZE PUSH1 0x4 PUSH2 0x12CD JUMP JUMPDEST PUSH1 0x4 PUSH1 0x20 MSTORE PUSH0 SWAP1 DUP2 MSTORE PUSH1 0x40 SWAP1 KECCAK256 SLOAD DUP2 JUMP JUMPDEST PUSH2 0x113 PUSH2 0x20F CALLDATASIZE PUSH1 0x4 PUSH2 0x1387 JUMP JUMPDEST PUSH1 0x3 PUSH1 0x20 SWAP1 DUP2 MSTORE PUSH0 SWAP3 DUP4 MSTORE PUSH1 0x40 DUP1 DUP5 KECCAK256 SWAP1 SWAP2 MSTORE SWAP1 DUP3 MSTORE SWAP1 KECCAK256 SLOAD DUP2 JUMP JUMPDEST PUSH2 0x262 PUSH2 0x239 CALLDATASIZE PUSH1 0x4 PUSH2 0x12CD JUMP JUMPDEST PUSH1 0x2 PUSH1 0x20 MSTORE PUSH0 SWAP1 DUP2 MSTORE PUSH1 0x40 SWAP1 KECCAK256 DUP1 SLOAD PUSH1 0x1 DUP3 ADD SLOAD PUSH1 0x3 DUP4 ADD SLOAD PUSH1 0x4 SWAP1 SWAP4 ADD SLOAD SWAP2 SWAP3 SWAP1 SWAP2 PUSH1 0xFF AND DUP5 JUMP JUMPDEST PUSH1 0x40 DUP1 MLOAD SWAP5 DUP6 MSTORE PUSH1 0x20 DUP6 ADD SWAP4 SWAP1 SWAP4 MSTORE SWAP2 DUP4 ADD MSTORE ISZERO ISZERO PUSH1 0x60 DUP3 ADD MSTORE PUSH1 0x80 ADD PUSH2 0x11D JUMP JUMPDEST PUSH2 0x172 PUSH2 0x292 CALLDATASIZE PUSH1 0x4 PUSH2 0x12CD JUMP JUMPDEST PUSH2 0xDDA JUMP JUMPDEST PUSH2 0x113 PUSH2 0x2A5 CALLDATASIZE PUSH1 0x4 PUSH2 0x1387 JUMP JUMPDEST PUSH1 0x5 PUSH1 0x20 SWAP1 DUP2 MSTORE PUSH0 SWAP3 DUP4 MSTORE PUSH1 0x40 DUP1 DUP5 KECCAK256 SWAP1 SWAP2 MSTORE SWAP1 DUP3 MSTORE SWAP1 KECCAK256 SLOAD DUP2 JUMP JUMPDEST PUSH0 DUP1 DUP5 GT DUP1 ISZERO PUSH2 0x2D0 JUMPI POP PUSH0 DUP4 GT JUMPDEST PUSH2 0x317 JUMPI PUSH1 0x40 MLOAD PUSH3 0x461BCD PUSH1 0xE5 SHL DUP2 MSTORE PUSH1 0x20 PUSH1 0x4 DUP3 ADD MSTORE PUSH1 0x13 PUSH1 0x24 DUP3 ADD MSTORE PUSH19 0x416D6F756E7473206D757374206265203E203 PUSH1 0x6C SHL PUSH1 0x44 DUP3 ADD MSTORE PUSH1 0x64 ADD JUMPDEST PUSH1 0x40 MLOAD DUP1 SWAP2 SUB SWAP1 REVERT JUMPDEST PUSH2 0x32C PUSH1 0x1 PUSH1 0x1 PUSH1 0xA0 SHL SUB DUP8 AND CALLER ADDRESS DUP8 PUSH2 0xE17 JUMP JUMPDEST PUSH2 0x341 PUSH1 0x1 PUSH1 0x1 PUSH1 0xA0 SHL SUB DUP7 AND CALLER ADDRESS DUP7 PUSH2 0xE17 JUMP JUMPDEST PUSH0 PUSH2 0x34C DUP8 DUP8 PUSH2 0xD8E JUMP JUMPDEST PUSH1 0x1 PUSH1 0x1 PUSH1 0xA0 SHL SUB DUP2 AND PUSH0 SWAP1 DUP2 MSTORE PUSH1 0x4 PUSH1 0x20 MSTORE PUSH1 0x40 DUP2 KECCAK256 SLOAD SWAP2 SWAP3 POP DUP2 SWAP1 SUB PUSH2 0x3B0 JUMPI PUSH2 0x3E8 PUSH2 0x383 PUSH2 0x37E DUP8 DUP10 PUSH2 0x13CC JUMP JUMPDEST PUSH2 0xE84 JUMP JUMPDEST PUSH2 0x38D SWAP2 SWAP1 PUSH2 0x13E3 JUMP JUMPDEST PUSH1 0x1 PUSH1 0x1 PUSH1 0xA0 SHL SUB DUP4 AND PUSH0 SWAP1 DUP2 MSTORE PUSH1 0x4 PUSH1 0x20 MSTORE PUSH1 0x40 SWAP1 KECCAK256 PUSH2 0x3E8 SWAP1 SSTORE SWAP3 POP PUSH2 0x420 JUMP JUMPDEST PUSH1 0x1 PUSH1 0x1 PUSH1 0xA0 SHL SUB DUP1 DUP10 AND PUSH0 DUP2 DUP2 MSTORE PUSH1 0x3 PUSH1 0x20 DUP2 DUP2 MSTORE PUSH1 0x40 DUP1 DUP5 KECCAK256 SWAP6 DUP14 AND DUP5 MSTORE SWAP5 DUP2 MSTORE DUP5 DUP4 KECCAK256 SLOAD SWAP2 DUP2 MSTORE DUP5 DUP4 KECCAK256 SWAP4 DUP4 MSTORE SWAP3 SWAP1 SWAP3 MSTORE SWAP2 SWAP1 SWAP2 KECCAK256 SLOAD PUSH2 0x41B DUP3 PUSH2 0x3F7 DUP6 DUP12 PUSH2 0x13CC JUMP JUMPDEST PUSH2 0x401 SWAP2 SWAP1 PUSH2 0x13F6 JUMP JUMPDEST DUP3 PUSH2 0x40C DUP7 DUP12 PUSH2 0x13CC JUMP JUMPDEST PUSH2 0x416 SWAP2 SWAP1 PUSH2 0x13F6 JUMP JUMPDEST PUSH2 0xEF2 JUMP JUMPDEST SWAP5 POP POP POP JUMPDEST PUSH0 DUP4 GT PUSH2 0x46F JUMPI PUSH1 0x40 MLOAD PUSH3 0x461BCD PUSH1 0xE5 SHL DUP2 MSTORE PUSH1 0x20 PUSH1 0x4 DUP3 ADD MSTORE PUSH1 0x1D PUSH1 0x24 DUP3 ADD MSTORE PUSH32 0x496E73756666696369656E74206C6971756964697479206D696E746564000000 PUSH1 0x44 DUP3 ADD MSTORE PUSH1 0x64 ADD PUSH2 0x30E JUMP JUMPDEST PUSH1 0x1 PUSH1 0x1 PUSH1 0xA0 SHL SUB DUP3 AND PUSH0 SWAP1 DUP2 MSTORE PUSH1 0x4 PUSH1 0x20 MSTORE PUSH1 0x40 DUP2 KECCAK256 DUP1 SLOAD DUP6 SWAP3 SWAP1 PUSH2 0x496 SWAP1 DUP5 SWAP1 PUSH2 0x1415 JUMP JUMPDEST SWAP1 SWAP2 SSTORE POP POP PUSH1 0x1 PUSH1 0x1 PUSH1 0xA0 SHL SUB DUP1 DUP4 AND PUSH0 SWAP1 DUP2 MSTORE PUSH1 0x5 PUSH1 0x20 SWAP1 DUP2 MSTORE PUSH1 0x40 DUP1 DUP4 KECCAK256 SWAP4 DUP9 AND DUP4 MSTORE SWAP3 SWAP1 MSTORE SWAP1 DUP2 KECCAK256 DUP1 SLOAD DUP6 SWAP3 SWAP1 PUSH2 0x4D1 SWAP1 DUP5 SWAP1 PUSH2 0x1415 JUMP JUMPDEST SWAP1 SWAP2 SSTORE POP POP PUSH1 0x1 PUSH1 0x1 PUSH1 0xA0 SHL SUB DUP1 DUP10 AND PUSH0 SWAP1 DUP2 MSTORE PUSH1 0x3 PUSH1 0x20 SWAP1 DUP2 MSTORE PUSH1 0x40 DUP1 DUP4 KECCAK256 SWAP4 DUP12 AND DUP4 MSTORE SWAP3 SWAP1 MSTORE SWAP1 DUP2 KECCAK256 DUP1 SLOAD DUP9 SWAP3 SWAP1 PUSH2 0x50C SWAP1 DUP5 SWAP1 PUSH2 0x1415 JUMP JUMPDEST SWAP1 SWAP2 SSTORE POP POP PUSH1 0x1 PUSH1 0x1 PUSH1 0xA0 SHL SUB DUP1 DUP9 AND PUSH0 SWAP1 DUP2 MSTORE PUSH1 0x3 PUSH1 0x20 SWAP1 DUP2 MSTORE PUSH1 0x40 DUP1 DUP4 KECCAK256 SWAP4 DUP13 AND DUP4 MSTORE SWAP3 SWAP1 MSTORE SWAP1 DUP2 KECCAK256 DUP1 SLOAD DUP8 SWAP3 SWAP1 PUSH2 0x547 SWAP1 DUP5 SWAP1 PUSH2 0x1415 JUMP JUMPDEST SWAP1 SWAP2 SSTORE POP POP PUSH1 0x40 DUP1 MLOAD DUP8 DUP2 MSTORE PUSH1 0x20 DUP2 ADD DUP8 SWAP1 MSTORE SWAP1 DUP2 ADD DUP5 SWAP1 MSTORE PUSH1 0x1 PUSH1 0x1 PUSH1 0xA0 SHL SUB DUP1 DUP10 AND SWAP2 SWAP1 DUP11 AND SWAP1 PUSH32 0x4A1A2A6176E9646D9E3157F7C2AB3C499F18337C0B0828CFB28E0A61DE4A11F7 SWAP1 PUSH1 0x60 ADD PUSH1 0x40 MLOAD DUP1 SWAP2 SUB SWAP1 LOG3 POP POP SWAP6 SWAP5 POP POP POP POP POP JUMP JUMPDEST PUSH0 TIMESTAMP DUP3 PUSH1 0xA0 ADD CALLDATALOAD LT ISZERO PUSH2 0x5F1 JUMPI PUSH1 0x40 MLOAD PUSH3 0x461BCD PUSH1 0xE5 SHL DUP2 MSTORE PUSH1 0x20 PUSH1 0x4 DUP3 ADD MSTORE PUSH1 0x11 PUSH1 0x24 DUP3 ADD MSTORE PUSH17 0x111958591B1A5B9948195E18D959591959 PUSH1 0x7A SHL PUSH1 0x44 DUP3 ADD MSTORE PUSH1 0x64 ADD PUSH2 0x30E JUMP JUMPDEST PUSH0 DUP3 PUSH1 0x40 ADD CALLDATALOAD GT PUSH2 0x63C JUMPI PUSH1 0x40 MLOAD PUSH3 0x461BCD PUSH1 0xE5 SHL DUP2 MSTORE PUSH1 0x20 PUSH1 0x4 DUP3 ADD MSTORE PUSH1 0x15 PUSH1 0x24 DUP3 ADD MSTORE PUSH21 0x416D6F756E7420696E206D757374206265203E203 PUSH1 0x5C SHL PUSH1 0x44 DUP3 ADD MSTORE PUSH1 0x64 ADD PUSH2 0x30E JUMP JUMPDEST PUSH2 0x661 PUSH1 0x40 DUP4 ADD CALLDATALOAD PUSH2 0x651 PUSH1 0x20 DUP6 ADD DUP6 PUSH2 0x12CD JUMP JUMPDEST PUSH2 0x15A PUSH1 0x40 DUP7 ADD PUSH1 0x20 DUP8 ADD PUSH2 0x12CD JUMP JUMPDEST SWAP1 POP DUP2 PUSH1 0x60 ADD CALLDATALOAD DUP2 LT ISZERO PUSH2 0x6B7 JUMPI PUSH1 0x40 MLOAD PUSH3 0x461BCD PUSH1 0xE5 SHL DUP2 MSTORE PUSH1 0x20 PUSH1 0x4 DUP3 ADD MSTORE PUSH1 0x1A PUSH1 0x24 DUP3 ADD MSTORE PUSH32 0x496E73756666696369656E74206F757470757420616D6F756E74000000000000 PUSH1 0x44 DUP3 ADD MSTORE PUSH1 0x64 ADD PUSH2 0x30E JUMP JUMPDEST PUSH2 0x6DF CALLER ADDRESS PUSH1 0x40 DUP6 ADD CALLDATALOAD PUSH2 0x6CE PUSH1 0x20 DUP8 ADD DUP8 PUSH2 0x12CD JUMP JUMPDEST PUSH1 0x1 PUSH1 0x1 PUSH1 0xA0 SHL SUB AND SWAP3 SWAP2 SWAP1 PUSH2 0xE17 JUMP JUMPDEST PUSH2 0x713 PUSH2 0x6F2 PUSH1 0xA0 DUP5 ADD PUSH1 0x80 DUP6 ADD PUSH2 0x12CD JUMP JUMPDEST DUP3 PUSH2 0x703 PUSH1 0x40 DUP7 ADD PUSH1 0x20 DUP8 ADD PUSH2 0x12CD JUMP JUMPDEST PUSH1 0x1 PUSH1 0x1 PUSH1 0xA0 SHL SUB AND SWAP2 SWAP1 PUSH2 0xF09 JUMP JUMPDEST PUSH1 0x40 DUP3 ADD CALLDATALOAD PUSH1 0x3 PUSH0 PUSH2 0x728 PUSH1 0x20 DUP7 ADD DUP7 PUSH2 0x12CD JUMP JUMPDEST PUSH1 0x1 PUSH1 0x1 PUSH1 0xA0 SHL SUB AND PUSH1 0x1 PUSH1 0x1 PUSH1 0xA0 SHL SUB AND DUP2 MSTORE PUSH1 0x20 ADD SWAP1 DUP2 MSTORE PUSH1 0x20 ADD PUSH0 KECCAK256 PUSH0 DUP5 PUSH1 0x20 ADD PUSH1 0x20 DUP2 ADD SWAP1 PUSH2 0x75B SWAP2 SWAP1 PUSH2 0x12CD JUMP JUMPDEST PUSH1 0x1 PUSH1 0x1 PUSH1 0xA0 SHL SUB AND PUSH1 0x1 PUSH1 0x1 PUSH1 0xA0 SHL SUB AND DUP2 MSTORE PUSH1 0x20 ADD SWAP1 DUP2 MSTORE PUSH1 0x20 ADD PUSH0 KECCAK256 PUSH0 DUP3 DUP3 SLOAD PUSH2 0x788 SWAP2 SWAP1 PUSH2 0x1415 JUMP JUMPDEST SWAP1 SWAP2 SSTORE POP DUP2 SWAP1 POP PUSH1 0x3 PUSH0 PUSH2 0x7A2 PUSH1 0x40 DUP7 ADD PUSH1 0x20 DUP8 ADD PUSH2 0x12CD JUMP JUMPDEST PUSH1 0x1 PUSH1 0x1 PUSH1 0xA0 SHL SUB AND DUP2 MSTORE PUSH1 0x20 DUP1 DUP3 ADD SWAP3 SWAP1 SWAP3 MSTORE PUSH1 0x40 ADD PUSH0 SWAP1 DUP2 KECCAK256 SWAP2 PUSH2 0x7CA SWAP1 DUP7 ADD DUP7 PUSH2 0x12CD JUMP JUMPDEST PUSH1 0x1 PUSH1 0x1 PUSH1 0xA0 SHL SUB AND PUSH1 0x1 PUSH1 0x1 PUSH1 0xA0 SHL SUB AND DUP2 MSTORE PUSH1 0x20 ADD SWAP1 DUP2 MSTORE PUSH1 0x20 ADD PUSH0 KECCAK256 PUSH0 DUP3 DUP3 SLOAD PUSH2 0x7F7 SWAP2 SWAP1 PUSH2 0x13E3 JUMP JUMPDEST SWAP1 SWAP2 SSTORE POP PUSH2 0x80D SWAP1 POP PUSH1 0xA0 DUP4 ADD PUSH1 0x80 DUP5 ADD PUSH2 0x12CD JUMP JUMPDEST PUSH1 0x1 PUSH1 0x1 PUSH1 0xA0 SHL SUB AND PUSH2 0x826 PUSH1 0x40 DUP5 ADD PUSH1 0x20 DUP6 ADD PUSH2 0x12CD JUMP JUMPDEST PUSH1 0x1 PUSH1 0x1 PUSH1 0xA0 SHL SUB AND PUSH2 0x83C PUSH1 0x20 DUP6 ADD DUP6 PUSH2 0x12CD JUMP JUMPDEST PUSH1 0x1 PUSH1 0x1 PUSH1 0xA0 SHL SUB AND PUSH32 0xB39C9BC43F811E1A7CE159C5F147458FDB80266BF23C17322013316E27E086D0 DUP6 PUSH1 0x40 ADD CALLDATALOAD DUP6 PUSH1 0x40 MLOAD PUSH2 0x883 SWAP3 SWAP2 SWAP1 SWAP2 DUP3 MSTORE PUSH1 0x20 DUP3 ADD MSTORE PUSH1 0x40 ADD SWAP1 JUMP JUMPDEST PUSH1 0x40 MLOAD DUP1 SWAP2 SUB SWAP1 LOG4 SWAP2 SWAP1 POP JUMP JUMPDEST PUSH0 DUP1 DUP5 GT PUSH2 0x8D8 JUMPI PUSH1 0x40 MLOAD PUSH3 0x461BCD PUSH1 0xE5 SHL DUP2 MSTORE PUSH1 0x20 PUSH1 0x4 DUP3 ADD MSTORE PUSH1 0x15 PUSH1 0x24 DUP3 ADD MSTORE PUSH21 0x416D6F756E7420696E206D757374206265203E203 PUSH1 0x5C SHL PUSH1 0x44 DUP3 ADD MSTORE PUSH1 0x64 ADD PUSH2 0x30E JUMP JUMPDEST PUSH0 PUSH2 0x8E3 DUP5 DUP5 PUSH2 0xD8E JUMP JUMPDEST PUSH1 0x1 PUSH1 0x1 PUSH1 0xA0 SHL SUB DUP2 AND PUSH0 SWAP1 DUP2 MSTORE PUSH1 0x2 PUSH1 0x20 DUP2 DUP2 MSTORE PUSH1 0x40 DUP1 DUP5 KECCAK256 DUP2 MLOAD PUSH1 0xA0 DUP2 ADD DUP4 MSTORE DUP2 SLOAD DUP2 MSTORE PUSH1 0x1 DUP3 ADD SLOAD DUP2 DUP6 ADD MSTORE SWAP4 DUP2 ADD DUP1 SLOAD DUP4 MLOAD DUP2 DUP7 MUL DUP2 ADD DUP7 ADD DUP6 MSTORE DUP2 DUP2 MSTORE SWAP8 SWAP9 POP SWAP6 SWAP7 SWAP5 SWAP6 SWAP2 SWAP5 SWAP3 DUP7 ADD SWAP4 SWAP1 SWAP2 SWAP1 DUP4 ADD DUP3 DUP3 DUP1 ISZERO PUSH2 0x962 JUMPI PUSH1 0x20 MUL DUP3 ADD SWAP2 SWAP1 PUSH0 MSTORE PUSH1 0x20 PUSH0 KECCAK256 SWAP1 JUMPDEST DUP2 SLOAD DUP2 MSTORE PUSH1 0x20 ADD SWAP1 PUSH1 0x1 ADD SWAP1 DUP1 DUP4 GT PUSH2 0x94E JUMPI JUMPDEST POP POP POP SWAP2 DUP4 MSTORE POP POP PUSH1 0x3 DUP3 DUP2 ADD SLOAD PUSH1 0x20 DUP1 DUP5 ADD SWAP2 SWAP1 SWAP2 MSTORE PUSH1 0x4 SWAP1 SWAP4 ADD SLOAD PUSH1 0xFF AND ISZERO ISZERO PUSH1 0x40 SWAP3 DUP4 ADD MSTORE PUSH1 0x1 PUSH1 0x1 PUSH1 0xA0 SHL SUB DUP1 DUP11 AND PUSH0 DUP2 DUP2 MSTORE DUP4 DUP7 MSTORE DUP5 DUP2 KECCAK256 SWAP3 DUP12 AND DUP2 MSTORE SWAP2 DUP6 MSTORE DUP4 DUP3 KECCAK256 SLOAD SWAP3 DUP6 MSTORE DUP4 DUP3 KECCAK256 SWAP1 DUP3 MSTORE SWAP1 SWAP4 MSTORE SWAP2 KECCAK256 SLOAD SWAP2 SWAP3 POP SWAP1 DUP2 ISZERO DUP1 ISZERO SWAP1 PUSH2 0x9CC JUMPI POP PUSH0 DUP2 GT JUMPDEST PUSH2 0xA11 JUMPI PUSH1 0x40 MLOAD PUSH3 0x461BCD PUSH1 0xE5 SHL DUP2 MSTORE PUSH1 0x20 PUSH1 0x4 DUP3 ADD MSTORE PUSH1 0x16 PUSH1 0x24 DUP3 ADD MSTORE PUSH22 0x496E73756666696369656E74206C6971756964697479 PUSH1 0x50 SHL PUSH1 0x44 DUP3 ADD MSTORE PUSH1 0x64 ADD PUSH2 0x30E JUMP JUMPDEST DUP3 MLOAD PUSH0 SWAP1 PUSH2 0xA21 SWAP1 PUSH2 0x2710 PUSH2 0x13E3 JUMP JUMPDEST PUSH2 0xA2B SWAP1 DUP11 PUSH2 0x13CC JUMP JUMPDEST SWAP1 POP PUSH0 PUSH2 0xA38 DUP4 DUP4 PUSH2 0x13CC JUMP JUMPDEST SWAP1 POP PUSH0 DUP3 PUSH2 0xA48 PUSH2 0x2710 DUP8 PUSH2 0x13CC JUMP JUMPDEST PUSH2 0xA52 SWAP2 SWAP1 PUSH2 0x1415 JUMP JUMPDEST SWAP1 POP PUSH2 0xA5E DUP2 DUP4 PUSH2 0x13F6 JUMP JUMPDEST SWAP8 POP PUSH2 0x2710 DUP7 PUSH1 0x20 ADD MLOAD GT ISZERO PUSH2 0xA8C JUMPI PUSH1 0x20 DUP7 ADD MLOAD PUSH2 0xA7F PUSH2 0x2710 DUP11 PUSH2 0x13CC JUMP JUMPDEST PUSH2 0xA89 SWAP2 SWAP1 PUSH2 0x13F6 JUMP JUMPDEST SWAP8 POP JUMPDEST POP POP POP POP POP POP POP SWAP4 SWAP3 POP POP POP JUMP JUMPDEST PUSH2 0xAA2 PUSH2 0xF3F JUMP JUMPDEST PUSH1 0x1 DUP1 SLOAD PUSH1 0x1 PUSH1 0x1 PUSH1 0xA0 SHL SUB DUP4 DUP2 AND PUSH1 0x1 PUSH1 0x1 PUSH1 0xA0 SHL SUB NOT DUP4 AND DUP2 OR SWAP1 SWAP4 SSTORE PUSH1 0x40 MLOAD SWAP2 AND SWAP2 SWAP1 DUP3 SWAP1 PUSH32 0xAC42006B88ADB1EFCF4E9C3898BF1F0AD6B79559ABABBFDF9358497D5CCBAC2 SWAP1 PUSH0 SWAP1 LOG3 POP POP JUMP JUMPDEST PUSH2 0xAFB PUSH2 0xF3F JUMP JUMPDEST PUSH2 0xB04 PUSH0 PUSH2 0xF6B JUMP JUMPDEST JUMP JUMPDEST PUSH0 DUP5 DUP5 CALLDATALOAD PUSH1 0x20 DUP7 ADD CALLDATALOAD PUSH2 0xB1C PUSH1 0x40 DUP9 ADD DUP9 PUSH2 0x1428 JUMP JUMPDEST DUP9 PUSH1 0x60 ADD CALLDATALOAD PUSH1 0x40 MLOAD PUSH1 0x20 ADD PUSH2 0xB36 SWAP7 SWAP6 SWAP5 SWAP4 SWAP3 SWAP2 SWAP1 PUSH2 0x1475 JUMP JUMPDEST PUSH1 0x40 MLOAD PUSH1 0x20 DUP2 DUP4 SUB SUB DUP2 MSTORE SWAP1 PUSH1 0x40 MSTORE DUP1 MLOAD SWAP1 PUSH1 0x20 ADD KECCAK256 SWAP1 POP PUSH0 PUSH2 0xBC3 PUSH2 0xB88 DUP4 PUSH32 0x19457468657265756D205369676E6564204D6573736167653A0A333200000000 PUSH0 SWAP1 DUP2 MSTORE PUSH1 0x1C SWAP2 SWAP1 SWAP2 MSTORE PUSH1 0x3C SWAP1 KECCAK256 SWAP1 JUMP JUMPDEST DUP6 DUP6 DUP1 DUP1 PUSH1 0x1F ADD PUSH1 0x20 DUP1 SWAP2 DIV MUL PUSH1 0x20 ADD PUSH1 0x40 MLOAD SWAP1 DUP2 ADD PUSH1 0x40 MSTORE DUP1 SWAP4 SWAP3 SWAP2 SWAP1 DUP2 DUP2 MSTORE PUSH1 0x20 ADD DUP4 DUP4 DUP1 DUP3 DUP5 CALLDATACOPY PUSH0 SWAP3 ADD SWAP2 SWAP1 SWAP2 MSTORE POP PUSH2 0xFBA SWAP3 POP POP POP JUMP JUMPDEST PUSH1 0x1 SLOAD SWAP1 SWAP2 POP PUSH1 0x1 PUSH1 0x1 PUSH1 0xA0 SHL SUB DUP1 DUP4 AND SWAP2 AND EQ PUSH2 0xC1A JUMPI PUSH1 0x40 MLOAD PUSH3 0x461BCD PUSH1 0xE5 SHL DUP2 MSTORE PUSH1 0x20 PUSH1 0x4 DUP3 ADD MSTORE PUSH1 0x14 PUSH1 0x24 DUP3 ADD MSTORE PUSH20 0x496E76616C6964204149207369676E6174757265 PUSH1 0x60 SHL PUSH1 0x44 DUP3 ADD MSTORE PUSH1 0x64 ADD PUSH2 0x30E JUMP JUMPDEST PUSH2 0x3E8 DUP6 CALLDATALOAD GT ISZERO PUSH2 0xC61 JUMPI PUSH1 0x40 MLOAD PUSH3 0x461BCD PUSH1 0xE5 SHL DUP2 MSTORE PUSH1 0x20 PUSH1 0x4 DUP3 ADD MSTORE PUSH1 0x11 PUSH1 0x24 DUP3 ADD MSTORE PUSH17 0x8CCACA40E4C2E8CA40E8DEDE40D0D2CED PUSH1 0x7B SHL PUSH1 0x44 DUP3 ADD MSTORE PUSH1 0x64 ADD PUSH2 0x30E JUMP JUMPDEST PUSH2 0xC71 PUSH1 0xA0 DUP7 ADD PUSH1 0x80 DUP8 ADD PUSH2 0x14E8 JUMP JUMPDEST PUSH2 0xCB3 JUMPI PUSH1 0x40 MLOAD PUSH3 0x461BCD PUSH1 0xE5 SHL DUP2 MSTORE PUSH1 0x20 PUSH1 0x4 DUP3 ADD MSTORE PUSH1 0x13 PUSH1 0x24 DUP3 ADD MSTORE PUSH19 0x506F6F6C206D75737420626520616374697665 PUSH1 0x68 SHL PUSH1 0x44 DUP3 ADD MSTORE PUSH1 0x64 ADD PUSH2 0x30E JUMP JUMPDEST PUSH1 0x1 PUSH1 0x1 PUSH1 0xA0 SHL SUB DUP7 AND PUSH0 SWAP1 DUP2 MSTORE PUSH1 0x2 PUSH1 0x20 MSTORE PUSH1 0x40 SWAP1 KECCAK256 PUSH1 0x3 ADD SLOAD PUSH1 0x60 DUP7 ADD CALLDATALOAD GT PUSH2 0xD17 JUMPI PUSH1 0x40 MLOAD PUSH3 0x461BCD PUSH1 0xE5 SHL DUP2 MSTORE PUSH1 0x20 PUSH1 0x4 DUP3 ADD MSTORE PUSH1 0x14 PUSH1 0x24 DUP3 ADD MSTORE PUSH20 0x2830B930B6B2BA32B939903737BA103732BBB2B9 PUSH1 0x61 SHL PUSH1 0x44 DUP3 ADD MSTORE PUSH1 0x64 ADD PUSH2 0x30E JUMP JUMPDEST PUSH1 0x1 PUSH1 0x1 PUSH1 0xA0 SHL SUB DUP7 AND PUSH0 SWAP1 DUP2 MSTORE PUSH1 0x2 PUSH1 0x20 MSTORE PUSH1 0x40 SWAP1 KECCAK256 DUP6 SWAP1 PUSH2 0xD3A DUP3 DUP3 PUSH2 0x15B9 JUMP JUMPDEST POP POP PUSH1 0x1 SLOAD PUSH1 0x40 MLOAD PUSH1 0x1 PUSH1 0x1 PUSH1 0xA0 SHL SUB SWAP2 DUP3 AND SWAP2 DUP9 AND SWAP1 PUSH32 0x62BFE367173B5066D6164C7DBE35C3075529CBA30C8FA799527219907CA96DBC SWAP1 PUSH2 0xD7E SWAP1 DUP10 SWAP1 PUSH2 0x167E JUMP JUMPDEST PUSH1 0x40 MLOAD DUP1 SWAP2 SUB SWAP1 LOG3 POP POP POP POP POP POP JUMP JUMPDEST PUSH1 0x40 MLOAD PUSH12 0xFFFFFFFFFFFFFFFFFFFFFFFF NOT PUSH1 0x60 DUP5 DUP2 SHL DUP3 AND PUSH1 0x20 DUP5 ADD MSTORE DUP4 SWAP1 SHL AND PUSH1 0x34 DUP3 ADD MSTORE PUSH0 SWAP1 PUSH1 0x48 ADD PUSH1 0x40 MLOAD PUSH1 0x20 DUP2 DUP4 SUB SUB DUP2 MSTORE SWAP1 PUSH1 0x40 MSTORE DUP1 MLOAD SWAP1 PUSH1 0x20 ADD KECCAK256 PUSH0 SHR SWAP1 POP JUMPDEST SWAP3 SWAP2 POP POP JUMP JUMPDEST PUSH2 0xDE2 PUSH2 0xF3F JUMP JUMPDEST PUSH1 0x1 PUSH1 0x1 PUSH1 0xA0 SHL SUB DUP2 AND PUSH2 0xE0B JUMPI PUSH1 0x40 MLOAD PUSH4 0x1E4FBDF7 PUSH1 0xE0 SHL DUP2 MSTORE PUSH0 PUSH1 0x4 DUP3 ADD MSTORE PUSH1 0x24 ADD PUSH2 0x30E JUMP JUMPDEST PUSH2 0xE14 DUP2 PUSH2 0xF6B JUMP JUMPDEST POP JUMP JUMPDEST PUSH1 0x40 MLOAD PUSH1 0x1 PUSH1 0x1 PUSH1 0xA0 SHL SUB DUP5 DUP2 AND PUSH1 0x24 DUP4 ADD MSTORE DUP4 DUP2 AND PUSH1 0x44 DUP4 ADD MSTORE PUSH1 0x64 DUP3 ADD DUP4 SWAP1 MSTORE PUSH2 0xE7E SWAP2 DUP7 SWAP2 DUP3 AND SWAP1 PUSH4 0x23B872DD SWAP1 PUSH1 0x84 ADD JUMPDEST PUSH1 0x40 MLOAD PUSH1 0x20 DUP2 DUP4 SUB SUB DUP2 MSTORE SWAP1 PUSH1 0x40 MSTORE SWAP2 POP PUSH1 0xE0 SHL PUSH1 0x20 DUP3 ADD DUP1 MLOAD PUSH1 0x1 PUSH1 0x1 PUSH1 0xE0 SHL SUB DUP4 DUP2 DUP4 AND OR DUP4 MSTORE POP POP POP POP PUSH2 0xFE2 JUMP JUMPDEST POP POP POP POP JUMP JUMPDEST PUSH0 PUSH1 0x3 DUP3 GT ISZERO PUSH2 0xEE3 JUMPI POP DUP1 PUSH0 PUSH2 0xE9C PUSH1 0x2 DUP4 PUSH2 0x13F6 JUMP JUMPDEST PUSH2 0xEA7 SWAP1 PUSH1 0x1 PUSH2 0x1415 JUMP JUMPDEST SWAP1 POP JUMPDEST DUP2 DUP2 LT ISZERO PUSH2 0xEDD JUMPI SWAP1 POP DUP1 PUSH1 0x2 DUP2 PUSH2 0xEC2 DUP2 DUP7 PUSH2 0x13F6 JUMP JUMPDEST PUSH2 0xECC SWAP2 SWAP1 PUSH2 0x1415 JUMP JUMPDEST PUSH2 0xED6 SWAP2 SWAP1 PUSH2 0x13F6 JUMP JUMPDEST SWAP1 POP PUSH2 0xEAA JUMP JUMPDEST POP SWAP2 SWAP1 POP JUMP JUMPDEST DUP2 ISZERO PUSH2 0xEED JUMPI POP PUSH1 0x1 JUMPDEST SWAP2 SWAP1 POP JUMP JUMPDEST PUSH0 DUP2 DUP4 LT PUSH2 0xF00 JUMPI DUP2 PUSH2 0xF02 JUMP JUMPDEST DUP3 JUMPDEST SWAP4 SWAP3 POP POP POP JUMP JUMPDEST PUSH1 0x40 MLOAD PUSH1 0x1 PUSH1 0x1 PUSH1 0xA0 SHL SUB DUP4 DUP2 AND PUSH1 0x24 DUP4 ADD MSTORE PUSH1 0x44 DUP3 ADD DUP4 SWAP1 MSTORE PUSH2 0xF3A SWAP2 DUP6 SWAP2 DUP3 AND SWAP1 PUSH4 0xA9059CBB SWAP1 PUSH1 0x64 ADD PUSH2 0xE4C JUMP JUMPDEST POP POP POP JUMP JUMPDEST PUSH0 SLOAD PUSH1 0x1 PUSH1 0x1 PUSH1 0xA0 SHL SUB AND CALLER EQ PUSH2 0xB04 JUMPI PUSH1 0x40 MLOAD PUSH4 0x118CDAA7 PUSH1 0xE0 SHL DUP2 MSTORE CALLER PUSH1 0x4 DUP3 ADD MSTORE PUSH1 0x24 ADD PUSH2 0x30E JUMP JUMPDEST PUSH0 DUP1 SLOAD PUSH1 0x1 PUSH1 0x1 PUSH1 0xA0 SHL SUB DUP4 DUP2 AND PUSH1 0x1 PUSH1 0x1 PUSH1 0xA0 SHL SUB NOT DUP4 AND DUP2 OR DUP5 SSTORE PUSH1 0x40 MLOAD SWAP2 SWAP1 SWAP3 AND SWAP3 DUP4 SWAP2 PUSH32 0x8BE0079C531659141344CD1FD0A4F28419497F9722A3DAAFE3B4186F6B6457E0 SWAP2 SWAP1 LOG3 POP POP JUMP JUMPDEST PUSH0 DUP1 PUSH0 DUP1 PUSH2 0xFC8 DUP7 DUP7 PUSH2 0x104E JUMP JUMPDEST SWAP3 POP SWAP3 POP SWAP3 POP PUSH2 0xFD8 DUP3 DUP3 PUSH2 0x1097 JUMP JUMPDEST POP SWAP1 SWAP5 SWAP4 POP POP POP POP JUMP JUMPDEST PUSH0 DUP1 PUSH1 0x20 PUSH0 DUP5 MLOAD PUSH1 0x20 DUP7 ADD PUSH0 DUP9 GAS CALL DUP1 PUSH2 0x1001 JUMPI PUSH1 0x40 MLOAD RETURNDATASIZE PUSH0 DUP3 RETURNDATACOPY RETURNDATASIZE DUP2 REVERT JUMPDEST POP POP PUSH0 MLOAD RETURNDATASIZE SWAP2 POP DUP2 ISZERO PUSH2 0x1018 JUMPI DUP1 PUSH1 0x1 EQ ISZERO PUSH2 0x1025 JUMP JUMPDEST PUSH1 0x1 PUSH1 0x1 PUSH1 0xA0 SHL SUB DUP5 AND EXTCODESIZE ISZERO JUMPDEST ISZERO PUSH2 0xE7E JUMPI PUSH1 0x40 MLOAD PUSH4 0x5274AFE7 PUSH1 0xE0 SHL DUP2 MSTORE PUSH1 0x1 PUSH1 0x1 PUSH1 0xA0 SHL SUB DUP6 AND PUSH1 0x4 DUP3 ADD MSTORE PUSH1 0x24 ADD PUSH2 0x30E JUMP JUMPDEST PUSH0 DUP1 PUSH0 DUP4 MLOAD PUSH1 0x41 SUB PUSH2 0x1085 JUMPI PUSH1 0x20 DUP5 ADD MLOAD PUSH1 0x40 DUP6 ADD MLOAD PUSH1 0x60 DUP7 ADD MLOAD PUSH0 BYTE PUSH2 0x1077 DUP9 DUP3 DUP6 DUP6 PUSH2 0x1153 JUMP JUMPDEST SWAP6 POP SWAP6 POP SWAP6 POP POP POP POP PUSH2 0x1090 JUMP JUMPDEST POP POP DUP2 MLOAD PUSH0 SWAP2 POP PUSH1 0x2 SWAP1 JUMPDEST SWAP3 POP SWAP3 POP SWAP3 JUMP JUMPDEST PUSH0 DUP3 PUSH1 0x3 DUP2 GT ISZERO PUSH2 0x10AA JUMPI PUSH2 0x10AA PUSH2 0x1715 JUMP JUMPDEST SUB PUSH2 0x10B3 JUMPI POP POP JUMP JUMPDEST PUSH1 0x1 DUP3 PUSH1 0x3 DUP2 GT ISZERO PUSH2 0x10C7 JUMPI PUSH2 0x10C7 PUSH2 0x1715 JUMP JUMPDEST SUB PUSH2 0x10E5 JUMPI PUSH1 0x40 MLOAD PUSH4 0xF645EEDF PUSH1 0xE0 SHL DUP2 MSTORE PUSH1 0x4 ADD PUSH1 0x40 MLOAD DUP1 SWAP2 SUB SWAP1 REVERT JUMPDEST PUSH1 0x2 DUP3 PUSH1 0x3 DUP2 GT ISZERO PUSH2 0x10F9 JUMPI PUSH2 0x10F9 PUSH2 0x1715 JUMP JUMPDEST SUB PUSH2 0x111A JUMPI PUSH1 0x40 MLOAD PUSH4 0xFCE698F7 PUSH1 0xE0 SHL DUP2 MSTORE PUSH1 0x4 DUP2 ADD DUP3 SWAP1 MSTORE PUSH1 0x24 ADD PUSH2 0x30E JUMP JUMPDEST PUSH1 0x3 DUP3 PUSH1 0x3 DUP2 GT ISZERO PUSH2 0x112E JUMPI PUSH2 0x112E PUSH2 0x1715 JUMP JUMPDEST SUB PUSH2 0x114F JUMPI PUSH1 0x40 MLOAD PUSH4 0x35E2F383 PUSH1 0xE2 SHL DUP2 MSTORE PUSH1 0x4 DUP2 ADD DUP3 SWAP1 MSTORE PUSH1 0x24 ADD PUSH2 0x30E JUMP JUMPDEST POP POP JUMP JUMPDEST PUSH0 DUP1 DUP1 PUSH32 0x7FFFFFFFFFFFFFFFFFFFFFFFFFFFFFFF5D576E7357A4501DDFE92F46681B20A0 DUP5 GT ISZERO PUSH2 0x118C JUMPI POP PUSH0 SWAP2 POP PUSH1 0x3 SWAP1 POP DUP3 PUSH2 0x1211 JUMP JUMPDEST PUSH1 0x40 DUP1 MLOAD PUSH0 DUP1 DUP3 MSTORE PUSH1 0x20 DUP3 ADD DUP1 DUP5 MSTORE DUP11 SWAP1 MSTORE PUSH1 0xFF DUP10 AND SWAP3 DUP3 ADD SWAP3 SWAP1 SWAP3 MSTORE PUSH1 0x60 DUP2 ADD DUP8 SWAP1 MSTORE PUSH1 0x80 DUP2 ADD DUP7 SWAP1 MSTORE PUSH1 0x1 SWAP1 PUSH1 0xA0 ADD PUSH1 0x20 PUSH1 0x40 MLOAD PUSH1 0x20 DUP2 SUB SWAP1 DUP1 DUP5 SUB SWAP1 DUP6 GAS STATICCALL ISZERO DUP1 ISZERO PUSH2 0x11DD JUMPI RETURNDATASIZE PUSH0 DUP1 RETURNDATACOPY RETURNDATASIZE PUSH0 REVERT JUMPDEST POP POP PUSH1 0x40 MLOAD PUSH1 0x1F NOT ADD MLOAD SWAP2 POP POP PUSH1 0x1 PUSH1 0x1 PUSH1 0xA0 SHL SUB DUP2 AND PUSH2 0x1208 JUMPI POP PUSH0 SWAP3 POP PUSH1 0x1 SWAP2 POP DUP3 SWAP1 POP PUSH2 0x1211 JUMP JUMPDEST SWAP3 POP PUSH0 SWAP2 POP DUP2 SWAP1 POP JUMPDEST SWAP5 POP SWAP5 POP SWAP5 SWAP2 POP POP JUMP JUMPDEST DUP1 CALLDATALOAD PUSH1 0x1 PUSH1 0x1 PUSH1 0xA0 SHL SUB DUP2 AND DUP2 EQ PUSH2 0xEED JUMPI PUSH0 DUP1 REVERT JUMPDEST PUSH0 DUP1 PUSH0 DUP1 PUSH0 PUSH1 0xA0 DUP7 DUP9 SUB SLT ISZERO PUSH2 0x1245 JUMPI PUSH0 DUP1 REVERT JUMPDEST PUSH2 0x124E DUP7 PUSH2 0x121B JUMP JUMPDEST SWAP5 POP PUSH2 0x125C PUSH1 0x20 DUP8 ADD PUSH2 0x121B JUMP JUMPDEST SWAP4 POP PUSH1 0x40 DUP7 ADD CALLDATALOAD SWAP3 POP PUSH1 0x60 DUP7 ADD CALLDATALOAD SWAP2 POP PUSH2 0x1278 PUSH1 0x80 DUP8 ADD PUSH2 0x121B JUMP JUMPDEST SWAP1 POP SWAP3 SWAP6 POP SWAP3 SWAP6 SWAP1 SWAP4 POP JUMP JUMPDEST PUSH0 PUSH1 0xC0 DUP3 DUP5 SUB SLT ISZERO PUSH2 0xEDD JUMPI PUSH0 DUP1 REVERT JUMPDEST PUSH0 DUP1 PUSH0 PUSH1 0x60 DUP5 DUP7 SUB SLT ISZERO PUSH2 0x12A6 JUMPI PUSH0 DUP1 REVERT JUMPDEST DUP4 CALLDATALOAD SWAP3 POP PUSH2 0x12B6 PUSH1 0x20 DUP6 ADD PUSH2 0x121B JUMP JUMPDEST SWAP2 POP PUSH2 0x12C4 PUSH1 0x40 DUP6 ADD PUSH2 0x121B JUMP JUMPDEST SWAP1 POP SWAP3 POP SWAP3 POP SWAP3 JUMP JUMPDEST PUSH0 PUSH1 0x20 DUP3 DUP5 SUB SLT ISZERO PUSH2 0x12DD JUMPI PUSH0 DUP1 REVERT JUMPDEST PUSH2 0xF02 DUP3 PUSH2 0x121B JUMP JUMPDEST PUSH0 DUP1 PUSH0 DUP1 PUSH1 0x60 DUP6 DUP8 SUB SLT ISZERO PUSH2 0x12F9 JUMPI PUSH0 DUP1 REVERT JUMPDEST PUSH2 0x1302 DUP6 PUSH2 0x121B JUMP JUMPDEST SWAP4 POP PUSH1 0x20 DUP6 ADD CALLDATALOAD PUSH8 0xFFFFFFFFFFFFFFFF DUP1 DUP3 GT ISZERO PUSH2 0x131E JUMPI PUSH0 DUP1 REVERT JUMPDEST SWAP1 DUP7 ADD SWAP1 PUSH1 0xA0 DUP3 DUP10 SUB SLT ISZERO PUSH2 0x1331 JUMPI PUSH0 DUP1 REVERT JUMPDEST SWAP1 SWAP4 POP PUSH1 0x40 DUP7 ADD CALLDATALOAD SWAP1 DUP1 DUP3 GT ISZERO PUSH2 0x1346 JUMPI PUSH0 DUP1 REVERT JUMPDEST DUP2 DUP8 ADD SWAP2 POP DUP8 PUSH1 0x1F DUP4 ADD SLT PUSH2 0x1359 JUMPI PUSH0 DUP1 REVERT JUMPDEST DUP2 CALLDATALOAD DUP2 DUP2 GT ISZERO PUSH2 0x1367 JUMPI PUSH0 DUP1 REVERT JUMPDEST DUP9 PUSH1 0x20 DUP3 DUP6 ADD ADD GT ISZERO PUSH2 0x1378 JUMPI PUSH0 DUP1 REVERT JUMPDEST SWAP6 SWAP9 SWAP5 SWAP8 POP POP PUSH1 0x20 ADD SWAP5 POP POP POP JUMP JUMPDEST PUSH0 DUP1 PUSH1 0x40 DUP4 DUP6 SUB SLT ISZERO PUSH2 0x1398 JUMPI PUSH0 DUP1 REVERT JUMPDEST PUSH2 0x13A1 DUP4 PUSH2 0x121B JUMP JUMPDEST SWAP2 POP PUSH2 0x13AF PUSH1 0x20 DUP5 ADD PUSH2 0x121B JUMP JUMPDEST SWAP1 POP SWAP3 POP SWAP3 SWAP1 POP JUMP JUMPDEST PUSH4 0x4E487B71 PUSH1 0xE0 SHL PUSH0 MSTORE PUSH1 0x11 PUSH1 0x4 MSTORE PUSH1 0x24 PUSH0 REVERT JUMPDEST DUP1 DUP3 MUL DUP2 ISZERO DUP3 DUP3 DIV DUP5 EQ OR PUSH2 0xDD4 JUMPI PUSH2 0xDD4 PUSH2 0x13B8 JUMP JUMPDEST DUP2 DUP2 SUB DUP2 DUP2 GT ISZERO PUSH2 0xDD4 JUMPI PUSH2 0xDD4 PUSH2 0x13B8 JUMP JUMPDEST PUSH0 DUP3 PUSH2 0x1410 JUMPI PUSH4 0x4E487B71 PUSH1 0xE0 SHL PUSH0 MSTORE PUSH1 0x12 PUSH1 0x4 MSTORE PUSH1 0x24 PUSH0 REVERT JUMPDEST POP DIV SWAP1 JUMP JUMPDEST DUP1 DUP3 ADD DUP1 DUP3 GT ISZERO PUSH2 0xDD4 JUMPI PUSH2 0xDD4 PUSH2 0x13B8 JUMP JUMPDEST PUSH0 DUP1 DUP4 CALLDATALOAD PUSH1 0x1E NOT DUP5 CALLDATASIZE SUB ADD DUP2 SLT PUSH2 0x143D JUMPI PUSH0 DUP1 REVERT JUMPDEST DUP4 ADD DUP1 CALLDATALOAD SWAP2 POP PUSH8 0xFFFFFFFFFFFFFFFF DUP3 GT ISZERO PUSH2 0x1457 JUMPI PUSH0 DUP1 REVERT JUMPDEST PUSH1 0x20 ADD SWAP2 POP PUSH1 0x5 DUP2 SWAP1 SHL CALLDATASIZE SUB DUP3 SGT ISZERO PUSH2 0x146E JUMPI PUSH0 DUP1 REVERT JUMPDEST SWAP3 POP SWAP3 SWAP1 POP JUMP JUMPDEST PUSH1 0x60 DUP8 SWAP1 SHL PUSH12 0xFFFFFFFFFFFFFFFFFFFFFFFF NOT AND DUP2 MSTORE PUSH1 0x14 DUP2 ADD DUP7 SWAP1 MSTORE PUSH1 0x34 DUP2 ADD DUP6 SWAP1 MSTORE PUSH0 PUSH1 0x1 PUSH1 0x1 PUSH1 0xFB SHL SUB DUP5 GT ISZERO PUSH2 0x14AD JUMPI PUSH0 DUP1 REVERT JUMPDEST DUP4 PUSH1 0x5 SHL DUP1 DUP7 PUSH1 0x54 DUP6 ADD CALLDATACOPY PUSH1 0x54 SWAP3 ADD SWAP2 DUP3 ADD SWAP3 SWAP1 SWAP3 MSTORE PUSH1 0x74 ADD SWAP7 SWAP6 POP POP POP POP POP POP JUMP JUMPDEST DUP1 ISZERO ISZERO DUP2 EQ PUSH2 0xE14 JUMPI PUSH0 DUP1 REVERT JUMPDEST DUP1 CALLDATALOAD PUSH2 0xEED DUP2 PUSH2 0x14D0 JUMP JUMPDEST PUSH0 PUSH1 0x20 DUP3 DUP5 SUB SLT ISZERO PUSH2 0x14F8 JUMPI PUSH0 DUP1 REVERT JUMPDEST DUP2 CALLDATALOAD PUSH2 0xF02 DUP2 PUSH2 0x14D0 JUMP JUMPDEST PUSH4 0x4E487B71 PUSH1 0xE0 SHL PUSH0 MSTORE PUSH1 0x41 PUSH1 0x4 MSTORE PUSH1 0x24 PUSH0 REVERT JUMPDEST PUSH8 0xFFFFFFFFFFFFFFFF DUP4 GT ISZERO PUSH2 0x152F JUMPI PUSH2 0x152F PUSH2 0x1503 JUMP JUMPDEST PUSH9 0x10000000000000000 DUP4 GT ISZERO PUSH2 0x1548 JUMPI PUSH2 0x1548 PUSH2 0x1503 JUMP JUMPDEST DUP1 SLOAD DUP4 DUP3 SSTORE DUP1 DUP5 LT ISZERO PUSH2 0x157D JUMPI PUSH0 DUP3 DUP2 MSTORE PUSH1 0x20 SWAP1 KECCAK256 DUP5 DUP2 ADD SWAP1 DUP3 ADD JUMPDEST DUP1 DUP3 LT ISZERO PUSH2 0x157A JUMPI PUSH0 DUP3 SSTORE PUSH1 0x1 DUP3 ADD SWAP2 POP PUSH2 0x1564 JUMP JUMPDEST POP POP JUMPDEST POP PUSH0 DUP2 DUP2 MSTORE PUSH1 0x20 DUP2 KECCAK256 DUP4 SWAP2 JUMPDEST DUP6 DUP2 LT ISZERO PUSH2 0x15A5 JUMPI DUP3 CALLDATALOAD DUP3 DUP3 ADD SSTORE PUSH1 0x20 SWAP1 SWAP3 ADD SWAP2 PUSH1 0x1 ADD PUSH2 0x1589 JUMP JUMPDEST POP POP POP POP POP POP JUMP JUMPDEST PUSH0 DUP2 CALLDATALOAD PUSH2 0xDD4 DUP2 PUSH2 0x14D0 JUMP JUMPDEST DUP2 CALLDATALOAD DUP2 SSTORE PUSH1 0x20 DUP3 ADD CALLDATALOAD PUSH1 0x1 DUP3 ADD SSTORE PUSH1 0x40 DUP3 ADD CALLDATALOAD PUSH1 0x1E NOT DUP4 CALLDATASIZE SUB ADD DUP2 SLT PUSH2 0x15DD JUMPI PUSH0 DUP1 REVERT JUMPDEST DUP3 ADD DUP1 CALLDATALOAD PUSH8 0xFFFFFFFFFFFFFFFF DUP2 GT ISZERO PUSH2 0x15F5 JUMPI PUSH0 DUP1 REVERT JUMPDEST PUSH1 0x20 DUP3 ADD SWAP2 POP DUP1 PUSH1 0x5 SHL CALLDATASIZE SUB DUP3 SGT ISZERO PUSH2 0x160C JUMPI PUSH0 DUP1 REVERT JUMPDEST PUSH2 0x161A DUP2 DUP4 PUSH1 0x2 DUP7 ADD PUSH2 0x1517 JUMP JUMPDEST POP POP PUSH1 0x60 DUP3 ADD CALLDATALOAD PUSH1 0x3 DUP3 ADD SSTORE PUSH2 0x114F PUSH2 0x1635 PUSH1 0x80 DUP5 ADD PUSH2 0x15AD JUMP JUMPDEST PUSH1 0x4 DUP4 ADD PUSH1 0xFF NOT DUP2 SLOAD AND PUSH1 0xFF DUP4 ISZERO ISZERO AND DUP2 OR DUP3 SSTORE POP POP POP JUMP JUMPDEST DUP2 DUP4 MSTORE PUSH0 PUSH1 0x1 PUSH1 0x1 PUSH1 0xFB SHL SUB DUP4 GT ISZERO PUSH2 0x1665 JUMPI PUSH0 DUP1 REVERT JUMPDEST DUP3 PUSH1 0x5 SHL DUP1 DUP4 PUSH1 0x20 DUP8 ADD CALLDATACOPY SWAP4 SWAP1 SWAP4 ADD PUSH1 0x20 ADD SWAP4 SWAP3 POP POP POP JUMP JUMPDEST PUSH1 0x20 DUP2 MSTORE DUP2 CALLDATALOAD PUSH1 0x20 DUP3 ADD MSTORE PUSH1 0x20 DUP3 ADD CALLDATALOAD PUSH1 0x40 DUP3 ADD MSTORE PUSH0 PUSH1 0x40 DUP4 ADD CALLDATALOAD PUSH1 0x1E NOT DUP5 CALLDATASIZE SUB ADD DUP2 SLT PUSH2 0x16AA JUMPI PUSH0 DUP1 REVERT JUMPDEST DUP4 ADD PUSH1 0x20 DUP2 ADD SWAP1 CALLDATALOAD PUSH8 0xFFFFFFFFFFFFFFFF DUP2 GT ISZERO PUSH2 0x16C6 JUMPI PUSH0 DUP1 REVERT JUMPDEST DUP1 PUSH1 0x5 SHL CALLDATASIZE SUB DUP3 SGT ISZERO PUSH2 0x16D7 JUMPI PUSH0 DUP1 REVERT JUMPDEST PUSH1 0xA0 PUSH1 0x60 DUP6 ADD MSTORE PUSH2 0x16EC PUSH1 0xC0 DUP6 ADD DUP3 DUP5 PUSH2 0x164E JUMP JUMPDEST SWAP2 POP POP PUSH1 0x60 DUP5 ADD CALLDATALOAD PUSH1 0x80 DUP5 ADD MSTORE PUSH2 0x1705 PUSH1 0x80 DUP6 ADD PUSH2 0x14DD JUMP JUMPDEST DUP1 ISZERO ISZERO PUSH1 0xA0 DUP6 ADD MSTORE POP SWAP4 SWAP3 POP POP POP JUMP JUMPDEST PUSH4 0x4E487B71 PUSH1 0xE0 SHL PUSH0 MSTORE PUSH1 0x21 PUSH1 0x4 MSTORE PUSH1 0x24 PUSH0 REVERT INVALID LOG2 PUSH5 0x6970667358 0x22 SLT KECCAK256 SDIV DUP7 PUSH31 0x64182ED57D45E179524A39FD627CF710344BE2C78DEB4AD086966A31F76473 PUSH16 0x6C634300081600330000000000000000 "},"methodIdentifiers":{"BASIS_POINTS()":"e1f1c4a7","MAX_FEE_RATE()":"92f6576e","MIN_LIQUIDITY()":"21b77d63","addLiquidity(address,address,uint256,uint256,address)":"4b2fc7bb","aiAgent()":"a6d5b732","balanceOf(address,address)":"f7888aec","getAmountOut(uint256,address,address)":"5e1e6325","getPairAddress(address,address)":"b4f69a2f","owner()":"8da5cb5b","poolParameters(address)":"ebbbbd6d","renounceOwnership()":"715018a6","reserves(address,address)":"ea4afc54","setAIAgent(address)":"6ebe941b","swap((address,address,uint256,uint256,address,uint256))":"56e87df9","totalSupply(address)":"e4dc2aa4","transferOwnership(address)":"f2fde38b","updateParameters(address,(uint256,uint256,uint256[],uint256,bool),bytes)":"938ffd85"}}}}}