{
  "_format": "hh3-artifact-1",
  "contractName": "ChainlinkCCIPAMM",
  "sourceName": "contracts/cross-chain/ChainlinkCCIPAMM.sol",
  "abi": [
    {
      "inputs": [
        {
          "internalType": "address",
          "name": "_router",
          "type": "address"
        },
        {
          "internalType": "address",
          "name": "_aimm",
          "type": "address"
        }
      ],
      "stateMutability": "nonpayable",
      "type": "constructor"
    },
    {
      "inputs": [
        {
          "internalType": "uint64",
          "name": "destinationChainSelector",
          "type": "uint64"
        }
      ],
      "name": "DestinationChainNotAllowed",
      "type": "error"
    },
    {
      "inputs": [],
      "name": "InvalidReceiverAddress",
      "type": "error"
    },
    {
      "inputs": [
        {
          "internalType": "uint256",
          "name": "currentBalance",
          "type": "uint256"
        },
        {
          "internalType": "uint256",
          "name": "calculatedFees",
          "type": "uint256"
        }
      ],
      "name": "NotEnoughBalance",
      "type": "error"
    },
    {
      "inputs": [
        {
          "internalType": "address",
          "name": "owner",
          "type": "address"
        }
      ],
      "name": "OwnableInvalidOwner",
      "type": "error"
    },
    {
      "inputs": [
        {
          "internalType": "address",
          "name": "account",
          "type": "address"
        }
      ],
      "name": "OwnableUnauthorizedAccount",
      "type": "error"
    },
    {
      "inputs": [
        {
          "internalType": "address",
          "name": "sender",
          "type": "address"
        }
      ],
      "name": "SenderNotAllowed",
      "type": "error"
    },
    {
      "inputs": [
        {
          "internalType": "uint64",
          "name": "sourceChainSelector",
          "type": "uint64"
        }
      ],
      "name": "SourceChainNotAllowed",
      "type": "error"
    },
    {
      "anonymous": false,
      "inputs": [
        {
          "indexed": true,
          "internalType": "bytes32",
          "name": "messageId",
          "type": "bytes32"
        },
        {
          "indexed": true,
          "internalType": "uint64",
          "name": "sourceChainSelector",
          "type": "uint64"
        },
        {
          "indexed": false,
          "internalType": "address",
          "name": "sender",
          "type": "address"
        },
        {
          "indexed": false,
          "internalType": "bytes",
          "name": "data",
          "type": "bytes"
        }
      ],
      "name": "MessageReceived",
      "type": "event"
    },
    {
      "anonymous": false,
      "inputs": [
        {
          "indexed": true,
          "internalType": "bytes32",
          "name": "messageId",
          "type": "bytes32"
        },
        {
          "indexed": true,
          "internalType": "uint64",
          "name": "destinationChainSelector",
          "type": "uint64"
        },
        {
          "indexed": false,
          "internalType": "address",
          "name": "receiver",
          "type": "address"
        },
        {
          "indexed": false,
          "internalType": "bytes",
          "name": "data",
          "type": "bytes"
        },
        {
          "indexed": false,
          "internalType": "uint256",
          "name": "fees",
          "type": "uint256"
        }
      ],
      "name": "MessageSent",
      "type": "event"
    },
    {
      "anonymous": false,
      "inputs": [
        {
          "indexed": true,
          "internalType": "address",
          "name": "previousOwner",
          "type": "address"
        },
        {
          "indexed": true,
          "internalType": "address",
          "name": "newOwner",
          "type": "address"
        }
      ],
      "name": "OwnershipTransferred",
      "type": "event"
    },
    {
      "anonymous": false,
      "inputs": [
        {
          "indexed": true,
          "internalType": "uint64",
          "name": "sourceChain",
          "type": "uint64"
        },
        {
          "indexed": true,
          "internalType": "address",
          "name": "pool",
          "type": "address"
        },
        {
          "indexed": false,
          "internalType": "uint256",
          "name": "timestamp",
          "type": "uint256"
        }
      ],
      "name": "ParametersSynchronized",
      "type": "event"
    },
    {
      "inputs": [],
      "name": "aimm",
      "outputs": [
        {
          "internalType": "contract IAIMM",
          "name": "",
          "type": "address"
        }
      ],
      "stateMutability": "view",
      "type": "function"
    },
    {
      "inputs": [
        {
          "internalType": "uint64",
          "name": "_destinationChainSelector",
          "type": "uint64"
        },
        {
          "internalType": "bool",
          "name": "_allowed",
          "type": "bool"
        }
      ],
      "name": "allowlistDestinationChain",
      "outputs": [],
      "stateMutability": "nonpayable",
      "type": "function"
    },
    {
      "inputs": [
        {
          "internalType": "address",
          "name": "_sender",
          "type": "address"
        },
        {
          "internalType": "bool",
          "name": "_allowed",
          "type": "bool"
        }
      ],
      "name": "allowlistSender",
      "outputs": [],
      "stateMutability": "nonpayable",
      "type": "function"
    },
    {
      "inputs": [
        {
          "internalType": "uint64",
          "name": "",
          "type": "uint64"
        }
      ],
      "name": "allowlistedChains",
      "outputs": [
        {
          "internalType": "bool",
          "name": "",
          "type": "bool"
        }
      ],
      "stateMutability": "view",
      "type": "function"
    },
    {
      "inputs": [
        {
          "internalType": "address",
          "name": "",
          "type": "address"
        }
      ],
      "name": "allowlistedSenders",
      "outputs": [
        {
          "internalType": "bool",
          "name": "",
          "type": "bool"
        }
      ],
      "stateMutability": "view",
      "type": "function"
    },
    {
      "inputs": [
        {
          "internalType": "uint64",
          "name": "_sourceChainSelector",
          "type": "uint64"
        },
        {
          "internalType": "address",
          "name": "_sender",
          "type": "address"
        },
        {
          "internalType": "bytes",
          "name": "_data",
          "type": "bytes"
        }
      ],
      "name": "ccipReceive",
      "outputs": [],
      "stateMutability": "nonpayable",
      "type": "function"
    },
    {
      "inputs": [],
      "name": "ccipRouter",
      "outputs": [
        {
          "internalType": "address",
          "name": "",
          "type": "address"
        }
      ],
      "stateMutability": "view",
      "type": "function"
    },
    {
      "inputs": [],
      "name": "owner",
      "outputs": [
        {
          "internalType": "address",
          "name": "",
          "type": "address"
        }
      ],
      "stateMutability": "view",
      "type": "function"
    },
    {
      "inputs": [],
      "name": "renounceOwnership",
      "outputs": [],
      "stateMutability": "nonpayable",
      "type": "function"
    },
    {
      "inputs": [
        {
          "internalType": "uint64",
          "name": "_destinationChainSelector",
          "type": "uint64"
        },
        {
          "internalType": "address",
          "name": "_receiver",
          "type": "address"
        },
        {
          "internalType": "address",
          "name": "_pool",
          "type": "address"
        },
        {
          "components": [
            {
              "internalType": "uint256",
              "name": "feeRate",
              "type": "uint256"
            },
            {
              "internalType": "uint256",
              "name": "spreadMultiplier",
              "type": "uint256"
            },
            {
              "internalType": "uint256[]",
              "name": "weights",
              "type": "uint256[]"
            },
            {
              "internalType": "uint256",
              "name": "lastUpdate",
              "type": "uint256"
            },
            {
              "internalType": "bool",
              "name": "isActive",
              "type": "bool"
            }
          ],
          "internalType": "struct IAIMM.PoolParameters",
          "name": "_params",
          "type": "tuple"
        },
        {
          "internalType": "bytes",
          "name": "_aiSignature",
          "type": "bytes"
        }
      ],
      "name": "sendParameterUpdate",
      "outputs": [
        {
          "internalType": "bytes32",
          "name": "messageId",
          "type": "bytes32"
        }
      ],
      "stateMutability": "nonpayable",
      "type": "function"
    },
    {
      "inputs": [
        {
          "internalType": "address",
          "name": "_router",
          "type": "address"
        }
      ],
      "name": "setCCIPRouter",
      "outputs": [],
      "stateMutability": "nonpayable",
      "type": "function"
    },
    {
      "inputs": [
        {
          "internalType": "address",
          "name": "newOwner",
          "type": "address"
        }
      ],
      "name": "transferOwnership",
      "outputs": [],
      "stateMutability": "nonpayable",
      "type": "function"
    },
    {
      "inputs": [
        {
          "internalType": "address",
          "name": "_beneficiary",
          "type": "address"
        }
      ],
      "name": "withdraw",
      "outputs": [],
      "stateMutability": "nonpayable",
      "type": "function"
    },
    {
      "inputs": [
        {
          "internalType": "address",
          "name": "_beneficiary",
          "type": "address"
        },
        {
          "internalType": "address",
          "name": "_token",
          "type": "address"
        }
      ],
      "name": "withdrawToken",
      "outputs": [],
      "stateMutability": "nonpayable",
      "type": "function"
    },
    {
      "stateMutability": "payable",
      "type": "receive"
    }
  ],
  "bytecode": "0x60a060405234801562000010575f80fd5b50604051620017b7380380620017b78339810160408190526200003391620000f6565b33806200005957604051631e4fbdf760e01b81525f600482015260240160405180910390fd5b62000064816200008b565b50600180546001600160a01b0319166001600160a01b03938416179055166080526200012c565b5f80546001600160a01b038381166001600160a01b0319831681178455604051919092169283917f8be0079c531659141344cd1fd0a4f28419497f9722a3daafe3b4186f6b6457e09190a35050565b80516001600160a01b0381168114620000f1575f80fd5b919050565b5f806040838503121562000108575f80fd5b6200011383620000da565b91506200012360208401620000da565b90509250929050565b608051611664620001535f395f818161027b015281816105db0152610ad801526116645ff3fe6080604052600436106100dc575f3560e01c80638da5cb5b1161007c5780639e9236ec116100575780639e9236ec1461026a578063a9bfd4701461029d578063eab5b02c146102bc578063f2fde38b146102db575f80fd5b80638da5cb5b14610202578063930e77161461021e57806396d3b83d1461024b575f80fd5b80633aeac4e1116100b75780633aeac4e11461018257806351cff8d9146101a15780636159ada1146101c0578063715018a6146101ee575f80fd5b80630bb106eb146100e75780630de229841461012a57806331c1e16a14610161575f80fd5b366100e357005b5f80fd5b3480156100f2575f80fd5b50610115610101366004610bd7565b60026020525f908152604090205460ff1681565b60405190151581526020015b60405180910390f35b348015610135575f80fd5b50600154610149906001600160a01b031681565b6040516001600160a01b039091168152602001610121565b34801561016c575f80fd5b5061018061017b366004610c0b565b6102fa565b005b34801561018d575f80fd5b5061018061019c366004610c26565b610324565b3480156101ac575f80fd5b506101806101bb366004610c0b565b610456565b3480156101cb575f80fd5b506101156101da366004610c0b565b60036020525f908152604090205460ff1681565b3480156101f9575f80fd5b5061018061053b565b34801561020d575f80fd5b505f546001600160a01b0316610149565b348015610229575f80fd5b5061023d610238366004610ca1565b61054e565b604051908152602001610121565b348015610256575f80fd5b50610180610265366004610d59565b61079d565b348015610275575f80fd5b506101497f000000000000000000000000000000000000000000000000000000000000000081565b3480156102a8575f80fd5b506101806102b7366004610d83565b6107cf565b3480156102c7575f80fd5b506101806102d6366004610de1565b610953565b3480156102e6575f80fd5b506101806102f5366004610c0b565b610985565b6103026109c2565b600180546001600160a01b0319166001600160a01b0392909216919091179055565b61032c6109c2565b6040516370a0823160e01b81523060048201525f906001600160a01b038316906370a0823190602401602060405180830381865afa158015610370573d5f803e3d5ffd5b505050506040513d601f19601f820116820180604052508101906103949190610dfd565b90505f81116103e05760405162461bcd60e51b81526020600482015260136024820152724e6f7468696e6720746f20776974686472617760681b60448201526064015b60405180910390fd5b60405163a9059cbb60e01b81526001600160a01b0384811660048301526024820183905283169063a9059cbb906044016020604051808303815f875af115801561042c573d5f803e3d5ffd5b505050506040513d601f19601f820116820180604052508101906104509190610e1f565b50505050565b61045e6109c2565b47806104a25760405162461bcd60e51b81526020600482015260136024820152724e6f7468696e6720746f20776974686472617760681b60448201526064016103d7565b5f826001600160a01b0316826040515f6040518083038185875af1925050503d805f81146104eb576040519150601f19603f3d011682016040523d82523d5f602084013e6104f0565b606091505b50509050806105365760405162461bcd60e51b81526020600482015260126024820152714661696c656420746f20776974686472617760701b60448201526064016103d7565b505050565b6105436109c2565b61054c5f6109ee565b565b5f6105576109c2565b6001600160401b0387165f90815260026020526040902054879060ff1661059c5760405163206abad760e01b81526001600160401b03821660048201526024016103d7565b866001600160a01b0381166105c45760405163502ffa3f60e11b815260040160405180910390fd5b60405163938ffd8560e01b81526001600160a01b037f0000000000000000000000000000000000000000000000000000000000000000169063938ffd8590610616908a908a908a908a90600401610e92565b5f604051808303815f87803b15801561062d575f80fd5b505af115801561063f573d5f803e3d5ffd5b505050505f6040518060800160405280896001600160a01b031681526020018861066890610ff1565b815260200187878080601f0160208091040260200160405190810160405280939291908181526020018383808284375f92018290525093855250504260209384015250604051929350916106c091839185910161119d565b604051602081830303815290604052905042816040516020016106e4929190611221565b6040516020818303038152906040528051906020012094508a6001600160401b0316857fbce6a2c2c43067d8a6d6604a7339727cf8ca343d9fd153381e257848afa1f97c8c845f60405161073a93929190611246565b60405180910390a3886001600160a01b03168b6001600160401b03167fe44b4fe5171333420f2aba6cf10010b31c6b5e7f20f3b6fdccadd168eb824be34260405161078791815260200190565b60405180910390a3505050509695505050505050565b6107a56109c2565b6001600160401b03919091165f908152600260205260409020805460ff1916911515919091179055565b6001546001600160a01b0316331461081c5760405162461bcd60e51b815260206004820152601060248201526f27b7363c9021a1a4a8103937baba32b960811b60448201526064016103d7565b6001600160401b0384165f9081526002602052604090205460ff1661085f5760405163042784cf60e31b81526001600160401b03851660048201526024016103d7565b6001600160a01b0383165f9081526003602052604090205460ff166108a2576040516368692cbb60e11b81526001600160a01b03841660048201526024016103d7565b5f806108b08385018561129f565b90925090505f8260028111156108c8576108c86110c2565b036108d6576108d681610a3d565b5f4285856040516020016108ec93929190611334565b604051602081830303815290604052805190602001209050866001600160401b0316817f4add8c8902d6fd412fed639bf652d936405bbb837c732a202153c91e89ebfaa78888886040516109429392919061134d565b60405180910390a350505050505050565b61095b6109c2565b6001600160a01b03919091165f908152600360205260409020805460ff1916911515919091179055565b61098d6109c2565b6001600160a01b0381166109b657604051631e4fbdf760e01b81525f60048201526024016103d7565b6109bf816109ee565b50565b5f546001600160a01b0316331461054c5760405163118cdaa760e01b81523360048201526024016103d7565b5f80546001600160a01b038381166001600160a01b0319831681178455604051919092169283917f8be0079c531659141344cd1fd0a4f28419497f9722a3daafe3b4186f6b6457e09190a35050565b5f81806020019051810190610a5291906113c6565b90508060600151610e10610a669190611529565b421115610ab55760405162461bcd60e51b815260206004820152601860248201527f506172616d657465722075706461746520746f6f206f6c64000000000000000060448201526064016103d7565b80516020820151604080840151905163938ffd8560e01b81526001600160a01b037f0000000000000000000000000000000000000000000000000000000000000000169363938ffd8593610b1093919290919060040161154e565b5f604051808303815f87803b158015610b27575f80fd5b505af1925050508015610b38575060015b610b6d57610b4461158d565b806308c379a003610b635750610b586115a6565b806105365750610b65565b505b3d5f803e3d5ffd5b805f01516001600160a01b03165f7fe44b4fe5171333420f2aba6cf10010b31c6b5e7f20f3b6fdccadd168eb824be38360600151604051610bb091815260200190565b60405180910390a35050565b80356001600160401b0381168114610bd2575f80fd5b919050565b5f60208284031215610be7575f80fd5b610bf082610bbc565b9392505050565b6001600160a01b03811681146109bf575f80fd5b5f60208284031215610c1b575f80fd5b8135610bf081610bf7565b5f8060408385031215610c37575f80fd5b8235610c4281610bf7565b91506020830135610c5281610bf7565b809150509250929050565b5f8083601f840112610c6d575f80fd5b5081356001600160401b03811115610c83575f80fd5b602083019150836020828501011115610c9a575f80fd5b9250929050565b5f805f805f8060a08789031215610cb6575f80fd5b610cbf87610bbc565b95506020870135610ccf81610bf7565b94506040870135610cdf81610bf7565b935060608701356001600160401b0380821115610cfa575f80fd5b9088019060a0828b031215610d0d575f80fd5b90935060808801359080821115610d22575f80fd5b50610d2f89828a01610c5d565b979a9699509497509295939492505050565b80151581146109bf575f80fd5b8035610bd281610d41565b5f8060408385031215610d6a575f80fd5b610d7383610bbc565b91506020830135610c5281610d41565b5f805f8060608587031215610d96575f80fd5b610d9f85610bbc565b93506020850135610daf81610bf7565b925060408501356001600160401b03811115610dc9575f80fd5b610dd587828801610c5d565b95989497509550505050565b5f8060408385031215610df2575f80fd5b8235610d7381610bf7565b5f60208284031215610e0d575f80fd5b5051919050565b8051610bd281610d41565b5f60208284031215610e2f575f80fd5b8151610bf081610d41565b8183525f6001600160fb1b03831115610e51575f80fd5b8260051b80836020870137939093016020019392505050565b81835281816020850137505f828201602090810191909152601f909101601f19169091010190565b60018060a01b03851681526060602082015283356060820152602084013560808201525f6040850135601e19863603018112610ecc575f80fd5b85016020810190356001600160401b03811115610ee7575f80fd5b8060051b3603821315610ef8575f80fd5b60a080850152610f0d61010085018284610e3a565b915050606086013560c0840152610f2660808701610d4e565b151560e08401528281036040840152610f40818587610e6a565b979650505050505050565b634e487b7160e01b5f52604160045260245ffd5b60a081018181106001600160401b0382111715610f7e57610f7e610f4b565b60405250565b608081018181106001600160401b0382111715610f7e57610f7e610f4b565b601f8201601f191681016001600160401b0381118282101715610fc857610fc8610f4b565b6040525050565b5f6001600160401b03821115610fe757610fe7610f4b565b5060051b60200190565b5f60a08236031215611001575f80fd5b60405161100d81610f5f565b823581526020808401358183015260408401356001600160401b03811115611033575f80fd5b840136601f820112611043575f80fd5b803561104e81610fcf565b60405161105b8282610fa3565b82815260059290921b830184019184810191503683111561107a575f80fd5b928401925b828410156110985783358252928401929084019061107f565b604086015250505050606083810135908201526110b760808401610d4e565b608082015292915050565b634e487b7160e01b5f52602160045260245ffd5b5f60a08301825184526020808401516020860152604084015160a0604087015282815180855260c0880191506020830194505f92505b8083101561112c578451825293830193600192909201919083019061110c565b50606086015160608801526080860151151560808801528094505050505092915050565b5f5b8381101561116a578181015183820152602001611152565b50505f910152565b5f8151808452611189816020860160208601611150565b601f01601f19169290920160200192915050565b5f600384106111ba57634e487b7160e01b5f52602160045260245ffd5b8382526040602083015260018060a01b0383511660408301526020830151608060608401526111ec60c08401826110d6565b90506040840151603f198483030160808501526112098282611172565b915050606084015160a0840152809150509392505050565b8281525f8251611238816020850160208701611150565b919091016020019392505050565b6001600160a01b03841681526060602082018190525f9061126990830185611172565b9050826040830152949350505050565b5f6001600160401b0382111561129157611291610f4b565b50601f01601f191660200190565b5f80604083850312156112b0575f80fd5b8235600381106112be575f80fd5b915060208301356001600160401b038111156112d8575f80fd5b8301601f810185136112e8575f80fd5b80356112f381611279565b6040516113008282610fa3565b828152876020848601011115611314575f80fd5b826020850160208301375f60208483010152809450505050509250929050565b838152818360208301375f910160200190815292915050565b6001600160a01b03841681526040602082018190525f906113719083018486610e6a565b95945050505050565b5f82601f830112611389575f80fd5b815161139481611279565b6040516113a18282610fa3565b8281528560208487010111156113b5575f80fd5b611371836020830160208801611150565b5f60208083850312156113d7575f80fd5b82516001600160401b03808211156113ed575f80fd5b9084019060808287031215611400575f80fd5b6040805161140d81610f84565b835161141881610bf7565b8152838501518381111561142a575f80fd5b840160a0818a03121561143b575f80fd5b825161144681610f5f565b8151815286820151878201528382015185811115611462575f80fd5b8201601f81018b13611472575f80fd5b805161147d81610fcf565b86516114898282610fa3565b82815260059290921b83018a01918a810191508d8311156114a8575f80fd5b928a01925b828410156114c65783518252928a0192908a01906114ad565b84880152505050606082810151908201526114e360808301610e14565b60808201528087840152505081840151945082851115611501575f80fd5b61150d8886860161137a565b8282015260608401516060820152809550505050505092915050565b8082018082111561154857634e487b7160e01b5f52601160045260245ffd5b92915050565b6001600160a01b03841681526060602082018190525f90611571908301856110d6565b82810360408401526115838185611172565b9695505050505050565b5f60033d11156115a35760045f803e505f5160e01c5b90565b5f60443d10156115b35790565b6040516003193d81016004833e81513d6001600160401b0381602484011181841117156115e257505050505090565b82850191508151818111156115fa5750505050505090565b843d87010160208285010111156116145750505050505090565b61162360208286010187610fa3565b50909594505050505056fea2646970667358221220f0467918b0ca7d26a24b09974e69d1fcb83c6852dee9f78b2f7d5ba11d06ccd164736f6c63430008160033",
  "linkReferences": {},
  "deployedLinkReferences": {},
  "immutableReferences": {
    "7658": [
      {
        "length": 32,
        "start": 635
      },
      {
        "length": 32,
        "start": 1499
      },
      {
        "length": 32,
        "start": 2776
      }
    ]
  },
  "inputSourceName": "project/contracts/cross-chain/ChainlinkCCIPAMM.sol",
  "buildInfoId": "solc-0_8_22-85caf41253180a9eece6b6891fd44ad721921859"
}